{
  "_format": "hh-sol-artifact-1",
  "contractName": "AmazonSupplyChain",
  "sourceName": "contracts/AmazonSupplyChain.sol",
  "abi": [
    {
      "inputs": [],
      "stateMutability": "nonpayable",
      "type": "constructor"
    },
    {
      "anonymous": false,
      "inputs": [
        {
          "indexed": true,
          "internalType": "bytes32",
          "name": "brandId",
          "type": "bytes32"
        },
        {
          "indexed": false,
          "internalType": "string",
          "name": "name",
          "type": "string"
        },
        {
          "indexed": true,
          "internalType": "address",
          "name": "manufacturer",
          "type": "address"
        },
        {
          "indexed": false,
          "internalType": "string",
          "name": "logoIpfsHash",
          "type": "string"
        }
      ],
      "name": "BrandRegistered",
      "type": "event"
    },
    {
      "anonymous": false,
      "inputs": [
        {
          "indexed": true,
          "internalType": "bytes32",
          "name": "brandId",
          "type": "bytes32"
        },
        {
          "indexed": true,
          "internalType": "address",
          "name": "manufacturer",
          "type": "address"
        }
      ],
      "name": "BrandRemovedFromWhitelist",
      "type": "event"
    },
    {
      "anonymous": false,
      "inputs": [
        {
          "indexed": true,
          "internalType": "bytes32",
          "name": "brandId",
          "type": "bytes32"
        },
        {
          "indexed": true,
          "internalType": "address",
          "name": "manufacturer",
          "type": "address"
        }
      ],
      "name": "BrandWhitelisted",
      "type": "event"
    },
    {
      "anonymous": false,
      "inputs": [
        {
          "indexed": true,
          "internalType": "bytes32",
          "name": "productId",
          "type": "bytes32"
        },
        {
          "indexed": true,
          "internalType": "address",
          "name": "from",
          "type": "address"
        },
        {
          "indexed": true,
          "internalType": "address",
          "name": "to",
          "type": "address"
        },
        {
          "indexed": false,
          "internalType": "bytes32",
          "name": "uniqueHash",
          "type": "bytes32"
        }
      ],
      "name": "OwnershipRequested",
      "type": "event"
    },
    {
      "anonymous": false,
      "inputs": [
        {
          "indexed": true,
          "internalType": "bytes32",
          "name": "productId",
          "type": "bytes32"
        },
        {
          "indexed": true,
          "internalType": "address",
          "name": "from",
          "type": "address"
        },
        {
          "indexed": true,
          "internalType": "address",
          "name": "to",
          "type": "address"
        },
        {
          "indexed": false,
          "internalType": "bytes32",
          "name": "uniqueHash",
          "type": "bytes32"
        }
      ],
      "name": "OwnershipTransferred",
      "type": "event"
    },
    {
      "anonymous": false,
      "inputs": [
        {
          "indexed": true,
          "internalType": "bytes32",
          "name": "productId",
          "type": "bytes32"
        },
        {
          "indexed": false,
          "internalType": "string",
          "name": "name",
          "type": "string"
        },
        {
          "indexed": false,
          "internalType": "bytes32",
          "name": "brandId",
          "type": "bytes32"
        },
        {
          "indexed": true,
          "internalType": "address",
          "name": "manufacturer",
          "type": "address"
        },
        {
          "indexed": false,
          "internalType": "string",
          "name": "details",
          "type": "string"
        },
        {
          "indexed": false,
          "internalType": "bytes32",
          "name": "uniqueHash",
          "type": "bytes32"
        }
      ],
      "name": "ProductRegistered",
      "type": "event"
    },
    {
      "anonymous": false,
      "inputs": [
        {
          "indexed": true,
          "internalType": "bytes32",
          "name": "productId",
          "type": "bytes32"
        },
        {
          "indexed": true,
          "internalType": "address",
          "name": "verifier",
          "type": "address"
        }
      ],
      "name": "ProductVerified",
      "type": "event"
    },
    {
      "anonymous": false,
      "inputs": [
        {
          "indexed": true,
          "internalType": "address",
          "name": "user",
          "type": "address"
        },
        {
          "indexed": false,
          "internalType": "enum AmazonSupplyChain.Role",
          "name": "role",
          "type": "uint8"
        },
        {
          "indexed": false,
          "internalType": "string",
          "name": "name",
          "type": "string"
        },
        {
          "indexed": false,
          "internalType": "string",
          "name": "email",
          "type": "string"
        },
        {
          "indexed": false,
          "internalType": "string",
          "name": "phoneNumber",
          "type": "string"
        }
      ],
      "name": "UserRegistered",
      "type": "event"
    },
    {
      "inputs": [],
      "name": "admin",
      "outputs": [
        {
          "internalType": "address",
          "name": "",
          "type": "address"
        }
      ],
      "stateMutability": "view",
      "type": "function"
    },
    {
      "inputs": [
        {
          "internalType": "bytes32",
          "name": "_uniqueHash",
          "type": "bytes32"
        }
      ],
      "name": "approveOwnership",
      "outputs": [],
      "stateMutability": "nonpayable",
      "type": "function"
    },
    {
      "inputs": [],
      "name": "brandCounter",
      "outputs": [
        {
          "internalType": "uint256",
          "name": "",
          "type": "uint256"
        }
      ],
      "stateMutability": "view",
      "type": "function"
    },
    {
      "inputs": [
        {
          "internalType": "address",
          "name": "_manufacturerAddress",
          "type": "address"
        }
      ],
      "name": "getAllManufacturerBrands",
      "outputs": [
        {
          "components": [
            {
              "internalType": "bytes32",
              "name": "id",
              "type": "bytes32"
            },
            {
              "internalType": "string",
              "name": "name",
              "type": "string"
            },
            {
              "internalType": "address",
              "name": "manufacturer",
              "type": "address"
            },
            {
              "internalType": "bool",
              "name": "isWhitelisted",
              "type": "bool"
            },
            {
              "internalType": "string",
              "name": "logoIpfsHash",
              "type": "string"
            }
          ],
          "internalType": "struct AmazonSupplyChain.Brand[]",
          "name": "",
          "type": "tuple[]"
        }
      ],
      "stateMutability": "view",
      "type": "function"
    },
    {
      "inputs": [
        {
          "internalType": "address",
          "name": "_manufacturerAddress",
          "type": "address"
        }
      ],
      "name": "getAllManufacturerProducts",
      "outputs": [
        {
          "components": [
            {
              "internalType": "bytes32",
              "name": "id",
              "type": "bytes32"
            },
            {
              "internalType": "string",
              "name": "name",
              "type": "string"
            },
            {
              "internalType": "bytes32",
              "name": "brandId",
              "type": "bytes32"
            },
            {
              "internalType": "address",
              "name": "manufacturer",
              "type": "address"
            },
            {
              "internalType": "address",
              "name": "currentOwner",
              "type": "address"
            },
            {
              "internalType": "string",
              "name": "details",
              "type": "string"
            },
            {
              "internalType": "bytes32",
              "name": "uniqueHash",
              "type": "bytes32"
            },
            {
              "internalType": "bool",
              "name": "delisted",
              "type": "bool"
            }
          ],
          "internalType": "struct AmazonSupplyChain.Product[]",
          "name": "",
          "type": "tuple[]"
        }
      ],
      "stateMutability": "view",
      "type": "function"
    },
    {
      "inputs": [
        {
          "internalType": "string",
          "name": "_brandName",
          "type": "string"
        }
      ],
      "name": "getIPFSHash",
      "outputs": [
        {
          "internalType": "string",
          "name": "",
          "type": "string"
        }
      ],
      "stateMutability": "view",
      "type": "function"
    },
    {
      "inputs": [
        {
          "internalType": "bytes32",
          "name": "_uniqueHash",
          "type": "bytes32"
        }
      ],
      "name": "getProductDetails",
      "outputs": [
        {
          "components": [
            {
              "internalType": "bytes32",
              "name": "id",
              "type": "bytes32"
            },
            {
              "internalType": "string",
              "name": "name",
              "type": "string"
            },
            {
              "internalType": "bytes32",
              "name": "brandId",
              "type": "bytes32"
            },
            {
              "internalType": "address",
              "name": "manufacturer",
              "type": "address"
            },
            {
              "internalType": "address",
              "name": "currentOwner",
              "type": "address"
            },
            {
              "internalType": "string",
              "name": "details",
              "type": "string"
            },
            {
              "internalType": "bytes32",
              "name": "uniqueHash",
              "type": "bytes32"
            },
            {
              "internalType": "bool",
              "name": "delisted",
              "type": "bool"
            }
          ],
          "internalType": "struct AmazonSupplyChain.Product",
          "name": "",
          "type": "tuple"
        }
      ],
      "stateMutability": "view",
      "type": "function"
    },
    {
      "inputs": [
        {
          "internalType": "bytes32",
          "name": "_uniqueHash",
          "type": "bytes32"
        }
      ],
      "name": "getProductOwners",
      "outputs": [
        {
          "components": [
            {
              "internalType": "enum AmazonSupplyChain.Role",
              "name": "role",
              "type": "uint8"
            },
            {
              "internalType": "address",
              "name": "ownerAddress",
              "type": "address"
            }
          ],
          "internalType": "struct AmazonSupplyChain.OwnerInfo[]",
          "name": "",
          "type": "tuple[]"
        }
      ],
      "stateMutability": "view",
      "type": "function"
    },
    {
      "inputs": [
        {
          "internalType": "string",
          "name": "_brandName",
          "type": "string"
        }
      ],
      "name": "isBrandStored",
      "outputs": [
        {
          "internalType": "bool",
          "name": "",
          "type": "bool"
        }
      ],
      "stateMutability": "view",
      "type": "function"
    },
    {
      "inputs": [],
      "name": "productCounter",
      "outputs": [
        {
          "internalType": "uint256",
          "name": "",
          "type": "uint256"
        }
      ],
      "stateMutability": "view",
      "type": "function"
    },
    {
      "inputs": [
        {
          "internalType": "string",
          "name": "_name",
          "type": "string"
        },
        {
          "internalType": "string",
          "name": "_logoIpfsHash",
          "type": "string"
        }
      ],
      "name": "registerBrand",
      "outputs": [
        {
          "internalType": "bytes32",
          "name": "",
          "type": "bytes32"
        }
      ],
      "stateMutability": "nonpayable",
      "type": "function"
    },
    {
      "inputs": [
        {
          "internalType": "string",
          "name": "_name",
          "type": "string"
        },
        {
          "internalType": "string",
          "name": "_details",
          "type": "string"
        },
        {
          "internalType": "bytes32",
          "name": "_brandId",
          "type": "bytes32"
        }
      ],
      "name": "registerProduct",
      "outputs": [
        {
          "internalType": "bytes32",
          "name": "",
          "type": "bytes32"
        }
      ],
      "stateMutability": "nonpayable",
      "type": "function"
    },
    {
      "inputs": [
        {
          "internalType": "enum AmazonSupplyChain.Role",
          "name": "_role",
          "type": "uint8"
        },
        {
          "internalType": "string",
          "name": "_name",
          "type": "string"
        },
        {
          "internalType": "string",
          "name": "_email",
          "type": "string"
        },
        {
          "internalType": "string",
          "name": "_phoneNumber",
          "type": "string"
        }
      ],
      "name": "registerUser",
      "outputs": [],
      "stateMutability": "nonpayable",
      "type": "function"
    },
    {
      "inputs": [
        {
          "internalType": "bytes32",
          "name": "_brandId",
          "type": "bytes32"
        }
      ],
      "name": "removeWhitelistedBrand",
      "outputs": [],
      "stateMutability": "nonpayable",
      "type": "function"
    },
    {
      "inputs": [
        {
          "internalType": "bytes32",
          "name": "_uniqueHash",
          "type": "bytes32"
        }
      ],
      "name": "requestOwnership",
      "outputs": [],
      "stateMutability": "nonpayable",
      "type": "function"
    },
    {
      "inputs": [
        {
          "internalType": "bytes32",
          "name": "_uniqueHash",
          "type": "bytes32"
        }
      ],
      "name": "verifyProduct",
      "outputs": [
        {
          "internalType": "bool",
          "name": "",
          "type": "bool"
        }
      ],
      "stateMutability": "view",
      "type": "function"
    },
    {
      "inputs": [
        {
          "internalType": "bytes32",
          "name": "_brandId",
          "type": "bytes32"
        }
      ],
      "name": "whitelistBrand",
      "outputs": [],
      "stateMutability": "nonpayable",
      "type": "function"
    }
  ],
  "bytecode": "0x608060405234801561001057600080fd5b50336000806101000a81548173ffffffffffffffffffffffffffffffffffffffff021916908373ffffffffffffffffffffffffffffffffffffffff160217905550614890806100606000396000f3fe608060405234801561001057600080fd5b506004361061010b5760003560e01c80637bcbf1b1116100a2578063c7568eff11610071578063c7568eff14610302578063df24e1bd14610320578063e0f243121461033c578063eda4596514610358578063f851a440146103885761010b565b80637bcbf1b114610256578063955f2c1014610272578063b74d3fb5146102a2578063bde12f47146102d25761010b565b80634a5f66c1116100de5780634a5f66c1146101be57806362db8381146101ee5780636461835a1461020a578063713cae101461023a5761010b565b80630ea33289146101105780631185760c146101405780631f16653b14610170578063318451a81461018e575b600080fd5b61012a60048036038101906101259190613020565b6103a6565b60405161013791906130b1565b60405180910390f35b61015a600480360381019061015591906130f8565b6107d1565b60405161016791906130b1565b60405180910390f35b610178610e2e565b604051610185919061319c565b60405180910390f35b6101a860048036038101906101a391906131b7565b610e34565b6040516101b5919061337a565b60405180910390f35b6101d860048036038101906101d3919061339c565b61108b565b6040516101e59190613464565b60405180910390f35b610208600480360381019061020391906131b7565b611236565b005b610224600480360381019061021f91906134b2565b61154c565b6040516102319190613692565b60405180910390f35b610254600480360381019061024f91906131b7565b611789565b005b610270600480360381019061026b91906131b7565b611a3c565b005b61028c600480360381019061028791906134b2565b611f6c565b604051610299919061382d565b60405180910390f35b6102bc60048036038101906102b791906131b7565b61221a565b6040516102c99190613906565b60405180910390f35b6102ec60048036038101906102e7919061339c565b6124af565b6040516102f99190613937565b60405180910390f35b61030a6124e5565b604051610317919061319c565b60405180910390f35b61033a600480360381019061033591906131b7565b6124eb565b005b61035660048036038101906103519190613977565b612857565b005b610372600480360381019061036d91906131b7565b612b58565b60405161037f9190613937565b60405180910390f35b610390612de4565b60405161039d9190613a41565b60405180910390f35b6000600160038111156103bc576103bb613210565b5b600360003373ffffffffffffffffffffffffffffffffffffffff1673ffffffffffffffffffffffffffffffffffffffff16815260200190815260200160002060000160009054906101000a900460ff16600381111561041e5761041d613210565b5b1461045e576040517f08c379a000000000000000000000000000000000000000000000000000000000815260040161045590613ace565b60405180910390fd5b60006008846040516104709190613b2a565b9081526020016040518091039020805461048990613b70565b9050146104cb576040517f08c379a00000000000000000000000000000000000000000000000000000000081526004016104c290613bed565b60405180910390fd5b60008333426040516020016104e293929190613c76565b6040516020818303038152906040528051906020012090506001600081548092919061050d90613cde565b91905055506040518060a001604052808281526020018581526020013373ffffffffffffffffffffffffffffffffffffffff16815260200160001515815260200184815250600460008381526020019081526020016000206000820151816000015560208201518160010190816105849190613ed2565b5060408201518160020160006101000a81548173ffffffffffffffffffffffffffffffffffffffff021916908373ffffffffffffffffffffffffffffffffffffffff16021790555060608201518160020160146101000a81548160ff02191690831515021790555060808201518160030190816106019190613ed2565b50905050600b60003373ffffffffffffffffffffffffffffffffffffffff1673ffffffffffffffffffffffffffffffffffffffff168152602001908152602001600020600460008381526020019081526020016000209080600181540180825580915050600190039060005260206000209060040201600090919091909150600082015481600001556001820181600101908161069e9190613fba565b506002820160009054906101000a900473ffffffffffffffffffffffffffffffffffffffff168160020160006101000a81548173ffffffffffffffffffffffffffffffffffffffff021916908373ffffffffffffffffffffffffffffffffffffffff1602179055506002820160149054906101000a900460ff168160020160146101000a81548160ff021916908315150217905550600382018160030190816107479190613fba565b5050508260088560405161075b9190613b2a565b908152602001604051809103902090816107759190613ed2565b503373ffffffffffffffffffffffffffffffffffffffff16817f197183793a3833cac582caf722bf57551339c54b88834a34a20ae31efec3f73786866040516107bf9291906140a2565b60405180910390a38091505092915050565b6000600160038111156107e7576107e6613210565b5b600360003373ffffffffffffffffffffffffffffffffffffffff1673ffffffffffffffffffffffffffffffffffffffff16815260200190815260200160002060000160009054906101000a900460ff16600381111561084957610848613210565b5b14610889576040517f08c379a000000000000000000000000000000000000000000000000000000000815260040161088090613ace565b60405180910390fd5b3373ffffffffffffffffffffffffffffffffffffffff166004600084815260200190815260200160002060020160009054906101000a900473ffffffffffffffffffffffffffffffffffffffff1673ffffffffffffffffffffffffffffffffffffffff161461092d576040517f08c379a000000000000000000000000000000000000000000000000000000000815260040161092490614125565b60405180910390fd5b6004600083815260200190815260200160002060020160149054906101000a900460ff16610990576040517f08c379a000000000000000000000000000000000000000000000000000000000815260040161098790614191565b60405180910390fd5b60008484426040516020016109a7939291906141b1565b60405160208183030381529060405280519060200120905060008533426002546040516020016109da94939291906141e6565b60405160208183030381529060405280519060200120905060026000815480929190610a0590613cde565b91905055506040518061010001604052808281526020018781526020018581526020013373ffffffffffffffffffffffffffffffffffffffff1681526020013373ffffffffffffffffffffffffffffffffffffffff1681526020018681526020018381526020016000151581525060056000838152602001908152602001600020600082015181600001556020820151816001019081610aa59190613ed2565b506040820151816002015560608201518160030160006101000a81548173ffffffffffffffffffffffffffffffffffffffff021916908373ffffffffffffffffffffffffffffffffffffffff16021790555060808201518160040160006101000a81548173ffffffffffffffffffffffffffffffffffffffff021916908373ffffffffffffffffffffffffffffffffffffffff16021790555060a0820151816005019081610b539190613ed2565b5060c0820151816006015560e08201518160070160006101000a81548160ff021916908315150217905550905050600c60003373ffffffffffffffffffffffffffffffffffffffff1673ffffffffffffffffffffffffffffffffffffffff1681526020019081526020016000206005600083815260200190815260200160002090806001815401808255809150506001900390600052602060002090600802016000909190919091506000820154816000015560018201816001019081610c1a9190613fba565b50600282015481600201556003820160009054906101000a900473ffffffffffffffffffffffffffffffffffffffff168160030160006101000a81548173ffffffffffffffffffffffffffffffffffffffff021916908373ffffffffffffffffffffffffffffffffffffffff1602179055506004820160009054906101000a900473ffffffffffffffffffffffffffffffffffffffff168160040160006101000a81548173ffffffffffffffffffffffffffffffffffffffff021916908373ffffffffffffffffffffffffffffffffffffffff16021790555060058201816005019081610d079190613fba565b50600682015481600601556007820160009054906101000a900460ff168160070160006101000a81548160ff021916908315150217905550505080600660008481526020019081526020016000208190555060076000828152602001908152602001600020339080600181540180825580915050600190039060005260206000200160009091909190916101000a81548173ffffffffffffffffffffffffffffffffffffffff021916908373ffffffffffffffffffffffffffffffffffffffff1602179055503373ffffffffffffffffffffffffffffffffffffffff16817f302f3a56907582208dff7a9cf9ab1d0eb59792f52abddd0b83be331f6b06161288878987604051610e1a9493929190614230565b60405180910390a381925050509392505050565b60025481565b60606000600660008481526020019081526020016000205490506000801b8103610e93576040517f08c379a0000000000000000000000000000000000000000000000000000000008152600401610e8a906142cf565b60405180910390fd5b600060076000838152602001908152602001600020805480602002602001604051908101604052809291908181526020018280548015610f2857602002820191906000526020600020905b8160009054906101000a900473ffffffffffffffffffffffffffffffffffffffff1673ffffffffffffffffffffffffffffffffffffffff1681526020019060010190808311610ede575b505050505090506000815167ffffffffffffffff811115610f4c57610f4b612ef5565b5b604051908082528060200260200182016040528015610f8557816020015b610f72612e08565b815260200190600190039081610f6a5790505b50905060005b825181101561107f57604051806040016040528060036000868581518110610fb657610fb56142ef565b5b602002602001015173ffffffffffffffffffffffffffffffffffffffff1673ffffffffffffffffffffffffffffffffffffffff16815260200190815260200160002060000160009054906101000a900460ff16600381111561101b5761101a613210565b5b8152602001848381518110611033576110326142ef565b5b602002602001015173ffffffffffffffffffffffffffffffffffffffff16815250828281518110611067576110666142ef565b5b60200260200101819052508080600101915050610f8b565b50809350505050919050565b606060008054906101000a900473ffffffffffffffffffffffffffffffffffffffff1673ffffffffffffffffffffffffffffffffffffffff163373ffffffffffffffffffffffffffffffffffffffff161461111b576040517f08c379a000000000000000000000000000000000000000000000000000000000815260040161111290614390565b60405180910390fd5b600060088360405161112d9190613b2a565b9081526020016040518091039020805461114690613b70565b905011611188576040517f08c379a000000000000000000000000000000000000000000000000000000000815260040161117f906143fc565b60405180910390fd5b6008826040516111989190613b2a565b908152602001604051809103902080546111b190613b70565b80601f01602080910402602001604051908101604052809291908181526020018280546111dd90613b70565b801561122a5780601f106111ff5761010080835404028352916020019161122a565b820191906000526020600020905b81548152906001019060200180831161120d57829003601f168201915b50505050509050919050565b60008054906101000a900473ffffffffffffffffffffffffffffffffffffffff1673ffffffffffffffffffffffffffffffffffffffff163373ffffffffffffffffffffffffffffffffffffffff16146112c4576040517f08c379a00000000000000000000000000000000000000000000000000000000081526004016112bb90614390565b60405180910390fd5b60006004600083815260200190815260200160002060020160009054906101000a900473ffffffffffffffffffffffffffffffffffffffff169050600073ffffffffffffffffffffffffffffffffffffffff168173ffffffffffffffffffffffffffffffffffffffff160361136e576040517f08c379a000000000000000000000000000000000000000000000000000000000815260040161136590614468565b60405180910390fd5b6004600083815260200190815260200160002060020160149054906101000a900460ff166113d1576040517f08c379a00000000000000000000000000000000000000000000000000000000081526004016113c890614191565b60405180910390fd5b60006004600084815260200190815260200160002060020160146101000a81548160ff0219169083151502179055506000600b60008373ffffffffffffffffffffffffffffffffffffffff1673ffffffffffffffffffffffffffffffffffffffff168152602001908152602001600020905060005b81805490508110156114cc5783828281548110611466576114656142ef565b5b906000526020600020906004020160000154036114bf576000828281548110611492576114916142ef565b5b906000526020600020906004020160020160146101000a81548160ff0219169083151502179055506114cc565b8080600101915050611446565b506004600084815260200190815260200160002060020160009054906101000a900473ffffffffffffffffffffffffffffffffffffffff1673ffffffffffffffffffffffffffffffffffffffff16837ff682ed9be74fe5f483d7e3b151689dc6749856a3d6752cd44304b73bf871e86160405160405180910390a3505050565b6060600b60008373ffffffffffffffffffffffffffffffffffffffff1673ffffffffffffffffffffffffffffffffffffffff168152602001908152602001600020805480602002602001604051908101604052809291908181526020016000905b8282101561177e57838290600052602060002090600402016040518060a0016040529081600082015481526020016001820180546115ea90613b70565b80601f016020809104026020016040519081016040528092919081815260200182805461161690613b70565b80156116635780601f1061163857610100808354040283529160200191611663565b820191906000526020600020905b81548152906001019060200180831161164657829003601f168201915b505050505081526020016002820160009054906101000a900473ffffffffffffffffffffffffffffffffffffffff1673ffffffffffffffffffffffffffffffffffffffff1673ffffffffffffffffffffffffffffffffffffffff1681526020016002820160149054906101000a900460ff161515151581526020016003820180546116ed90613b70565b80601f016020809104026020016040519081016040528092919081815260200182805461171990613b70565b80156117665780601f1061173b57610100808354040283529160200191611766565b820191906000526020600020905b81548152906001019060200180831161174957829003601f168201915b505050505081525050815260200190600101906115ad565b505050509050919050565b60008054906101000a900473ffffffffffffffffffffffffffffffffffffffff1673ffffffffffffffffffffffffffffffffffffffff163373ffffffffffffffffffffffffffffffffffffffff1614611817576040517f08c379a000000000000000000000000000000000000000000000000000000000815260040161180e90614390565b60405180910390fd5b60006004600083815260200190815260200160002060020160009054906101000a900473ffffffffffffffffffffffffffffffffffffffff169050600073ffffffffffffffffffffffffffffffffffffffff168173ffffffffffffffffffffffffffffffffffffffff16036118c1576040517f08c379a00000000000000000000000000000000000000000000000000000000081526004016118b890614468565b60405180910390fd5b60016004600084815260200190815260200160002060020160146101000a81548160ff0219169083151502179055506000600b60008373ffffffffffffffffffffffffffffffffffffffff1673ffffffffffffffffffffffffffffffffffffffff168152602001908152602001600020905060005b81805490508110156119bc5783828281548110611956576119556142ef565b5b906000526020600020906004020160000154036119af576001828281548110611982576119816142ef565b5b906000526020600020906004020160020160146101000a81548160ff0219169083151502179055506119bc565b8080600101915050611936565b506004600084815260200190815260200160002060020160009054906101000a900473ffffffffffffffffffffffffffffffffffffffff1673ffffffffffffffffffffffffffffffffffffffff16837f31bccd6eebc9f63638bd857e49ae8f36f261f75d8339a5c2d401cdbf2fcbe2f560405160405180910390a3505050565b600060066000838152602001908152602001600020549050600115156005600083815260200190815260200160002060070160009054906101000a900460ff16151503611abe576040517f08c379a0000000000000000000000000000000000000000000000000000000008152600401611ab5906144d4565b60405180910390fd5b6000801b8103611b03576040517f08c379a0000000000000000000000000000000000000000000000000000000008152600401611afa906142cf565b60405180910390fd5b3373ffffffffffffffffffffffffffffffffffffffff166005600083815260200190815260200160002060040160009054906101000a900473ffffffffffffffffffffffffffffffffffffffff1673ffffffffffffffffffffffffffffffffffffffff1614611ba7576040517f08c379a0000000000000000000000000000000000000000000000000000000008152600401611b9e90614566565b60405180910390fd5b600a600083815260200190815260200160002060000160149054906101000a900460ff16611c0a576040517f08c379a0000000000000000000000000000000000000000000000000000000008152600401611c01906145d2565b60405180910390fd5b6000600a600084815260200190815260200160002060000160009054906101000a900473ffffffffffffffffffffffffffffffffffffffff169050806005600084815260200190815260200160002060040160006101000a81548173ffffffffffffffffffffffffffffffffffffffff021916908373ffffffffffffffffffffffffffffffffffffffff16021790555060076000838152602001908152602001600020819080600181540180825580915050600190039060005260206000200160009091909190916101000a81548173ffffffffffffffffffffffffffffffffffffffff021916908373ffffffffffffffffffffffffffffffffffffffff1602179055506000600a600085815260200190815260200160002060000160146101000a81548160ff0219169083151502179055506000600c60006005600086815260200190815260200160002060030160009054906101000a900473ffffffffffffffffffffffffffffffffffffffff1673ffffffffffffffffffffffffffffffffffffffff1673ffffffffffffffffffffffffffffffffffffffff1681526020019081526020016000209050600380811115611dc957611dc8613210565b5b600360008473ffffffffffffffffffffffffffffffffffffffff1673ffffffffffffffffffffffffffffffffffffffff16815260200190815260200160002060000160009054906101000a900460ff166003811115611e2b57611e2a613210565b5b03611f005760016005600085815260200190815260200160002060070160006101000a81548160ff02191690831515021790555060005b600254811015611ee65783828281548110611e8057611e7f6142ef565b5b90600052602060002090600802016000015403611ed9576001828281548110611eac57611eab6142ef565b5b906000526020600020906008020160070160006101000a81548160ff021916908315150217905550611ee6565b8080600101915050611e62565b5060026000815480929190611efa906145f2565b91905055505b8173ffffffffffffffffffffffffffffffffffffffff163373ffffffffffffffffffffffffffffffffffffffff16847f62fb20063525870511d590a85718d4f5824652d140cdd8e33aba11b06678159987604051611f5e91906130b1565b60405180910390a450505050565b60606000600c60008473ffffffffffffffffffffffffffffffffffffffff1673ffffffffffffffffffffffffffffffffffffffff168152602001908152602001600020805480602002602001604051908101604052809291908181526020016000905b8282101561220b5783829060005260206000209060080201604051806101000160405290816000820154815260200160018201805461200d90613b70565b80601f016020809104026020016040519081016040528092919081815260200182805461203990613b70565b80156120865780601f1061205b57610100808354040283529160200191612086565b820191906000526020600020905b81548152906001019060200180831161206957829003601f168201915b50505050508152602001600282015481526020016003820160009054906101000a900473ffffffffffffffffffffffffffffffffffffffff1673ffffffffffffffffffffffffffffffffffffffff1673ffffffffffffffffffffffffffffffffffffffff1681526020016004820160009054906101000a900473ffffffffffffffffffffffffffffffffffffffff1673ffffffffffffffffffffffffffffffffffffffff1673ffffffffffffffffffffffffffffffffffffffff16815260200160058201805461215590613b70565b80601f016020809104026020016040519081016040528092919081815260200182805461218190613b70565b80156121ce5780601f106121a3576101008083540402835291602001916121ce565b820191906000526020600020905b8154815290600101906020018083116121b157829003601f168201915b50505050508152602001600682015481526020016007820160009054906101000a900460ff16151515158152505081526020019060010190611fcf565b50505050905080915050919050565b612222612e4a565b6000600660008481526020019081526020016000205490506000801b810361227f576040517f08c379a0000000000000000000000000000000000000000000000000000000008152600401612276906142cf565b60405180910390fd5b6005600082815260200190815260200160002060405180610100016040529081600082015481526020016001820180546122b890613b70565b80601f01602080910402602001604051908101604052809291908181526020018280546122e490613b70565b80156123315780601f1061230657610100808354040283529160200191612331565b820191906000526020600020905b81548152906001019060200180831161231457829003601f168201915b50505050508152602001600282015481526020016003820160009054906101000a900473ffffffffffffffffffffffffffffffffffffffff1673ffffffffffffffffffffffffffffffffffffffff1673ffffffffffffffffffffffffffffffffffffffff1681526020016004820160009054906101000a900473ffffffffffffffffffffffffffffffffffffffff1673ffffffffffffffffffffffffffffffffffffffff1673ffffffffffffffffffffffffffffffffffffffff16815260200160058201805461240090613b70565b80601f016020809104026020016040519081016040528092919081815260200182805461242c90613b70565b80156124795780601f1061244e57610100808354040283529160200191612479565b820191906000526020600020905b81548152906001019060200180831161245c57829003601f168201915b50505050508152602001600682015481526020016007820160009054906101000a900460ff161515151581525050915050919050565b6000806008836040516124c29190613b2a565b908152602001604051809103902080546124db90613b70565b9050119050919050565b60015481565b600060038111156124ff576124fe613210565b5b600360003373ffffffffffffffffffffffffffffffffffffffff1673ffffffffffffffffffffffffffffffffffffffff16815260200190815260200160002060000160009054906101000a900460ff16600381111561256157612560613210565b5b036125a1576040517f08c379a000000000000000000000000000000000000000000000000000000000815260040161259890614667565b60405180910390fd5b600060066000838152602001908152602001600020549050600115156005600083815260200190815260200160002060070160009054906101000a900460ff16151503612623576040517f08c379a000000000000000000000000000000000000000000000000000000000815260040161261a906144d4565b60405180910390fd5b6000801b8103612668576040517f08c379a000000000000000000000000000000000000000000000000000000000815260040161265f906142cf565b60405180910390fd5b3373ffffffffffffffffffffffffffffffffffffffff166005600083815260200190815260200160002060040160009054906101000a900473ffffffffffffffffffffffffffffffffffffffff1673ffffffffffffffffffffffffffffffffffffffff160361270c576040517f08c379a0000000000000000000000000000000000000000000000000000000008152600401612703906146f9565b60405180910390fd5b60405180604001604052803373ffffffffffffffffffffffffffffffffffffffff16815260200160011515815250600a600084815260200190815260200160002060008201518160000160006101000a81548173ffffffffffffffffffffffffffffffffffffffff021916908373ffffffffffffffffffffffffffffffffffffffff16021790555060208201518160000160146101000a81548160ff0219169083151502179055509050506005600082815260200190815260200160002060040160009054906101000a900473ffffffffffffffffffffffffffffffffffffffff1673ffffffffffffffffffffffffffffffffffffffff163373ffffffffffffffffffffffffffffffffffffffff16827f9dd89f7800fe863325d636a8bdb515f54a52013476f7d39647f61a250c80688d8560405161284b91906130b1565b60405180910390a45050565b6000600381111561286b5761286a613210565b5b600360003373ffffffffffffffffffffffffffffffffffffffff1673ffffffffffffffffffffffffffffffffffffffff16815260200190815260200160002060000160009054906101000a900460ff1660038111156128cd576128cc613210565b5b1461290d576040517f08c379a000000000000000000000000000000000000000000000000000000000815260040161290490614765565b60405180910390fd5b600073ffffffffffffffffffffffffffffffffffffffff166009836040516129359190613b2a565b908152602001604051809103902060009054906101000a900473ffffffffffffffffffffffffffffffffffffffff1673ffffffffffffffffffffffffffffffffffffffff16146129ba576040517f08c379a00000000000000000000000000000000000000000000000000000000081526004016129b1906147d1565b60405180910390fd5b60405180608001604052808560038111156129d8576129d7613210565b5b815260200184815260200183815260200182815250600360003373ffffffffffffffffffffffffffffffffffffffff1673ffffffffffffffffffffffffffffffffffffffff16815260200190815260200160002060008201518160000160006101000a81548160ff02191690836003811115612a5757612a56613210565b5b02179055506020820151816001019081612a719190613ed2565b506040820151816002019081612a879190613ed2565b506060820151816003019081612a9d9190613ed2565b5090505033600983604051612ab29190613b2a565b908152602001604051809103902060006101000a81548173ffffffffffffffffffffffffffffffffffffffff021916908373ffffffffffffffffffffffffffffffffffffffff1602179055503373ffffffffffffffffffffffffffffffffffffffff167fef01cf7b3c5d8be18fef6a3a019d98760533af73932fa5b4d3a4b2c3b5651aa185858585604051612b4a9493929190614800565b60405180910390a250505050565b600080600660008481526020019081526020016000205490506000801b8103612bb6576040517f08c379a0000000000000000000000000000000000000000000000000000000008152600401612bad906142cf565b60405180910390fd5b600060076000838152602001908152602001600020805480602002602001604051908101604052809291908181526020018280548015612c4b57602002820191906000526020600020905b8160009054906101000a900473ffffffffffffffffffffffffffffffffffffffff1673ffffffffffffffffffffffffffffffffffffffff1681526020019060010190808311612c01575b505050505090506000805b8251811015612dd85760016003811115612c7357612c72613210565b5b60036000858481518110612c8a57612c896142ef565b5b602002602001015173ffffffffffffffffffffffffffffffffffffffff1673ffffffffffffffffffffffffffffffffffffffff16815260200190815260200160002060000160009054906101000a900460ff166003811115612cef57612cee613210565b5b03612dcb57600060056000868152602001908152602001600020600201549050838281518110612d2257612d216142ef565b5b602002602001015173ffffffffffffffffffffffffffffffffffffffff166004600083815260200190815260200160002060020160009054906101000a900473ffffffffffffffffffffffffffffffffffffffff1673ffffffffffffffffffffffffffffffffffffffff16148015612dba57506004600082815260200190815260200160002060020160149054906101000a900460ff165b15612dc9576001925050612dd8565b505b8080600101915050612c56565b50809350505050919050565b60008054906101000a900473ffffffffffffffffffffffffffffffffffffffff1681565b604051806040016040528060006003811115612e2757612e26613210565b5b8152602001600073ffffffffffffffffffffffffffffffffffffffff1681525090565b604051806101000160405280600080191681526020016060815260200160008019168152602001600073ffffffffffffffffffffffffffffffffffffffff168152602001600073ffffffffffffffffffffffffffffffffffffffff16815260200160608152602001600080191681526020016000151581525090565b6000604051905090565b600080fd5b600080fd5b600080fd5b600080fd5b6000601f19601f8301169050919050565b7f4e487b7100000000000000000000000000000000000000000000000000000000600052604160045260246000fd5b612f2d82612ee4565b810181811067ffffffffffffffff82111715612f4c57612f4b612ef5565b5b80604052505050565b6000612f5f612ec6565b9050612f6b8282612f24565b919050565b600067ffffffffffffffff821115612f8b57612f8a612ef5565b5b612f9482612ee4565b9050602081019050919050565b82818337600083830152505050565b6000612fc3612fbe84612f70565b612f55565b905082815260208101848484011115612fdf57612fde612edf565b5b612fea848285612fa1565b509392505050565b600082601f83011261300757613006612eda565b5b8135613017848260208601612fb0565b91505092915050565b6000806040838503121561303757613036612ed0565b5b600083013567ffffffffffffffff81111561305557613054612ed5565b5b61306185828601612ff2565b925050602083013567ffffffffffffffff81111561308257613081612ed5565b5b61308e85828601612ff2565b9150509250929050565b6000819050919050565b6130ab81613098565b82525050565b60006020820190506130c660008301846130a2565b92915050565b6130d581613098565b81146130e057600080fd5b50565b6000813590506130f2816130cc565b92915050565b60008060006060848603121561311157613110612ed0565b5b600084013567ffffffffffffffff81111561312f5761312e612ed5565b5b61313b86828701612ff2565b935050602084013567ffffffffffffffff81111561315c5761315b612ed5565b5b61316886828701612ff2565b9250506040613179868287016130e3565b9150509250925092565b6000819050919050565b61319681613183565b82525050565b60006020820190506131b1600083018461318d565b92915050565b6000602082840312156131cd576131cc612ed0565b5b60006131db848285016130e3565b91505092915050565b600081519050919050565b600082825260208201905092915050565b6000819050602082019050919050565b7f4e487b7100000000000000000000000000000000000000000000000000000000600052602160045260246000fd5b600481106132505761324f613210565b5b50565b60008190506132618261323f565b919050565b600061327182613253565b9050919050565b61328181613266565b82525050565b600073ffffffffffffffffffffffffffffffffffffffff82169050919050565b60006132b282613287565b9050919050565b6132c2816132a7565b82525050565b6040820160008201516132de6000850182613278565b5060208201516132f160208501826132b9565b50505050565b600061330383836132c8565b60408301905092915050565b6000602082019050919050565b6000613327826131e4565b61333181856131ef565b935061333c83613200565b8060005b8381101561336d57815161335488826132f7565b975061335f8361330f565b925050600181019050613340565b5085935050505092915050565b60006020820190508181036000830152613394818461331c565b905092915050565b6000602082840312156133b2576133b1612ed0565b5b600082013567ffffffffffffffff8111156133d0576133cf612ed5565b5b6133dc84828501612ff2565b91505092915050565b600081519050919050565b600082825260208201905092915050565b60005b8381101561341f578082015181840152602081019050613404565b60008484015250505050565b6000613436826133e5565b61344081856133f0565b9350613450818560208601613401565b61345981612ee4565b840191505092915050565b6000602082019050818103600083015261347e818461342b565b905092915050565b61348f816132a7565b811461349a57600080fd5b50565b6000813590506134ac81613486565b92915050565b6000602082840312156134c8576134c7612ed0565b5b60006134d68482850161349d565b91505092915050565b600081519050919050565b600082825260208201905092915050565b6000819050602082019050919050565b61351481613098565b82525050565b600082825260208201905092915050565b6000613536826133e5565b613540818561351a565b9350613550818560208601613401565b61355981612ee4565b840191505092915050565b60008115159050919050565b61357981613564565b82525050565b600060a083016000830151613597600086018261350b565b50602083015184820360208601526135af828261352b565b91505060408301516135c460408601826132b9565b5060608301516135d76060860182613570565b50608083015184820360808601526135ef828261352b565b9150508091505092915050565b6000613608838361357f565b905092915050565b6000602082019050919050565b6000613628826134df565b61363281856134ea565b935083602082028501613644856134fb565b8060005b85811015613680578484038952815161366185826135fc565b945061366c83613610565b925060208a01995050600181019050613648565b50829750879550505050505092915050565b600060208201905081810360008301526136ac818461361d565b905092915050565b600081519050919050565b600082825260208201905092915050565b6000819050602082019050919050565b6000610100830160008301516136f9600086018261350b565b5060208301518482036020860152613711828261352b565b9150506040830151613726604086018261350b565b50606083015161373960608601826132b9565b50608083015161374c60808601826132b9565b5060a083015184820360a0860152613764828261352b565b91505060c083015161377960c086018261350b565b5060e083015161378c60e0860182613570565b508091505092915050565b60006137a383836136e0565b905092915050565b6000602082019050919050565b60006137c3826136b4565b6137cd81856136bf565b9350836020820285016137df856136d0565b8060005b8581101561381b57848403895281516137fc8582613797565b9450613807836137ab565b925060208a019950506001810190506137e3565b50829750879550505050505092915050565b6000602082019050818103600083015261384781846137b8565b905092915050565b600061010083016000830151613868600086018261350b565b5060208301518482036020860152613880828261352b565b9150506040830151613895604086018261350b565b5060608301516138a860608601826132b9565b5060808301516138bb60808601826132b9565b5060a083015184820360a08601526138d3828261352b565b91505060c08301516138e860c086018261350b565b5060e08301516138fb60e0860182613570565b508091505092915050565b60006020820190508181036000830152613920818461384f565b905092915050565b61393181613564565b82525050565b600060208201905061394c6000830184613928565b92915050565b6004811061395f57600080fd5b50565b60008135905061397181613952565b92915050565b6000806000806080858703121561399157613990612ed0565b5b600061399f87828801613962565b945050602085013567ffffffffffffffff8111156139c0576139bf612ed5565b5b6139cc87828801612ff2565b935050604085013567ffffffffffffffff8111156139ed576139ec612ed5565b5b6139f987828801612ff2565b925050606085013567ffffffffffffffff811115613a1a57613a19612ed5565b5b613a2687828801612ff2565b91505092959194509250565b613a3b816132a7565b82525050565b6000602082019050613a566000830184613a32565b92915050565b7f4f6e6c79206d616e756661637475726572732063616e20706572666f726d207460008201527f68697320616374696f6e00000000000000000000000000000000000000000000602082015250565b6000613ab8602a836133f0565b9150613ac382613a5c565b604082019050919050565b60006020820190508181036000830152613ae781613aab565b9050919050565b600081905092915050565b6000613b04826133e5565b613b0e8185613aee565b9350613b1e818560208601613401565b80840191505092915050565b6000613b368284613af9565b915081905092915050565b7f4e487b7100000000000000000000000000000000000000000000000000000000600052602260045260246000fd5b60006002820490506001821680613b8857607f821691505b602082108103613b9b57613b9a613b41565b5b50919050565b7f4272616e6420616c726561647920726567697374657265642100000000000000600082015250565b6000613bd76019836133f0565b9150613be282613ba1565b602082019050919050565b60006020820190508181036000830152613c0681613bca565b9050919050565b60008160601b9050919050565b6000613c2582613c0d565b9050919050565b6000613c3782613c1a565b9050919050565b613c4f613c4a826132a7565b613c2c565b82525050565b6000819050919050565b613c70613c6b82613183565b613c55565b82525050565b6000613c828286613af9565b9150613c8e8285613c3e565b601482019150613c9e8284613c5f565b602082019150819050949350505050565b7f4e487b7100000000000000000000000000000000000000000000000000000000600052601160045260246000fd5b6000613ce982613183565b91507fffffffffffffffffffffffffffffffffffffffffffffffffffffffffffffffff8203613d1b57613d1a613caf565b5b600182019050919050565b60008190508160005260206000209050919050565b60006020601f8301049050919050565b600082821b905092915050565b600060088302613d887fffffffffffffffffffffffffffffffffffffffffffffffffffffffffffffffff82613d4b565b613d928683613d4b565b95508019841693508086168417925050509392505050565b6000819050919050565b6000613dcf613dca613dc584613183565b613daa565b613183565b9050919050565b6000819050919050565b613de983613db4565b613dfd613df582613dd6565b848454613d58565b825550505050565b600090565b613e12613e05565b613e1d818484613de0565b505050565b5b81811015613e4157613e36600082613e0a565b600181019050613e23565b5050565b601f821115613e8657613e5781613d26565b613e6084613d3b565b81016020851015613e6f578190505b613e83613e7b85613d3b565b830182613e22565b50505b505050565b600082821c905092915050565b6000613ea960001984600802613e8b565b1980831691505092915050565b6000613ec28383613e98565b9150826002028217905092915050565b613edb826133e5565b67ffffffffffffffff811115613ef457613ef3612ef5565b5b613efe8254613b70565b613f09828285613e45565b600060209050601f831160018114613f3c5760008415613f2a578287015190505b613f348582613eb6565b865550613f9c565b601f198416613f4a86613d26565b60005b82811015613f7257848901518255600182019150602085019450602081019050613f4d565b86831015613f8f5784890151613f8b601f891682613e98565b8355505b6001600288020188555050505b505050505050565b600081549050613fb381613b70565b9050919050565b818103613fc85750506140a0565b613fd182613fa4565b67ffffffffffffffff811115613fea57613fe9612ef5565b5b613ff48254613b70565b613fff828285613e45565b6000601f83116001811461402e576000841561401c578287015490505b6140268582613eb6565b865550614099565b601f19841661403c87613d26565b965061404786613d26565b60005b8281101561406f5784890154825560018201915060018501945060208101905061404a565b8683101561408c5784890154614088601f891682613e98565b8355505b6001600288020188555050505b5050505050505b565b600060408201905081810360008301526140bc818561342b565b905081810360208301526140d0818461342b565b90509392505050565b7f596f7520646f206e6f74206f776e2074686973206272616e6400000000000000600082015250565b600061410f6019836133f0565b915061411a826140d9565b602082019050919050565b6000602082019050818103600083015261413e81614102565b9050919050565b7f4272616e64206973206e6f742077686974656c69737465640000000000000000600082015250565b600061417b6018836133f0565b915061418682614145565b602082019050919050565b600060208201905081810360008301526141aa8161416e565b9050919050565b60006141bd8286613af9565b91506141c98285613af9565b91506141d58284613c5f565b602082019150819050949350505050565b60006141f28287613af9565b91506141fe8286613c3e565b60148201915061420e8285613c5f565b60208201915061421e8284613c5f565b60208201915081905095945050505050565b6000608082019050818103600083015261424a818761342b565b905061425960208301866130a2565b818103604083015261426b818561342b565b905061427a60608301846130a2565b95945050505050565b7f50726f64756374204e6f7420666f756e64000000000000000000000000000000600082015250565b60006142b96011836133f0565b91506142c482614283565b602082019050919050565b600060208201905081810360008301526142e8816142ac565b9050919050565b7f4e487b7100000000000000000000000000000000000000000000000000000000600052603260045260246000fd5b7f4f6e6c792061646d696e2063616e20706572666f726d2074686973206163746960008201527f6f6e000000000000000000000000000000000000000000000000000000000000602082015250565b600061437a6022836133f0565b91506143858261431e565b604082019050919050565b600060208201905081810360008301526143a98161436d565b9050919050565b7f46696c65206e6f7420666f756e64000000000000000000000000000000000000600082015250565b60006143e6600e836133f0565b91506143f1826143b0565b602082019050919050565b60006020820190508181036000830152614415816143d9565b9050919050565b7f4272616e6420646f6573206e6f74206578697374000000000000000000000000600082015250565b60006144526014836133f0565b915061445d8261441c565b602082019050919050565b6000602082019050818103600083015261448181614445565b9050919050565b7f546869732070726f6475637420686173206265656e2064656c69737465642100600082015250565b60006144be601f836133f0565b91506144c982614488565b602082019050919050565b600060208201905081810360008301526144ed816144b1565b9050919050565b7f4f6e6c79207468652063757272656e74206f776e65722063616e20617070726f60008201527f766520746865207472616e736665720000000000000000000000000000000000602082015250565b6000614550602f836133f0565b915061455b826144f4565b604082019050919050565b6000602082019050818103600083015261457f81614543565b9050919050565b7f4e6f2070656e64696e67206f776e657273686970207265717565737400000000600082015250565b60006145bc601c836133f0565b91506145c782614586565b602082019050919050565b600060208201905081810360008301526145eb816145af565b9050919050565b60006145fd82613183565b9150600082036146105761460f613caf565b5b600182039050919050565b7f55736572206973206e6f74207265676973746572656400000000000000000000600082015250565b60006146516016836133f0565b915061465c8261461b565b602082019050919050565b6000602082019050818103600083015261468081614644565b9050919050565b7f43616e6e6f742072657175657374206f776e6572736869702066726f6d20796f60008201527f757273656c660000000000000000000000000000000000000000000000000000602082015250565b60006146e36026836133f0565b91506146ee82614687565b604082019050919050565b60006020820190508181036000830152614712816146d6565b9050919050565b7f5573657220616c72656164792072656769737465726564000000000000000000600082015250565b600061474f6017836133f0565b915061475a82614719565b602082019050919050565b6000602082019050818103600083015261477e81614742565b9050919050565b7f456d61696c20616c726561647920696e20757365000000000000000000000000600082015250565b60006147bb6014836133f0565b91506147c682614785565b602082019050919050565b600060208201905081810360008301526147ea816147ae565b9050919050565b6147fa81613266565b82525050565b600060808201905061481560008301876147f1565b8181036020830152614827818661342b565b9050818103604083015261483b818561342b565b9050818103606083015261484f818461342b565b90509594505050505056fea2646970667358221220e56458ba9afd5151d422692072dc8877e9f3bd10edc594c602761bfda340e33264736f6c63430008180033",
  "linkReferences": {},
  "deployedLinkReferences": {}
}