{
  "_format": "hh-sol-artifact-1",
  "contractName": "AmazonSupplyChain",
  "sourceName": "contracts/AmazonSupplyChain.sol",
  "abi": [
    {
      "inputs": [],
      "stateMutability": "nonpayable",
      "type": "constructor"
    },
    {
      "inputs": [
        {
          "internalType": "string",
          "name": "errorMessage",
          "type": "string"
        }
      ],
      "name": "productNotFound",
      "type": "error"
    },
    {
      "anonymous": false,
      "inputs": [
        {
          "indexed": true,
          "internalType": "bytes32",
          "name": "brandId",
          "type": "bytes32"
        },
        {
          "indexed": false,
          "internalType": "string",
          "name": "name",
          "type": "string"
        },
        {
          "indexed": true,
          "internalType": "address",
          "name": "manufacturer",
          "type": "address"
        },
        {
          "indexed": false,
          "internalType": "string",
          "name": "logoIpfsHash",
          "type": "string"
        }
      ],
      "name": "BrandRegistered",
      "type": "event"
    },
    {
      "anonymous": false,
      "inputs": [
        {
          "indexed": true,
          "internalType": "bytes32",
          "name": "brandId",
          "type": "bytes32"
        },
        {
          "indexed": true,
          "internalType": "address",
          "name": "manufacturer",
          "type": "address"
        }
      ],
      "name": "BrandRemovedFromWhitelist",
      "type": "event"
    },
    {
      "anonymous": false,
      "inputs": [
        {
          "indexed": true,
          "internalType": "bytes32",
          "name": "brandId",
          "type": "bytes32"
        },
        {
          "indexed": true,
          "internalType": "address",
          "name": "manufacturer",
          "type": "address"
        }
      ],
      "name": "BrandWhitelisted",
      "type": "event"
    },
    {
      "anonymous": false,
      "inputs": [
        {
          "indexed": true,
          "internalType": "bytes32",
          "name": "productId",
          "type": "bytes32"
        },
        {
          "indexed": true,
          "internalType": "address",
          "name": "from",
          "type": "address"
        },
        {
          "indexed": true,
          "internalType": "address",
          "name": "to",
          "type": "address"
        },
        {
          "indexed": false,
          "internalType": "bytes32",
          "name": "uniqueHash",
          "type": "bytes32"
        }
      ],
      "name": "OwnershipRequested",
      "type": "event"
    },
    {
      "anonymous": false,
      "inputs": [
        {
          "indexed": true,
          "internalType": "bytes32",
          "name": "productId",
          "type": "bytes32"
        },
        {
          "indexed": true,
          "internalType": "address",
          "name": "from",
          "type": "address"
        },
        {
          "indexed": true,
          "internalType": "address",
          "name": "to",
          "type": "address"
        },
        {
          "indexed": false,
          "internalType": "bytes32",
          "name": "uniqueHash",
          "type": "bytes32"
        }
      ],
      "name": "OwnershipTransferred",
      "type": "event"
    },
    {
      "anonymous": false,
      "inputs": [
        {
          "indexed": true,
          "internalType": "bytes32",
          "name": "productId",
          "type": "bytes32"
        },
        {
          "indexed": false,
          "internalType": "string",
          "name": "name",
          "type": "string"
        },
        {
          "indexed": false,
          "internalType": "bytes32",
          "name": "brandId",
          "type": "bytes32"
        },
        {
          "indexed": true,
          "internalType": "address",
          "name": "manufacturer",
          "type": "address"
        },
        {
          "indexed": false,
          "internalType": "string",
          "name": "details",
          "type": "string"
        },
        {
          "indexed": false,
          "internalType": "bytes32",
          "name": "uniqueHash",
          "type": "bytes32"
        }
      ],
      "name": "ProductRegistered",
      "type": "event"
    },
    {
      "anonymous": false,
      "inputs": [
        {
          "indexed": true,
          "internalType": "bytes32",
          "name": "productId",
          "type": "bytes32"
        },
        {
          "indexed": true,
          "internalType": "address",
          "name": "verifier",
          "type": "address"
        }
      ],
      "name": "ProductVerified",
      "type": "event"
    },
    {
      "anonymous": false,
      "inputs": [
        {
          "indexed": true,
          "internalType": "address",
          "name": "user",
          "type": "address"
        },
        {
          "indexed": false,
          "internalType": "enum AmazonSupplyChain.Role",
          "name": "role",
          "type": "uint8"
        },
        {
          "indexed": false,
          "internalType": "string",
          "name": "name",
          "type": "string"
        },
        {
          "indexed": false,
          "internalType": "string",
          "name": "email",
          "type": "string"
        },
        {
          "indexed": false,
          "internalType": "string",
          "name": "phoneNumber",
          "type": "string"
        }
      ],
      "name": "UserRegistered",
      "type": "event"
    },
    {
      "inputs": [],
      "name": "admin",
      "outputs": [
        {
          "internalType": "address",
          "name": "",
          "type": "address"
        }
      ],
      "stateMutability": "view",
      "type": "function"
    },
    {
      "inputs": [
        {
          "internalType": "bytes32",
          "name": "_uniqueHash",
          "type": "bytes32"
        }
      ],
      "name": "approveOwnership",
      "outputs": [],
      "stateMutability": "nonpayable",
      "type": "function"
    },
    {
      "inputs": [],
      "name": "brandCounter",
      "outputs": [
        {
          "internalType": "uint256",
          "name": "",
          "type": "uint256"
        }
      ],
      "stateMutability": "view",
      "type": "function"
    },
    {
      "inputs": [
        {
          "internalType": "string",
          "name": "_brandName",
          "type": "string"
        }
      ],
      "name": "getIPFSHash",
      "outputs": [
        {
          "internalType": "string",
          "name": "",
          "type": "string"
        }
      ],
      "stateMutability": "view",
      "type": "function"
    },
    {
      "inputs": [
        {
          "internalType": "bytes32",
          "name": "_uniqueHash",
          "type": "bytes32"
        }
      ],
      "name": "getProductDetails",
      "outputs": [
        {
          "components": [
            {
              "internalType": "bytes32",
              "name": "id",
              "type": "bytes32"
            },
            {
              "internalType": "string",
              "name": "name",
              "type": "string"
            },
            {
              "internalType": "bytes32",
              "name": "brandId",
              "type": "bytes32"
            },
            {
              "internalType": "address",
              "name": "manufacturer",
              "type": "address"
            },
            {
              "internalType": "address",
              "name": "currentOwner",
              "type": "address"
            },
            {
              "internalType": "string",
              "name": "details",
              "type": "string"
            },
            {
              "internalType": "bytes32",
              "name": "uniqueHash",
              "type": "bytes32"
            }
          ],
          "internalType": "struct AmazonSupplyChain.Product",
          "name": "",
          "type": "tuple"
        }
      ],
      "stateMutability": "view",
      "type": "function"
    },
    {
      "inputs": [
        {
          "internalType": "bytes32",
          "name": "_uniqueHash",
          "type": "bytes32"
        }
      ],
      "name": "getProductOwners",
      "outputs": [
        {
          "components": [
            {
              "internalType": "enum AmazonSupplyChain.Role",
              "name": "role",
              "type": "uint8"
            },
            {
              "internalType": "address",
              "name": "ownerAddress",
              "type": "address"
            }
          ],
          "internalType": "struct AmazonSupplyChain.OwnerInfo[]",
          "name": "",
          "type": "tuple[]"
        }
      ],
      "stateMutability": "view",
      "type": "function"
    },
    {
      "inputs": [
        {
          "internalType": "string",
          "name": "_brandName",
          "type": "string"
        }
      ],
      "name": "isBrandStored",
      "outputs": [
        {
          "internalType": "bool",
          "name": "",
          "type": "bool"
        }
      ],
      "stateMutability": "view",
      "type": "function"
    },
    {
      "inputs": [],
      "name": "productCounter",
      "outputs": [
        {
          "internalType": "uint256",
          "name": "",
          "type": "uint256"
        }
      ],
      "stateMutability": "view",
      "type": "function"
    },
    {
      "inputs": [
        {
          "internalType": "string",
          "name": "_name",
          "type": "string"
        },
        {
          "internalType": "string",
          "name": "_logoIpfsHash",
          "type": "string"
        }
      ],
      "name": "registerBrand",
      "outputs": [
        {
          "internalType": "bytes32",
          "name": "",
          "type": "bytes32"
        }
      ],
      "stateMutability": "nonpayable",
      "type": "function"
    },
    {
      "inputs": [
        {
          "internalType": "string",
          "name": "_name",
          "type": "string"
        },
        {
          "internalType": "string",
          "name": "_details",
          "type": "string"
        },
        {
          "internalType": "bytes32",
          "name": "_brandId",
          "type": "bytes32"
        }
      ],
      "name": "registerProduct",
      "outputs": [
        {
          "internalType": "bytes32",
          "name": "",
          "type": "bytes32"
        }
      ],
      "stateMutability": "nonpayable",
      "type": "function"
    },
    {
      "inputs": [
        {
          "internalType": "enum AmazonSupplyChain.Role",
          "name": "_role",
          "type": "uint8"
        },
        {
          "internalType": "string",
          "name": "_name",
          "type": "string"
        },
        {
          "internalType": "string",
          "name": "_email",
          "type": "string"
        },
        {
          "internalType": "string",
          "name": "_phoneNumber",
          "type": "string"
        }
      ],
      "name": "registerUser",
      "outputs": [],
      "stateMutability": "nonpayable",
      "type": "function"
    },
    {
      "inputs": [
        {
          "internalType": "bytes32",
          "name": "_brandId",
          "type": "bytes32"
        }
      ],
      "name": "removeWhitelistedBrand",
      "outputs": [],
      "stateMutability": "nonpayable",
      "type": "function"
    },
    {
      "inputs": [
        {
          "internalType": "bytes32",
          "name": "_uniqueHash",
          "type": "bytes32"
        }
      ],
      "name": "requestOwnership",
      "outputs": [],
      "stateMutability": "nonpayable",
      "type": "function"
    },
    {
      "inputs": [
        {
          "internalType": "bytes32",
          "name": "_uniqueHash",
          "type": "bytes32"
        }
      ],
      "name": "verifyProduct",
      "outputs": [
        {
          "internalType": "bool",
          "name": "",
          "type": "bool"
        }
      ],
      "stateMutability": "view",
      "type": "function"
    },
    {
      "inputs": [
        {
          "internalType": "bytes32",
          "name": "_brandId",
          "type": "bytes32"
        }
      ],
      "name": "whitelistBrand",
      "outputs": [],
      "stateMutability": "nonpayable",
      "type": "function"
    }
  ],
  "bytecode": "0x608060405234801561001057600080fd5b50336000806101000a81548173ffffffffffffffffffffffffffffffffffffffff021916908373ffffffffffffffffffffffffffffffffffffffff16021790555061385b806100606000396000f3fe608060405234801561001057600080fd5b50600436106100f55760003560e01c80637bcbf1b111610097578063df24e1bd11610066578063df24e1bd146102aa578063e0f24312146102c6578063eda45965146102e2578063f851a44014610312576100f5565b80637bcbf1b114610210578063b74d3fb51461022c578063bde12f471461025c578063c7568eff1461028c576100f5565b8063318451a8116100d3578063318451a8146101785780634a5f66c1146101a857806362db8381146101d8578063713cae10146101f4576100f5565b80630ea33289146100fa5780631185760c1461012a5780631f16653b1461015a575b600080fd5b610114600480360381019061010f91906124cd565b610330565b604051610121919061255e565b60405180910390f35b610144600480360381019061013f91906125a5565b610616565b604051610151919061255e565b60405180910390f35b610162610a89565b60405161016f9190612649565b60405180910390f35b610192600480360381019061018d9190612664565b610a8f565b60405161019f9190612827565b60405180910390f35b6101c260048036038101906101bd9190612849565b610ce6565b6040516101cf9190612911565b60405180910390f35b6101f260048036038101906101ed9190612664565b610e91565b005b61020e60048036038101906102099190612664565b6110d3565b005b61022a60048036038101906102259190612664565b6112b2565b005b61024660048036038101906102419190612664565b6116fa565b6040516102539190612a2f565b60405180910390f35b61027660048036038101906102719190612849565b611973565b6040516102839190612a6c565b60405180910390f35b6102946119a9565b6040516102a19190612649565b60405180910390f35b6102c460048036038101906102bf9190612664565b6119af565b005b6102e060048036038101906102db9190612aac565b611cb1565b005b6102fc60048036038101906102f79190612664565b611fb2565b6040516103099190612a6c565b60405180910390f35b61031a61223e565b6040516103279190612b76565b60405180910390f35b600060016003811115610346576103456126bd565b5b600360003373ffffffffffffffffffffffffffffffffffffffff1673ffffffffffffffffffffffffffffffffffffffff16815260200190815260200160002060000160009054906101000a900460ff1660038111156103a8576103a76126bd565b5b146103e8576040517f08c379a00000000000000000000000000000000000000000000000000000000081526004016103df90612c03565b60405180910390fd5b60006008846040516103fa9190612c5f565b9081526020016040518091039020805461041390612ca5565b905014610455576040517f08c379a000000000000000000000000000000000000000000000000000000000815260040161044c90612d22565b60405180910390fd5b600083334260405160200161046c93929190612dab565b6040516020818303038152906040528051906020012090506001600081548092919061049790612e13565b91905055506040518060a001604052808281526020018581526020013373ffffffffffffffffffffffffffffffffffffffff168152602001600015158152602001848152506004600083815260200190815260200160002060008201518160000155602082015181600101908161050e9190613007565b5060408201518160020160006101000a81548173ffffffffffffffffffffffffffffffffffffffff021916908373ffffffffffffffffffffffffffffffffffffffff16021790555060608201518160020160146101000a81548160ff021916908315150217905550608082015181600301908161058b9190613007565b50905050826008856040516105a09190612c5f565b908152602001604051809103902090816105ba9190613007565b503373ffffffffffffffffffffffffffffffffffffffff16817f197183793a3833cac582caf722bf57551339c54b88834a34a20ae31efec3f73786866040516106049291906130d9565b60405180910390a38091505092915050565b60006001600381111561062c5761062b6126bd565b5b600360003373ffffffffffffffffffffffffffffffffffffffff1673ffffffffffffffffffffffffffffffffffffffff16815260200190815260200160002060000160009054906101000a900460ff16600381111561068e5761068d6126bd565b5b146106ce576040517f08c379a00000000000000000000000000000000000000000000000000000000081526004016106c590612c03565b60405180910390fd5b3373ffffffffffffffffffffffffffffffffffffffff166004600084815260200190815260200160002060020160009054906101000a900473ffffffffffffffffffffffffffffffffffffffff1673ffffffffffffffffffffffffffffffffffffffff1614610772576040517f08c379a00000000000000000000000000000000000000000000000000000000081526004016107699061315c565b60405180910390fd5b6004600083815260200190815260200160002060020160149054906101000a900460ff166107d5576040517f08c379a00000000000000000000000000000000000000000000000000000000081526004016107cc906131c8565b60405180910390fd5b60008484426040516020016107ec939291906131e8565b604051602081830303815290604052805190602001209050600085334260025460405160200161081f949392919061321d565b6040516020818303038152906040528051906020012090506002600081548092919061084a90612e13565b91905055506040518060e001604052808281526020018781526020018581526020013373ffffffffffffffffffffffffffffffffffffffff1681526020013373ffffffffffffffffffffffffffffffffffffffff16815260200186815260200183815250600560008381526020019081526020016000206000820151816000015560208201518160010190816108e09190613007565b506040820151816002015560608201518160030160006101000a81548173ffffffffffffffffffffffffffffffffffffffff021916908373ffffffffffffffffffffffffffffffffffffffff16021790555060808201518160040160006101000a81548173ffffffffffffffffffffffffffffffffffffffff021916908373ffffffffffffffffffffffffffffffffffffffff16021790555060a082015181600501908161098e9190613007565b5060c0820151816006015590505080600660008481526020019081526020016000208190555060076000828152602001908152602001600020339080600181540180825580915050600190039060005260206000200160009091909190916101000a81548173ffffffffffffffffffffffffffffffffffffffff021916908373ffffffffffffffffffffffffffffffffffffffff1602179055503373ffffffffffffffffffffffffffffffffffffffff16817f302f3a56907582208dff7a9cf9ab1d0eb59792f52abddd0b83be331f6b06161288878987604051610a759493929190613267565b60405180910390a381925050509392505050565b60025481565b60606000600660008481526020019081526020016000205490506000801b8103610aee576040517f94b049cd000000000000000000000000000000000000000000000000000000008152600401610ae590613306565b60405180910390fd5b600060076000838152602001908152602001600020805480602002602001604051908101604052809291908181526020018280548015610b8357602002820191906000526020600020905b8160009054906101000a900473ffffffffffffffffffffffffffffffffffffffff1673ffffffffffffffffffffffffffffffffffffffff1681526020019060010190808311610b39575b505050505090506000815167ffffffffffffffff811115610ba757610ba66123a2565b5b604051908082528060200260200182016040528015610be057816020015b610bcd612262565b815260200190600190039081610bc55790505b50905060005b8251811015610cda57604051806040016040528060036000868581518110610c1157610c10613326565b5b602002602001015173ffffffffffffffffffffffffffffffffffffffff1673ffffffffffffffffffffffffffffffffffffffff16815260200190815260200160002060000160009054906101000a900460ff166003811115610c7657610c756126bd565b5b8152602001848381518110610c8e57610c8d613326565b5b602002602001015173ffffffffffffffffffffffffffffffffffffffff16815250828281518110610cc257610cc1613326565b5b60200260200101819052508080600101915050610be6565b50809350505050919050565b606060008054906101000a900473ffffffffffffffffffffffffffffffffffffffff1673ffffffffffffffffffffffffffffffffffffffff163373ffffffffffffffffffffffffffffffffffffffff1614610d76576040517f08c379a0000000000000000000000000000000000000000000000000000000008152600401610d6d906133c7565b60405180910390fd5b6000600883604051610d889190612c5f565b90815260200160405180910390208054610da190612ca5565b905011610de3576040517f08c379a0000000000000000000000000000000000000000000000000000000008152600401610dda90613433565b60405180910390fd5b600882604051610df39190612c5f565b90815260200160405180910390208054610e0c90612ca5565b80601f0160208091040260200160405190810160405280929190818152602001828054610e3890612ca5565b8015610e855780601f10610e5a57610100808354040283529160200191610e85565b820191906000526020600020905b815481529060010190602001808311610e6857829003601f168201915b50505050509050919050565b60008054906101000a900473ffffffffffffffffffffffffffffffffffffffff1673ffffffffffffffffffffffffffffffffffffffff163373ffffffffffffffffffffffffffffffffffffffff1614610f1f576040517f08c379a0000000000000000000000000000000000000000000000000000000008152600401610f16906133c7565b60405180910390fd5b600073ffffffffffffffffffffffffffffffffffffffff166004600083815260200190815260200160002060020160009054906101000a900473ffffffffffffffffffffffffffffffffffffffff1673ffffffffffffffffffffffffffffffffffffffff1603610fc4576040517f08c379a0000000000000000000000000000000000000000000000000000000008152600401610fbb9061349f565b60405180910390fd5b6004600082815260200190815260200160002060020160149054906101000a900460ff16611027576040517f08c379a000000000000000000000000000000000000000000000000000000000815260040161101e906131c8565b60405180910390fd5b60006004600083815260200190815260200160002060020160146101000a81548160ff0219169083151502179055506004600082815260200190815260200160002060020160009054906101000a900473ffffffffffffffffffffffffffffffffffffffff1673ffffffffffffffffffffffffffffffffffffffff16817ff682ed9be74fe5f483d7e3b151689dc6749856a3d6752cd44304b73bf871e86160405160405180910390a350565b60008054906101000a900473ffffffffffffffffffffffffffffffffffffffff1673ffffffffffffffffffffffffffffffffffffffff163373ffffffffffffffffffffffffffffffffffffffff1614611161576040517f08c379a0000000000000000000000000000000000000000000000000000000008152600401611158906133c7565b60405180910390fd5b600073ffffffffffffffffffffffffffffffffffffffff166004600083815260200190815260200160002060020160009054906101000a900473ffffffffffffffffffffffffffffffffffffffff1673ffffffffffffffffffffffffffffffffffffffff1603611206576040517f08c379a00000000000000000000000000000000000000000000000000000000081526004016111fd9061349f565b60405180910390fd5b60016004600083815260200190815260200160002060020160146101000a81548160ff0219169083151502179055506004600082815260200190815260200160002060020160009054906101000a900473ffffffffffffffffffffffffffffffffffffffff1673ffffffffffffffffffffffffffffffffffffffff16817f31bccd6eebc9f63638bd857e49ae8f36f261f75d8339a5c2d401cdbf2fcbe2f560405160405180910390a350565b6000600660008381526020019081526020016000205490506000801b810361130f576040517f94b049cd00000000000000000000000000000000000000000000000000000000815260040161130690613306565b60405180910390fd5b3373ffffffffffffffffffffffffffffffffffffffff166005600083815260200190815260200160002060040160009054906101000a900473ffffffffffffffffffffffffffffffffffffffff1673ffffffffffffffffffffffffffffffffffffffff16146113b3576040517f08c379a00000000000000000000000000000000000000000000000000000000081526004016113aa90613531565b60405180910390fd5b600a600083815260200190815260200160002060000160149054906101000a900460ff16611416576040517f08c379a000000000000000000000000000000000000000000000000000000000815260040161140d9061359d565b60405180910390fd5b6000600a600084815260200190815260200160002060000160009054906101000a900473ffffffffffffffffffffffffffffffffffffffff169050806005600084815260200190815260200160002060040160006101000a81548173ffffffffffffffffffffffffffffffffffffffff021916908373ffffffffffffffffffffffffffffffffffffffff16021790555060076000838152602001908152602001600020819080600181540180825580915050600190039060005260206000200160009091909190916101000a81548173ffffffffffffffffffffffffffffffffffffffff021916908373ffffffffffffffffffffffffffffffffffffffff1602179055506000600a600085815260200190815260200160002060000160146101000a81548160ff02191690831515021790555060038081111561155c5761155b6126bd565b5b600360008373ffffffffffffffffffffffffffffffffffffffff1673ffffffffffffffffffffffffffffffffffffffff16815260200190815260200160002060000160009054906101000a900460ff1660038111156115be576115bd6126bd565b5b0361168f57600560008381526020019081526020016000206000808201600090556001820160006115ef91906122a4565b60028201600090556003820160006101000a81549073ffffffffffffffffffffffffffffffffffffffff02191690556004820160006101000a81549073ffffffffffffffffffffffffffffffffffffffff021916905560058201600061165591906122a4565b60068201600090555050600660008481526020019081526020016000206000905560026000815480929190611689906135bd565b91905055505b8073ffffffffffffffffffffffffffffffffffffffff163373ffffffffffffffffffffffffffffffffffffffff16837f62fb20063525870511d590a85718d4f5824652d140cdd8e33aba11b066781599866040516116ed919061255e565b60405180910390a4505050565b6117026122e4565b6000600660008481526020019081526020016000205490506000801b810361175f576040517f94b049cd00000000000000000000000000000000000000000000000000000000815260040161175690613306565b60405180910390fd5b600560008281526020019081526020016000206040518060e00160405290816000820154815260200160018201805461179790612ca5565b80601f01602080910402602001604051908101604052809291908181526020018280546117c390612ca5565b80156118105780601f106117e557610100808354040283529160200191611810565b820191906000526020600020905b8154815290600101906020018083116117f357829003601f168201915b50505050508152602001600282015481526020016003820160009054906101000a900473ffffffffffffffffffffffffffffffffffffffff1673ffffffffffffffffffffffffffffffffffffffff1673ffffffffffffffffffffffffffffffffffffffff1681526020016004820160009054906101000a900473ffffffffffffffffffffffffffffffffffffffff1673ffffffffffffffffffffffffffffffffffffffff1673ffffffffffffffffffffffffffffffffffffffff1681526020016005820180546118df90612ca5565b80601f016020809104026020016040519081016040528092919081815260200182805461190b90612ca5565b80156119585780601f1061192d57610100808354040283529160200191611958565b820191906000526020600020905b81548152906001019060200180831161193b57829003601f168201915b50505050508152602001600682015481525050915050919050565b6000806008836040516119869190612c5f565b9081526020016040518091039020805461199f90612ca5565b9050119050919050565b60015481565b600060038111156119c3576119c26126bd565b5b600360003373ffffffffffffffffffffffffffffffffffffffff1673ffffffffffffffffffffffffffffffffffffffff16815260200190815260200160002060000160009054906101000a900460ff166003811115611a2557611a246126bd565b5b03611a65576040517f08c379a0000000000000000000000000000000000000000000000000000000008152600401611a5c90613632565b60405180910390fd5b6000600660008381526020019081526020016000205490506000801b8103611ac2576040517f94b049cd000000000000000000000000000000000000000000000000000000008152600401611ab990613306565b60405180910390fd5b3373ffffffffffffffffffffffffffffffffffffffff166005600083815260200190815260200160002060040160009054906101000a900473ffffffffffffffffffffffffffffffffffffffff1673ffffffffffffffffffffffffffffffffffffffff1603611b66576040517f08c379a0000000000000000000000000000000000000000000000000000000008152600401611b5d906136c4565b60405180910390fd5b60405180604001604052803373ffffffffffffffffffffffffffffffffffffffff16815260200160011515815250600a600084815260200190815260200160002060008201518160000160006101000a81548173ffffffffffffffffffffffffffffffffffffffff021916908373ffffffffffffffffffffffffffffffffffffffff16021790555060208201518160000160146101000a81548160ff0219169083151502179055509050506005600082815260200190815260200160002060040160009054906101000a900473ffffffffffffffffffffffffffffffffffffffff1673ffffffffffffffffffffffffffffffffffffffff163373ffffffffffffffffffffffffffffffffffffffff16827f9dd89f7800fe863325d636a8bdb515f54a52013476f7d39647f61a250c80688d85604051611ca5919061255e565b60405180910390a45050565b60006003811115611cc557611cc46126bd565b5b600360003373ffffffffffffffffffffffffffffffffffffffff1673ffffffffffffffffffffffffffffffffffffffff16815260200190815260200160002060000160009054906101000a900460ff166003811115611d2757611d266126bd565b5b14611d67576040517f08c379a0000000000000000000000000000000000000000000000000000000008152600401611d5e90613730565b60405180910390fd5b600073ffffffffffffffffffffffffffffffffffffffff16600983604051611d8f9190612c5f565b908152602001604051809103902060009054906101000a900473ffffffffffffffffffffffffffffffffffffffff1673ffffffffffffffffffffffffffffffffffffffff1614611e14576040517f08c379a0000000000000000000000000000000000000000000000000000000008152600401611e0b9061379c565b60405180910390fd5b6040518060800160405280856003811115611e3257611e316126bd565b5b815260200184815260200183815260200182815250600360003373ffffffffffffffffffffffffffffffffffffffff1673ffffffffffffffffffffffffffffffffffffffff16815260200190815260200160002060008201518160000160006101000a81548160ff02191690836003811115611eb157611eb06126bd565b5b02179055506020820151816001019081611ecb9190613007565b506040820151816002019081611ee19190613007565b506060820151816003019081611ef79190613007565b5090505033600983604051611f0c9190612c5f565b908152602001604051809103902060006101000a81548173ffffffffffffffffffffffffffffffffffffffff021916908373ffffffffffffffffffffffffffffffffffffffff1602179055503373ffffffffffffffffffffffffffffffffffffffff167fef01cf7b3c5d8be18fef6a3a019d98760533af73932fa5b4d3a4b2c3b5651aa185858585604051611fa494939291906137cb565b60405180910390a250505050565b600080600660008481526020019081526020016000205490506000801b8103612010576040517f94b049cd00000000000000000000000000000000000000000000000000000000815260040161200790613306565b60405180910390fd5b6000600760008381526020019081526020016000208054806020026020016040519081016040528092919081815260200182805480156120a557602002820191906000526020600020905b8160009054906101000a900473ffffffffffffffffffffffffffffffffffffffff1673ffffffffffffffffffffffffffffffffffffffff168152602001906001019080831161205b575b505050505090506000805b825181101561223257600160038111156120cd576120cc6126bd565b5b600360008584815181106120e4576120e3613326565b5b602002602001015173ffffffffffffffffffffffffffffffffffffffff1673ffffffffffffffffffffffffffffffffffffffff16815260200190815260200160002060000160009054906101000a900460ff166003811115612149576121486126bd565b5b036122255760006005600086815260200190815260200160002060020154905083828151811061217c5761217b613326565b5b602002602001015173ffffffffffffffffffffffffffffffffffffffff166004600083815260200190815260200160002060020160009054906101000a900473ffffffffffffffffffffffffffffffffffffffff1673ffffffffffffffffffffffffffffffffffffffff1614801561221457506004600082815260200190815260200160002060020160149054906101000a900460ff165b15612223576001925050612232565b505b80806001019150506120b0565b50809350505050919050565b60008054906101000a900473ffffffffffffffffffffffffffffffffffffffff1681565b604051806040016040528060006003811115612281576122806126bd565b5b8152602001600073ffffffffffffffffffffffffffffffffffffffff1681525090565b5080546122b090612ca5565b6000825580601f106122c257506122e1565b601f0160209004906000526020600020908101906122e09190612356565b5b50565b6040518060e00160405280600080191681526020016060815260200160008019168152602001600073ffffffffffffffffffffffffffffffffffffffff168152602001600073ffffffffffffffffffffffffffffffffffffffff16815260200160608152602001600080191681525090565b5b8082111561236f576000816000905550600101612357565b5090565b6000604051905090565b600080fd5b600080fd5b600080fd5b600080fd5b6000601f19601f8301169050919050565b7f4e487b7100000000000000000000000000000000000000000000000000000000600052604160045260246000fd5b6123da82612391565b810181811067ffffffffffffffff821117156123f9576123f86123a2565b5b80604052505050565b600061240c612373565b905061241882826123d1565b919050565b600067ffffffffffffffff821115612438576124376123a2565b5b61244182612391565b9050602081019050919050565b82818337600083830152505050565b600061247061246b8461241d565b612402565b90508281526020810184848401111561248c5761248b61238c565b5b61249784828561244e565b509392505050565b600082601f8301126124b4576124b3612387565b5b81356124c484826020860161245d565b91505092915050565b600080604083850312156124e4576124e361237d565b5b600083013567ffffffffffffffff81111561250257612501612382565b5b61250e8582860161249f565b925050602083013567ffffffffffffffff81111561252f5761252e612382565b5b61253b8582860161249f565b9150509250929050565b6000819050919050565b61255881612545565b82525050565b6000602082019050612573600083018461254f565b92915050565b61258281612545565b811461258d57600080fd5b50565b60008135905061259f81612579565b92915050565b6000806000606084860312156125be576125bd61237d565b5b600084013567ffffffffffffffff8111156125dc576125db612382565b5b6125e88682870161249f565b935050602084013567ffffffffffffffff81111561260957612608612382565b5b6126158682870161249f565b925050604061262686828701612590565b9150509250925092565b6000819050919050565b61264381612630565b82525050565b600060208201905061265e600083018461263a565b92915050565b60006020828403121561267a5761267961237d565b5b600061268884828501612590565b91505092915050565b600081519050919050565b600082825260208201905092915050565b6000819050602082019050919050565b7f4e487b7100000000000000000000000000000000000000000000000000000000600052602160045260246000fd5b600481106126fd576126fc6126bd565b5b50565b600081905061270e826126ec565b919050565b600061271e82612700565b9050919050565b61272e81612713565b82525050565b600073ffffffffffffffffffffffffffffffffffffffff82169050919050565b600061275f82612734565b9050919050565b61276f81612754565b82525050565b60408201600082015161278b6000850182612725565b50602082015161279e6020850182612766565b50505050565b60006127b08383612775565b60408301905092915050565b6000602082019050919050565b60006127d482612691565b6127de818561269c565b93506127e9836126ad565b8060005b8381101561281a57815161280188826127a4565b975061280c836127bc565b9250506001810190506127ed565b5085935050505092915050565b6000602082019050818103600083015261284181846127c9565b905092915050565b60006020828403121561285f5761285e61237d565b5b600082013567ffffffffffffffff81111561287d5761287c612382565b5b6128898482850161249f565b91505092915050565b600081519050919050565b600082825260208201905092915050565b60005b838110156128cc5780820151818401526020810190506128b1565b60008484015250505050565b60006128e382612892565b6128ed818561289d565b93506128fd8185602086016128ae565b61290681612391565b840191505092915050565b6000602082019050818103600083015261292b81846128d8565b905092915050565b61293c81612545565b82525050565b600082825260208201905092915050565b600061295e82612892565b6129688185612942565b93506129788185602086016128ae565b61298181612391565b840191505092915050565b600060e0830160008301516129a46000860182612933565b50602083015184820360208601526129bc8282612953565b91505060408301516129d16040860182612933565b5060608301516129e46060860182612766565b5060808301516129f76080860182612766565b5060a083015184820360a0860152612a0f8282612953565b91505060c0830151612a2460c0860182612933565b508091505092915050565b60006020820190508181036000830152612a49818461298c565b905092915050565b60008115159050919050565b612a6681612a51565b82525050565b6000602082019050612a816000830184612a5d565b92915050565b60048110612a9457600080fd5b50565b600081359050612aa681612a87565b92915050565b60008060008060808587031215612ac657612ac561237d565b5b6000612ad487828801612a97565b945050602085013567ffffffffffffffff811115612af557612af4612382565b5b612b018782880161249f565b935050604085013567ffffffffffffffff811115612b2257612b21612382565b5b612b2e8782880161249f565b925050606085013567ffffffffffffffff811115612b4f57612b4e612382565b5b612b5b8782880161249f565b91505092959194509250565b612b7081612754565b82525050565b6000602082019050612b8b6000830184612b67565b92915050565b7f4f6e6c79206d616e756661637475726572732063616e20706572666f726d207460008201527f68697320616374696f6e00000000000000000000000000000000000000000000602082015250565b6000612bed602a8361289d565b9150612bf882612b91565b604082019050919050565b60006020820190508181036000830152612c1c81612be0565b9050919050565b600081905092915050565b6000612c3982612892565b612c438185612c23565b9350612c538185602086016128ae565b80840191505092915050565b6000612c6b8284612c2e565b915081905092915050565b7f4e487b7100000000000000000000000000000000000000000000000000000000600052602260045260246000fd5b60006002820490506001821680612cbd57607f821691505b602082108103612cd057612ccf612c76565b5b50919050565b7f4272616e6420616c726561647920726567697374657265642100000000000000600082015250565b6000612d0c60198361289d565b9150612d1782612cd6565b602082019050919050565b60006020820190508181036000830152612d3b81612cff565b9050919050565b60008160601b9050919050565b6000612d5a82612d42565b9050919050565b6000612d6c82612d4f565b9050919050565b612d84612d7f82612754565b612d61565b82525050565b6000819050919050565b612da5612da082612630565b612d8a565b82525050565b6000612db78286612c2e565b9150612dc38285612d73565b601482019150612dd38284612d94565b602082019150819050949350505050565b7f4e487b7100000000000000000000000000000000000000000000000000000000600052601160045260246000fd5b6000612e1e82612630565b91507fffffffffffffffffffffffffffffffffffffffffffffffffffffffffffffffff8203612e5057612e4f612de4565b5b600182019050919050565b60008190508160005260206000209050919050565b60006020601f8301049050919050565b600082821b905092915050565b600060088302612ebd7fffffffffffffffffffffffffffffffffffffffffffffffffffffffffffffffff82612e80565b612ec78683612e80565b95508019841693508086168417925050509392505050565b6000819050919050565b6000612f04612eff612efa84612630565b612edf565b612630565b9050919050565b6000819050919050565b612f1e83612ee9565b612f32612f2a82612f0b565b848454612e8d565b825550505050565b600090565b612f47612f3a565b612f52818484612f15565b505050565b5b81811015612f7657612f6b600082612f3f565b600181019050612f58565b5050565b601f821115612fbb57612f8c81612e5b565b612f9584612e70565b81016020851015612fa4578190505b612fb8612fb085612e70565b830182612f57565b50505b505050565b600082821c905092915050565b6000612fde60001984600802612fc0565b1980831691505092915050565b6000612ff78383612fcd565b9150826002028217905092915050565b61301082612892565b67ffffffffffffffff811115613029576130286123a2565b5b6130338254612ca5565b61303e828285612f7a565b600060209050601f831160018114613071576000841561305f578287015190505b6130698582612feb565b8655506130d1565b601f19841661307f86612e5b565b60005b828110156130a757848901518255600182019150602085019450602081019050613082565b868310156130c457848901516130c0601f891682612fcd565b8355505b6001600288020188555050505b505050505050565b600060408201905081810360008301526130f381856128d8565b9050818103602083015261310781846128d8565b90509392505050565b7f596f7520646f206e6f74206f776e2074686973206272616e6400000000000000600082015250565b600061314660198361289d565b915061315182613110565b602082019050919050565b6000602082019050818103600083015261317581613139565b9050919050565b7f4272616e64206973206e6f742077686974656c69737465640000000000000000600082015250565b60006131b260188361289d565b91506131bd8261317c565b602082019050919050565b600060208201905081810360008301526131e1816131a5565b9050919050565b60006131f48286612c2e565b91506132008285612c2e565b915061320c8284612d94565b602082019150819050949350505050565b60006132298287612c2e565b91506132358286612d73565b6014820191506132458285612d94565b6020820191506132558284612d94565b60208201915081905095945050505050565b6000608082019050818103600083015261328181876128d8565b9050613290602083018661254f565b81810360408301526132a281856128d8565b90506132b1606083018461254f565b95945050505050565b7f50726f64756374204e6f7420666f756e64000000000000000000000000000000600082015250565b60006132f060118361289d565b91506132fb826132ba565b602082019050919050565b6000602082019050818103600083015261331f816132e3565b9050919050565b7f4e487b7100000000000000000000000000000000000000000000000000000000600052603260045260246000fd5b7f4f6e6c792061646d696e2063616e20706572666f726d2074686973206163746960008201527f6f6e000000000000000000000000000000000000000000000000000000000000602082015250565b60006133b160228361289d565b91506133bc82613355565b604082019050919050565b600060208201905081810360008301526133e0816133a4565b9050919050565b7f46696c65206e6f7420666f756e64000000000000000000000000000000000000600082015250565b600061341d600e8361289d565b9150613428826133e7565b602082019050919050565b6000602082019050818103600083015261344c81613410565b9050919050565b7f4272616e6420646f6573206e6f74206578697374000000000000000000000000600082015250565b600061348960148361289d565b915061349482613453565b602082019050919050565b600060208201905081810360008301526134b88161347c565b9050919050565b7f4f6e6c79207468652063757272656e74206f776e65722063616e20617070726f60008201527f766520746865207472616e736665720000000000000000000000000000000000602082015250565b600061351b602f8361289d565b9150613526826134bf565b604082019050919050565b6000602082019050818103600083015261354a8161350e565b9050919050565b7f4e6f2070656e64696e67206f776e657273686970207265717565737400000000600082015250565b6000613587601c8361289d565b915061359282613551565b602082019050919050565b600060208201905081810360008301526135b68161357a565b9050919050565b60006135c882612630565b9150600082036135db576135da612de4565b5b600182039050919050565b7f55736572206973206e6f74207265676973746572656400000000000000000000600082015250565b600061361c60168361289d565b9150613627826135e6565b602082019050919050565b6000602082019050818103600083015261364b8161360f565b9050919050565b7f43616e6e6f742072657175657374206f776e6572736869702066726f6d20796f60008201527f757273656c660000000000000000000000000000000000000000000000000000602082015250565b60006136ae60268361289d565b91506136b982613652565b604082019050919050565b600060208201905081810360008301526136dd816136a1565b9050919050565b7f5573657220616c72656164792072656769737465726564000000000000000000600082015250565b600061371a60178361289d565b9150613725826136e4565b602082019050919050565b600060208201905081810360008301526137498161370d565b9050919050565b7f456d61696c20616c726561647920696e20757365000000000000000000000000600082015250565b600061378660148361289d565b915061379182613750565b602082019050919050565b600060208201905081810360008301526137b581613779565b9050919050565b6137c581612713565b82525050565b60006080820190506137e060008301876137bc565b81810360208301526137f281866128d8565b9050818103604083015261380681856128d8565b9050818103606083015261381a81846128d8565b90509594505050505056fea2646970667358221220ade8b4fbec6f7bf47aa740965d821f3a761e61ca81ee54f7967624679963f62664736f6c63430008180033",
  "linkReferences": {},
  "deployedLinkReferences": {}
}