{
  "_format": "hh-sol-artifact-1",
  "contractName": "AmazonSupplyChain",
  "sourceName": "contracts/AmazonSupplyChain.sol",
  "abi": [
    {
      "inputs": [],
      "stateMutability": "nonpayable",
      "type": "constructor"
    },
    {
      "anonymous": false,
      "inputs": [
        {
          "indexed": true,
          "internalType": "bytes32",
          "name": "brandId",
          "type": "bytes32"
        },
        {
          "indexed": false,
          "internalType": "string",
          "name": "name",
          "type": "string"
        },
        {
          "indexed": true,
          "internalType": "address",
          "name": "manufacturer",
          "type": "address"
        },
        {
          "indexed": false,
          "internalType": "string",
          "name": "logoIpfsHash",
          "type": "string"
        }
      ],
      "name": "BrandRegistered",
      "type": "event"
    },
    {
      "anonymous": false,
      "inputs": [
        {
          "indexed": true,
          "internalType": "bytes32",
          "name": "brandId",
          "type": "bytes32"
        },
        {
          "indexed": true,
          "internalType": "address",
          "name": "manufacturer",
          "type": "address"
        }
      ],
      "name": "BrandRemovedFromWhitelist",
      "type": "event"
    },
    {
      "anonymous": false,
      "inputs": [
        {
          "indexed": true,
          "internalType": "bytes32",
          "name": "brandId",
          "type": "bytes32"
        },
        {
          "indexed": true,
          "internalType": "address",
          "name": "manufacturer",
          "type": "address"
        }
      ],
      "name": "BrandWhitelisted",
      "type": "event"
    },
    {
      "anonymous": false,
      "inputs": [
        {
          "indexed": true,
          "internalType": "bytes32",
          "name": "productId",
          "type": "bytes32"
        },
        {
          "indexed": true,
          "internalType": "address",
          "name": "from",
          "type": "address"
        },
        {
          "indexed": true,
          "internalType": "address",
          "name": "to",
          "type": "address"
        },
        {
          "indexed": false,
          "internalType": "bytes32",
          "name": "uniqueHash",
          "type": "bytes32"
        }
      ],
      "name": "OwnershipRequested",
      "type": "event"
    },
    {
      "anonymous": false,
      "inputs": [
        {
          "indexed": true,
          "internalType": "bytes32",
          "name": "productId",
          "type": "bytes32"
        },
        {
          "indexed": true,
          "internalType": "address",
          "name": "from",
          "type": "address"
        },
        {
          "indexed": true,
          "internalType": "address",
          "name": "to",
          "type": "address"
        },
        {
          "indexed": false,
          "internalType": "bytes32",
          "name": "uniqueHash",
          "type": "bytes32"
        }
      ],
      "name": "OwnershipTransferred",
      "type": "event"
    },
    {
      "anonymous": false,
      "inputs": [
        {
          "indexed": true,
          "internalType": "bytes32",
          "name": "productId",
          "type": "bytes32"
        },
        {
          "indexed": false,
          "internalType": "string",
          "name": "name",
          "type": "string"
        },
        {
          "indexed": false,
          "internalType": "bytes32",
          "name": "brandId",
          "type": "bytes32"
        },
        {
          "indexed": true,
          "internalType": "address",
          "name": "manufacturer",
          "type": "address"
        },
        {
          "indexed": false,
          "internalType": "string",
          "name": "details",
          "type": "string"
        },
        {
          "indexed": false,
          "internalType": "bytes32",
          "name": "uniqueHash",
          "type": "bytes32"
        }
      ],
      "name": "ProductRegistered",
      "type": "event"
    },
    {
      "anonymous": false,
      "inputs": [
        {
          "indexed": true,
          "internalType": "bytes32",
          "name": "productId",
          "type": "bytes32"
        },
        {
          "indexed": true,
          "internalType": "address",
          "name": "verifier",
          "type": "address"
        }
      ],
      "name": "ProductVerified",
      "type": "event"
    },
    {
      "anonymous": false,
      "inputs": [
        {
          "indexed": true,
          "internalType": "address",
          "name": "user",
          "type": "address"
        },
        {
          "indexed": false,
          "internalType": "enum AmazonSupplyChain.Role",
          "name": "role",
          "type": "uint8"
        },
        {
          "indexed": false,
          "internalType": "string",
          "name": "name",
          "type": "string"
        },
        {
          "indexed": false,
          "internalType": "string",
          "name": "email",
          "type": "string"
        },
        {
          "indexed": false,
          "internalType": "string",
          "name": "phoneNumber",
          "type": "string"
        }
      ],
      "name": "UserRegistered",
      "type": "event"
    },
    {
      "inputs": [],
      "name": "admin",
      "outputs": [
        {
          "internalType": "address",
          "name": "",
          "type": "address"
        }
      ],
      "stateMutability": "view",
      "type": "function"
    },
    {
      "inputs": [
        {
          "internalType": "bytes32",
          "name": "_uniqueHash",
          "type": "bytes32"
        }
      ],
      "name": "approveOwnership",
      "outputs": [],
      "stateMutability": "nonpayable",
      "type": "function"
    },
    {
      "inputs": [],
      "name": "brandCounter",
      "outputs": [
        {
          "internalType": "uint256",
          "name": "",
          "type": "uint256"
        }
      ],
      "stateMutability": "view",
      "type": "function"
    },
    {
      "inputs": [],
      "name": "getAllBrands",
      "outputs": [
        {
          "components": [
            {
              "internalType": "bytes32",
              "name": "id",
              "type": "bytes32"
            },
            {
              "internalType": "string",
              "name": "name",
              "type": "string"
            },
            {
              "internalType": "address",
              "name": "manufacturer",
              "type": "address"
            },
            {
              "internalType": "bool",
              "name": "isWhitelisted",
              "type": "bool"
            },
            {
              "internalType": "string",
              "name": "logoIpfsHash",
              "type": "string"
            }
          ],
          "internalType": "struct AmazonSupplyChain.Brand[]",
          "name": "",
          "type": "tuple[]"
        }
      ],
      "stateMutability": "view",
      "type": "function"
    },
    {
      "inputs": [
        {
          "internalType": "address",
          "name": "_manufacturerAddress",
          "type": "address"
        }
      ],
      "name": "getAllManufacturerBrands",
      "outputs": [
        {
          "components": [
            {
              "internalType": "bytes32",
              "name": "id",
              "type": "bytes32"
            },
            {
              "internalType": "string",
              "name": "name",
              "type": "string"
            },
            {
              "internalType": "address",
              "name": "manufacturer",
              "type": "address"
            },
            {
              "internalType": "bool",
              "name": "isWhitelisted",
              "type": "bool"
            },
            {
              "internalType": "string",
              "name": "logoIpfsHash",
              "type": "string"
            }
          ],
          "internalType": "struct AmazonSupplyChain.Brand[]",
          "name": "",
          "type": "tuple[]"
        }
      ],
      "stateMutability": "view",
      "type": "function"
    },
    {
      "inputs": [
        {
          "internalType": "address",
          "name": "_manufacturerAddress",
          "type": "address"
        }
      ],
      "name": "getAllManufacturerProducts",
      "outputs": [
        {
          "components": [
            {
              "internalType": "bytes32",
              "name": "id",
              "type": "bytes32"
            },
            {
              "internalType": "string",
              "name": "name",
              "type": "string"
            },
            {
              "internalType": "bytes32",
              "name": "brandId",
              "type": "bytes32"
            },
            {
              "internalType": "address",
              "name": "manufacturer",
              "type": "address"
            },
            {
              "internalType": "address",
              "name": "currentOwner",
              "type": "address"
            },
            {
              "internalType": "string",
              "name": "details",
              "type": "string"
            },
            {
              "internalType": "bytes32",
              "name": "uniqueHash",
              "type": "bytes32"
            },
            {
              "internalType": "bool",
              "name": "delisted",
              "type": "bool"
            },
            {
              "internalType": "string",
              "name": "productImage",
              "type": "string"
            }
          ],
          "internalType": "struct AmazonSupplyChain.Product[]",
          "name": "",
          "type": "tuple[]"
        }
      ],
      "stateMutability": "view",
      "type": "function"
    },
    {
      "inputs": [
        {
          "internalType": "string",
          "name": "_brandName",
          "type": "string"
        }
      ],
      "name": "getIPFSHash",
      "outputs": [
        {
          "internalType": "string",
          "name": "",
          "type": "string"
        }
      ],
      "stateMutability": "view",
      "type": "function"
    },
    {
      "inputs": [
        {
          "internalType": "bytes32",
          "name": "_uniqueHash",
          "type": "bytes32"
        }
      ],
      "name": "getProductDetails",
      "outputs": [
        {
          "components": [
            {
              "internalType": "bytes32",
              "name": "id",
              "type": "bytes32"
            },
            {
              "internalType": "string",
              "name": "name",
              "type": "string"
            },
            {
              "internalType": "bytes32",
              "name": "brandId",
              "type": "bytes32"
            },
            {
              "internalType": "address",
              "name": "manufacturer",
              "type": "address"
            },
            {
              "internalType": "address",
              "name": "currentOwner",
              "type": "address"
            },
            {
              "internalType": "string",
              "name": "details",
              "type": "string"
            },
            {
              "internalType": "bytes32",
              "name": "uniqueHash",
              "type": "bytes32"
            },
            {
              "internalType": "bool",
              "name": "delisted",
              "type": "bool"
            },
            {
              "internalType": "string",
              "name": "productImage",
              "type": "string"
            }
          ],
          "internalType": "struct AmazonSupplyChain.Product",
          "name": "",
          "type": "tuple"
        }
      ],
      "stateMutability": "view",
      "type": "function"
    },
    {
      "inputs": [
        {
          "internalType": "bytes32",
          "name": "_uniqueHash",
          "type": "bytes32"
        }
      ],
      "name": "getProductOwners",
      "outputs": [
        {
          "components": [
            {
              "internalType": "enum AmazonSupplyChain.Role",
              "name": "role",
              "type": "uint8"
            },
            {
              "internalType": "address",
              "name": "ownerAddress",
              "type": "address"
            }
          ],
          "internalType": "struct AmazonSupplyChain.OwnerInfo[]",
          "name": "",
          "type": "tuple[]"
        }
      ],
      "stateMutability": "view",
      "type": "function"
    },
    {
      "inputs": [
        {
          "internalType": "address",
          "name": "_userAddress",
          "type": "address"
        }
      ],
      "name": "getUserDetails",
      "outputs": [
        {
          "components": [
            {
              "internalType": "enum AmazonSupplyChain.Role",
              "name": "role",
              "type": "uint8"
            },
            {
              "internalType": "string",
              "name": "name",
              "type": "string"
            },
            {
              "internalType": "string",
              "name": "email",
              "type": "string"
            },
            {
              "internalType": "string",
              "name": "phoneNumber",
              "type": "string"
            }
          ],
          "internalType": "struct AmazonSupplyChain.User",
          "name": "",
          "type": "tuple"
        }
      ],
      "stateMutability": "view",
      "type": "function"
    },
    {
      "inputs": [
        {
          "internalType": "address",
          "name": "_address",
          "type": "address"
        }
      ],
      "name": "isAdmin",
      "outputs": [
        {
          "internalType": "bool",
          "name": "",
          "type": "bool"
        }
      ],
      "stateMutability": "view",
      "type": "function"
    },
    {
      "inputs": [
        {
          "internalType": "string",
          "name": "_brandName",
          "type": "string"
        }
      ],
      "name": "isBrandStored",
      "outputs": [
        {
          "internalType": "bool",
          "name": "",
          "type": "bool"
        }
      ],
      "stateMutability": "view",
      "type": "function"
    },
    {
      "inputs": [],
      "name": "productCounter",
      "outputs": [
        {
          "internalType": "uint256",
          "name": "",
          "type": "uint256"
        }
      ],
      "stateMutability": "view",
      "type": "function"
    },
    {
      "inputs": [
        {
          "internalType": "string",
          "name": "_name",
          "type": "string"
        },
        {
          "internalType": "string",
          "name": "_logoIpfsHash",
          "type": "string"
        }
      ],
      "name": "registerBrand",
      "outputs": [
        {
          "internalType": "bytes32",
          "name": "",
          "type": "bytes32"
        }
      ],
      "stateMutability": "nonpayable",
      "type": "function"
    },
    {
      "inputs": [
        {
          "internalType": "string",
          "name": "_name",
          "type": "string"
        },
        {
          "internalType": "string",
          "name": "_details",
          "type": "string"
        },
        {
          "internalType": "bytes32",
          "name": "_brandId",
          "type": "bytes32"
        },
        {
          "internalType": "string",
          "name": "_image",
          "type": "string"
        }
      ],
      "name": "registerProduct",
      "outputs": [
        {
          "internalType": "bytes32",
          "name": "",
          "type": "bytes32"
        }
      ],
      "stateMutability": "nonpayable",
      "type": "function"
    },
    {
      "inputs": [
        {
          "internalType": "enum AmazonSupplyChain.Role",
          "name": "_role",
          "type": "uint8"
        },
        {
          "internalType": "string",
          "name": "_name",
          "type": "string"
        },
        {
          "internalType": "string",
          "name": "_email",
          "type": "string"
        },
        {
          "internalType": "string",
          "name": "_phoneNumber",
          "type": "string"
        }
      ],
      "name": "registerUser",
      "outputs": [],
      "stateMutability": "nonpayable",
      "type": "function"
    },
    {
      "inputs": [
        {
          "internalType": "bytes32",
          "name": "_brandId",
          "type": "bytes32"
        }
      ],
      "name": "removeWhitelistedBrand",
      "outputs": [],
      "stateMutability": "nonpayable",
      "type": "function"
    },
    {
      "inputs": [
        {
          "internalType": "bytes32",
          "name": "_uniqueHash",
          "type": "bytes32"
        }
      ],
      "name": "requestOwnership",
      "outputs": [],
      "stateMutability": "nonpayable",
      "type": "function"
    },
    {
      "inputs": [
        {
          "internalType": "bytes32",
          "name": "_uniqueHash",
          "type": "bytes32"
        }
      ],
      "name": "verifyProduct",
      "outputs": [
        {
          "internalType": "bool",
          "name": "",
          "type": "bool"
        }
      ],
      "stateMutability": "view",
      "type": "function"
    },
    {
      "inputs": [
        {
          "internalType": "bytes32",
          "name": "_brandId",
          "type": "bytes32"
        }
      ],
      "name": "whitelistBrand",
      "outputs": [],
      "stateMutability": "nonpayable",
      "type": "function"
    }
  ],
  "bytecode": "0x608060405234801561001057600080fd5b50336000806101000a81548173ffffffffffffffffffffffffffffffffffffffff021916908373ffffffffffffffffffffffffffffffffffffffff16021790555061549d806100606000396000f3fe608060405234801561001057600080fd5b506004361061012c5760003560e01c80637bcbf1b1116100ad578063cc3d967b11610071578063cc3d967b1461038f578063df24e1bd146103bf578063e0f24312146103db578063eda45965146103f7578063f851a440146104275761012c565b80637bcbf1b1146102c5578063955f2c10146102e1578063b74d3fb514610311578063bde12f4714610341578063c7568eff146103715761012c565b80634a5f66c1116100f45780634a5f66c11461020f57806360e8ddb01461023f57806362db83811461025d5780636461835a14610279578063713cae10146102a95761012c565b80630ea33289146101315780631f16653b1461016157806324d7806c1461017f578063318451a8146101af578063324d8589146101df575b600080fd5b61014b60048036038101906101469190613a5a565b610445565b6040516101589190613aeb565b60405180910390f35b610169610978565b6040516101769190613b1f565b60405180910390f35b61019960048036038101906101949190613b98565b61097e565b6040516101a69190613be0565b60405180910390f35b6101c960048036038101906101c49190613c27565b6109d6565b6040516101d69190613db8565b60405180910390f35b6101f960048036038101906101f49190613dda565b610c2d565b6040516102069190613aeb565b60405180910390f35b61022960048036038101906102249190613e95565b6112de565b6040516102369190613f5d565b60405180910390f35b610247611489565b6040516102549190614126565b60405180910390f35b61027760048036038101906102729190613c27565b611687565b005b610293600480360381019061028e9190613b98565b611a2a565b6040516102a09190614126565b60405180910390f35b6102c360048036038101906102be9190613c27565b611c67565b005b6102df60048036038101906102da9190613c27565b612011565b005b6102fb60048036038101906102f69190613b98565b612541565b60405161030891906142dd565b60405180910390f35b61032b60048036038101906103269190613c27565b612881565b60405161033891906143d2565b60405180910390f35b61035b60048036038101906103569190613e95565b612ba8565b6040516103689190613be0565b60405180910390f35b610379612bde565b6040516103869190613b1f565b60405180910390f35b6103a960048036038101906103a49190613b98565b612be4565b6040516103b69190614465565b60405180910390f35b6103d960048036038101906103d49190613c27565b612ee4565b005b6103f560048036038101906103f091906144ac565b613250565b005b610411600480360381019061040c9190613c27565b613551565b60405161041e9190613be0565b60405180910390f35b61042f6137dd565b60405161043c9190614576565b60405180910390f35b60006001600381111561045b5761045a613c80565b5b600460003373ffffffffffffffffffffffffffffffffffffffff1673ffffffffffffffffffffffffffffffffffffffff16815260200190815260200160002060000160009054906101000a900460ff1660038111156104bd576104bc613c80565b5b146104fd576040517f08c379a00000000000000000000000000000000000000000000000000000000081526004016104f490614603565b60405180910390fd5b600060098460405161050f919061465f565b90815260200160405180910390208054610528906146a5565b90501461056a576040517f08c379a000000000000000000000000000000000000000000000000000000000815260040161056190614722565b60405180910390fd5b6000833342604051602001610581939291906147ab565b604051602081830303815290604052805190602001209050600160008154809291906105ac90614813565b91905055506040518060a001604052808281526020018581526020013373ffffffffffffffffffffffffffffffffffffffff16815260200160001515815260200184815250600560008381526020019081526020016000206000820151816000015560208201518160010190816106239190614a07565b5060408201518160020160006101000a81548173ffffffffffffffffffffffffffffffffffffffff021916908373ffffffffffffffffffffffffffffffffffffffff16021790555060608201518160020160146101000a81548160ff02191690831515021790555060808201518160030190816106a09190614a07565b50905050600c60003373ffffffffffffffffffffffffffffffffffffffff1673ffffffffffffffffffffffffffffffffffffffff168152602001908152602001600020600560008381526020019081526020016000209080600181540180825580915050600190039060005260206000209060040201600090919091909150600082015481600001556001820181600101908161073d9190614aef565b506002820160009054906101000a900473ffffffffffffffffffffffffffffffffffffffff168160020160006101000a81548173ffffffffffffffffffffffffffffffffffffffff021916908373ffffffffffffffffffffffffffffffffffffffff1602179055506002820160149054906101000a900460ff168160020160146101000a81548160ff021916908315150217905550600382018160030190816107e69190614aef565b505050600360056000838152602001908152602001600020908060018154018082558091505060019003906000526020600020906004020160009091909190915060008201548160000155600182018160010190816108459190614aef565b506002820160009054906101000a900473ffffffffffffffffffffffffffffffffffffffff168160020160006101000a81548173ffffffffffffffffffffffffffffffffffffffff021916908373ffffffffffffffffffffffffffffffffffffffff1602179055506002820160149054906101000a900460ff168160020160146101000a81548160ff021916908315150217905550600382018160030190816108ee9190614aef565b50505082600985604051610902919061465f565b9081526020016040518091039020908161091c9190614a07565b503373ffffffffffffffffffffffffffffffffffffffff16817f197183793a3833cac582caf722bf57551339c54b88834a34a20ae31efec3f7378686604051610966929190614bd7565b60405180910390a38091505092915050565b60025481565b60008173ffffffffffffffffffffffffffffffffffffffff1660008054906101000a900473ffffffffffffffffffffffffffffffffffffffff1673ffffffffffffffffffffffffffffffffffffffff16149050919050565b60606000600760008481526020019081526020016000205490506000801b8103610a35576040517f08c379a0000000000000000000000000000000000000000000000000000000008152600401610a2c90614c5a565b60405180910390fd5b600060086000838152602001908152602001600020805480602002602001604051908101604052809291908181526020018280548015610aca57602002820191906000526020600020905b8160009054906101000a900473ffffffffffffffffffffffffffffffffffffffff1673ffffffffffffffffffffffffffffffffffffffff1681526020019060010190808311610a80575b505050505090506000815167ffffffffffffffff811115610aee57610aed61392f565b5b604051908082528060200260200182016040528015610b2757816020015b610b14613801565b815260200190600190039081610b0c5790505b50905060005b8251811015610c2157604051806040016040528060046000868581518110610b5857610b57614c7a565b5b602002602001015173ffffffffffffffffffffffffffffffffffffffff1673ffffffffffffffffffffffffffffffffffffffff16815260200190815260200160002060000160009054906101000a900460ff166003811115610bbd57610bbc613c80565b5b8152602001848381518110610bd557610bd4614c7a565b5b602002602001015173ffffffffffffffffffffffffffffffffffffffff16815250828281518110610c0957610c08614c7a565b5b60200260200101819052508080600101915050610b2d565b50809350505050919050565b600060016003811115610c4357610c42613c80565b5b600460003373ffffffffffffffffffffffffffffffffffffffff1673ffffffffffffffffffffffffffffffffffffffff16815260200190815260200160002060000160009054906101000a900460ff166003811115610ca557610ca4613c80565b5b14610ce5576040517f08c379a0000000000000000000000000000000000000000000000000000000008152600401610cdc90614603565b60405180910390fd5b3373ffffffffffffffffffffffffffffffffffffffff166005600085815260200190815260200160002060020160009054906101000a900473ffffffffffffffffffffffffffffffffffffffff1673ffffffffffffffffffffffffffffffffffffffff1614610d89576040517f08c379a0000000000000000000000000000000000000000000000000000000008152600401610d8090614cf5565b60405180910390fd5b6005600084815260200190815260200160002060020160149054906101000a900460ff16610dec576040517f08c379a0000000000000000000000000000000000000000000000000000000008152600401610de390614d61565b60405180910390fd5b6000858542604051602001610e0393929190614d81565b6040516020818303038152906040528051906020012090506000863342600254604051602001610e369493929190614db6565b60405160208183030381529060405280519060200120905060026000815480929190610e6190614813565b91905055506040518061012001604052808281526020018881526020018681526020013373ffffffffffffffffffffffffffffffffffffffff1681526020013373ffffffffffffffffffffffffffffffffffffffff1681526020018781526020018381526020016000151581526020018581525060066000838152602001908152602001600020600082015181600001556020820151816001019081610f079190614a07565b506040820151816002015560608201518160030160006101000a81548173ffffffffffffffffffffffffffffffffffffffff021916908373ffffffffffffffffffffffffffffffffffffffff16021790555060808201518160040160006101000a81548173ffffffffffffffffffffffffffffffffffffffff021916908373ffffffffffffffffffffffffffffffffffffffff16021790555060a0820151816005019081610fb59190614a07565b5060c0820151816006015560e08201518160070160006101000a81548160ff021916908315150217905550610100820151816008019081610ff69190614a07565b5090505083600e6000838152602001908152602001600020908161101a9190614a07565b50600d60003373ffffffffffffffffffffffffffffffffffffffff1673ffffffffffffffffffffffffffffffffffffffff16815260200190815260200160002060066000838152602001908152602001600020908060018154018082558091505060019003906000526020600020906009020160009091909190915060008201548160000155600182018160010190816110b49190614aef565b50600282015481600201556003820160009054906101000a900473ffffffffffffffffffffffffffffffffffffffff168160030160006101000a81548173ffffffffffffffffffffffffffffffffffffffff021916908373ffffffffffffffffffffffffffffffffffffffff1602179055506004820160009054906101000a900473ffffffffffffffffffffffffffffffffffffffff168160040160006101000a81548173ffffffffffffffffffffffffffffffffffffffff021916908373ffffffffffffffffffffffffffffffffffffffff160217905550600582018160050190816111a19190614aef565b50600682015481600601556007820160009054906101000a900460ff168160070160006101000a81548160ff021916908315150217905550600882018160080190816111ed9190614aef565b50505080600760008481526020019081526020016000208190555060086000828152602001908152602001600020339080600181540180825580915050600190039060005260206000200160009091909190916101000a81548173ffffffffffffffffffffffffffffffffffffffff021916908373ffffffffffffffffffffffffffffffffffffffff1602179055503373ffffffffffffffffffffffffffffffffffffffff16817f302f3a56907582208dff7a9cf9ab1d0eb59792f52abddd0b83be331f6b06161289888a876040516112c99493929190614e00565b60405180910390a38192505050949350505050565b606060008054906101000a900473ffffffffffffffffffffffffffffffffffffffff1673ffffffffffffffffffffffffffffffffffffffff163373ffffffffffffffffffffffffffffffffffffffff161461136e576040517f08c379a000000000000000000000000000000000000000000000000000000000815260040161136590614ec5565b60405180910390fd5b6000600983604051611380919061465f565b90815260200160405180910390208054611399906146a5565b9050116113db576040517f08c379a00000000000000000000000000000000000000000000000000000000081526004016113d290614f31565b60405180910390fd5b6009826040516113eb919061465f565b90815260200160405180910390208054611404906146a5565b80601f0160208091040260200160405190810160405280929190818152602001828054611430906146a5565b801561147d5780601f106114525761010080835404028352916020019161147d565b820191906000526020600020905b81548152906001019060200180831161146057829003601f168201915b50505050509050919050565b60606003805480602002602001604051908101604052809291908181526020016000905b8282101561167e57838290600052602060002090600402016040518060a0016040529081600082015481526020016001820180546114ea906146a5565b80601f0160208091040260200160405190810160405280929190818152602001828054611516906146a5565b80156115635780601f1061153857610100808354040283529160200191611563565b820191906000526020600020905b81548152906001019060200180831161154657829003601f168201915b505050505081526020016002820160009054906101000a900473ffffffffffffffffffffffffffffffffffffffff1673ffffffffffffffffffffffffffffffffffffffff1673ffffffffffffffffffffffffffffffffffffffff1681526020016002820160149054906101000a900460ff161515151581526020016003820180546115ed906146a5565b80601f0160208091040260200160405190810160405280929190818152602001828054611619906146a5565b80156116665780601f1061163b57610100808354040283529160200191611666565b820191906000526020600020905b81548152906001019060200180831161164957829003601f168201915b505050505081525050815260200190600101906114ad565b50505050905090565b60008054906101000a900473ffffffffffffffffffffffffffffffffffffffff1673ffffffffffffffffffffffffffffffffffffffff163373ffffffffffffffffffffffffffffffffffffffff1614611715576040517f08c379a000000000000000000000000000000000000000000000000000000000815260040161170c90614ec5565b60405180910390fd5b60006005600083815260200190815260200160002060020160009054906101000a900473ffffffffffffffffffffffffffffffffffffffff169050600073ffffffffffffffffffffffffffffffffffffffff168173ffffffffffffffffffffffffffffffffffffffff16036117bf576040517f08c379a00000000000000000000000000000000000000000000000000000000081526004016117b690614f9d565b60405180910390fd5b6005600083815260200190815260200160002060020160149054906101000a900460ff16611822576040517f08c379a000000000000000000000000000000000000000000000000000000000815260040161181990614d61565b60405180910390fd5b60006005600084815260200190815260200160002060020160146101000a81548160ff0219169083151502179055506000600c60008373ffffffffffffffffffffffffffffffffffffffff1673ffffffffffffffffffffffffffffffffffffffff168152602001908152602001600020905060005b6003805490508110156119205783600382815481106118b9576118b8614c7a565b5b90600052602060002090600402016000015403611913576000600382815481106118e6576118e5614c7a565b5b906000526020600020906004020160020160146101000a81548160ff021916908315150217905550611920565b8080600101915050611897565b5060005b81805490508110156119aa578382828154811061194457611943614c7a565b5b9060005260206000209060040201600001540361199d5760008282815481106119705761196f614c7a565b5b906000526020600020906004020160020160146101000a81548160ff0219169083151502179055506119aa565b8080600101915050611924565b506005600084815260200190815260200160002060020160009054906101000a900473ffffffffffffffffffffffffffffffffffffffff1673ffffffffffffffffffffffffffffffffffffffff16837ff682ed9be74fe5f483d7e3b151689dc6749856a3d6752cd44304b73bf871e86160405160405180910390a3505050565b6060600c60008373ffffffffffffffffffffffffffffffffffffffff1673ffffffffffffffffffffffffffffffffffffffff168152602001908152602001600020805480602002602001604051908101604052809291908181526020016000905b82821015611c5c57838290600052602060002090600402016040518060a001604052908160008201548152602001600182018054611ac8906146a5565b80601f0160208091040260200160405190810160405280929190818152602001828054611af4906146a5565b8015611b415780601f10611b1657610100808354040283529160200191611b41565b820191906000526020600020905b815481529060010190602001808311611b2457829003601f168201915b505050505081526020016002820160009054906101000a900473ffffffffffffffffffffffffffffffffffffffff1673ffffffffffffffffffffffffffffffffffffffff1673ffffffffffffffffffffffffffffffffffffffff1681526020016002820160149054906101000a900460ff16151515158152602001600382018054611bcb906146a5565b80601f0160208091040260200160405190810160405280929190818152602001828054611bf7906146a5565b8015611c445780601f10611c1957610100808354040283529160200191611c44565b820191906000526020600020905b815481529060010190602001808311611c2757829003601f168201915b50505050508152505081526020019060010190611a8b565b505050509050919050565b60008054906101000a900473ffffffffffffffffffffffffffffffffffffffff1673ffffffffffffffffffffffffffffffffffffffff163373ffffffffffffffffffffffffffffffffffffffff1614611cf5576040517f08c379a0000000000000000000000000000000000000000000000000000000008152600401611cec90614ec5565b60405180910390fd5b60006005600083815260200190815260200160002060020160009054906101000a900473ffffffffffffffffffffffffffffffffffffffff169050600015156005600084815260200190815260200160002060020160149054906101000a900460ff16151514611d9a576040517f08c379a0000000000000000000000000000000000000000000000000000000008152600401611d9190615009565b60405180910390fd5b600073ffffffffffffffffffffffffffffffffffffffff168173ffffffffffffffffffffffffffffffffffffffff1603611e09576040517f08c379a0000000000000000000000000000000000000000000000000000000008152600401611e0090614f9d565b60405180910390fd5b60016005600084815260200190815260200160002060020160146101000a81548160ff0219169083151502179055506000600c60008373ffffffffffffffffffffffffffffffffffffffff1673ffffffffffffffffffffffffffffffffffffffff168152602001908152602001600020905060005b600380549050811015611f07578360038281548110611ea057611e9f614c7a565b5b90600052602060002090600402016000015403611efa57600160038281548110611ecd57611ecc614c7a565b5b906000526020600020906004020160020160146101000a81548160ff021916908315150217905550611f07565b8080600101915050611e7e565b5060005b8180549050811015611f915783828281548110611f2b57611f2a614c7a565b5b90600052602060002090600402016000015403611f84576001828281548110611f5757611f56614c7a565b5b906000526020600020906004020160020160146101000a81548160ff021916908315150217905550611f91565b8080600101915050611f0b565b506005600084815260200190815260200160002060020160009054906101000a900473ffffffffffffffffffffffffffffffffffffffff1673ffffffffffffffffffffffffffffffffffffffff16837f31bccd6eebc9f63638bd857e49ae8f36f261f75d8339a5c2d401cdbf2fcbe2f560405160405180910390a3505050565b600060076000838152602001908152602001600020549050600115156006600083815260200190815260200160002060070160009054906101000a900460ff16151503612093576040517f08c379a000000000000000000000000000000000000000000000000000000000815260040161208a90615075565b60405180910390fd5b6000801b81036120d8576040517f08c379a00000000000000000000000000000000000000000000000000000000081526004016120cf90614c5a565b60405180910390fd5b3373ffffffffffffffffffffffffffffffffffffffff166006600083815260200190815260200160002060040160009054906101000a900473ffffffffffffffffffffffffffffffffffffffff1673ffffffffffffffffffffffffffffffffffffffff161461217c576040517f08c379a000000000000000000000000000000000000000000000000000000000815260040161217390615107565b60405180910390fd5b600b600083815260200190815260200160002060000160149054906101000a900460ff166121df576040517f08c379a00000000000000000000000000000000000000000000000000000000081526004016121d690615173565b60405180910390fd5b6000600b600084815260200190815260200160002060000160009054906101000a900473ffffffffffffffffffffffffffffffffffffffff169050806006600084815260200190815260200160002060040160006101000a81548173ffffffffffffffffffffffffffffffffffffffff021916908373ffffffffffffffffffffffffffffffffffffffff16021790555060086000838152602001908152602001600020819080600181540180825580915050600190039060005260206000200160009091909190916101000a81548173ffffffffffffffffffffffffffffffffffffffff021916908373ffffffffffffffffffffffffffffffffffffffff1602179055506000600b600085815260200190815260200160002060000160146101000a81548160ff0219169083151502179055506000600d60006006600086815260200190815260200160002060030160009054906101000a900473ffffffffffffffffffffffffffffffffffffffff1673ffffffffffffffffffffffffffffffffffffffff1673ffffffffffffffffffffffffffffffffffffffff168152602001908152602001600020905060038081111561239e5761239d613c80565b5b600460008473ffffffffffffffffffffffffffffffffffffffff1673ffffffffffffffffffffffffffffffffffffffff16815260200190815260200160002060000160009054906101000a900460ff166003811115612400576123ff613c80565b5b036124d55760016006600085815260200190815260200160002060070160006101000a81548160ff02191690831515021790555060005b6002548110156124bb578382828154811061245557612454614c7a565b5b906000526020600020906009020160000154036124ae57600182828154811061248157612480614c7a565b5b906000526020600020906009020160070160006101000a81548160ff0219169083151502179055506124bb565b8080600101915050612437565b50600260008154809291906124cf90615193565b91905055505b8173ffffffffffffffffffffffffffffffffffffffff163373ffffffffffffffffffffffffffffffffffffffff16847f62fb20063525870511d590a85718d4f5824652d140cdd8e33aba11b066781599876040516125339190613aeb565b60405180910390a450505050565b60606000600d60008473ffffffffffffffffffffffffffffffffffffffff1673ffffffffffffffffffffffffffffffffffffffff168152602001908152602001600020805480602002602001604051908101604052809291908181526020016000905b82821015612872578382906000526020600020906009020160405180610120016040529081600082015481526020016001820180546125e2906146a5565b80601f016020809104026020016040519081016040528092919081815260200182805461260e906146a5565b801561265b5780601f106126305761010080835404028352916020019161265b565b820191906000526020600020905b81548152906001019060200180831161263e57829003601f168201915b50505050508152602001600282015481526020016003820160009054906101000a900473ffffffffffffffffffffffffffffffffffffffff1673ffffffffffffffffffffffffffffffffffffffff1673ffffffffffffffffffffffffffffffffffffffff1681526020016004820160009054906101000a900473ffffffffffffffffffffffffffffffffffffffff1673ffffffffffffffffffffffffffffffffffffffff1673ffffffffffffffffffffffffffffffffffffffff16815260200160058201805461272a906146a5565b80601f0160208091040260200160405190810160405280929190818152602001828054612756906146a5565b80156127a35780601f10612778576101008083540402835291602001916127a3565b820191906000526020600020905b81548152906001019060200180831161278657829003601f168201915b50505050508152602001600682015481526020016007820160009054906101000a900460ff161515151581526020016008820180546127e1906146a5565b80601f016020809104026020016040519081016040528092919081815260200182805461280d906146a5565b801561285a5780601f1061282f5761010080835404028352916020019161285a565b820191906000526020600020905b81548152906001019060200180831161283d57829003601f168201915b505050505081525050815260200190600101906125a4565b50505050905080915050919050565b612889613843565b6000600760008481526020019081526020016000205490506000801b81036128e6576040517f08c379a00000000000000000000000000000000000000000000000000000000081526004016128dd90614c5a565b60405180910390fd5b60066000828152602001908152602001600020604051806101200160405290816000820154815260200160018201805461291f906146a5565b80601f016020809104026020016040519081016040528092919081815260200182805461294b906146a5565b80156129985780601f1061296d57610100808354040283529160200191612998565b820191906000526020600020905b81548152906001019060200180831161297b57829003601f168201915b50505050508152602001600282015481526020016003820160009054906101000a900473ffffffffffffffffffffffffffffffffffffffff1673ffffffffffffffffffffffffffffffffffffffff1673ffffffffffffffffffffffffffffffffffffffff1681526020016004820160009054906101000a900473ffffffffffffffffffffffffffffffffffffffff1673ffffffffffffffffffffffffffffffffffffffff1673ffffffffffffffffffffffffffffffffffffffff168152602001600582018054612a67906146a5565b80601f0160208091040260200160405190810160405280929190818152602001828054612a93906146a5565b8015612ae05780601f10612ab557610100808354040283529160200191612ae0565b820191906000526020600020905b815481529060010190602001808311612ac357829003601f168201915b50505050508152602001600682015481526020016007820160009054906101000a900460ff16151515158152602001600882018054612b1e906146a5565b80601f0160208091040260200160405190810160405280929190818152602001828054612b4a906146a5565b8015612b975780601f10612b6c57610100808354040283529160200191612b97565b820191906000526020600020905b815481529060010190602001808311612b7a57829003601f168201915b505050505081525050915050919050565b600080600983604051612bbb919061465f565b90815260200160405180910390208054612bd4906146a5565b9050119050919050565b60015481565b612bec6138c6565b60006003811115612c0057612bff613c80565b5b600460008473ffffffffffffffffffffffffffffffffffffffff1673ffffffffffffffffffffffffffffffffffffffff16815260200190815260200160002060000160009054906101000a900460ff166003811115612c6257612c61613c80565b5b03612ca2576040517f08c379a0000000000000000000000000000000000000000000000000000000008152600401612c9990615208565b60405180910390fd5b600460008373ffffffffffffffffffffffffffffffffffffffff1673ffffffffffffffffffffffffffffffffffffffff1681526020019081526020016000206040518060800160405290816000820160009054906101000a900460ff166003811115612d1157612d10613c80565b5b6003811115612d2357612d22613c80565b5b8152602001600182018054612d37906146a5565b80601f0160208091040260200160405190810160405280929190818152602001828054612d63906146a5565b8015612db05780601f10612d8557610100808354040283529160200191612db0565b820191906000526020600020905b815481529060010190602001808311612d9357829003601f168201915b50505050508152602001600282018054612dc9906146a5565b80601f0160208091040260200160405190810160405280929190818152602001828054612df5906146a5565b8015612e425780601f10612e1757610100808354040283529160200191612e42565b820191906000526020600020905b815481529060010190602001808311612e2557829003601f168201915b50505050508152602001600382018054612e5b906146a5565b80601f0160208091040260200160405190810160405280929190818152602001828054612e87906146a5565b8015612ed45780601f10612ea957610100808354040283529160200191612ed4565b820191906000526020600020905b815481529060010190602001808311612eb757829003601f168201915b5050505050815250509050919050565b60006003811115612ef857612ef7613c80565b5b600460003373ffffffffffffffffffffffffffffffffffffffff1673ffffffffffffffffffffffffffffffffffffffff16815260200190815260200160002060000160009054906101000a900460ff166003811115612f5a57612f59613c80565b5b03612f9a576040517f08c379a0000000000000000000000000000000000000000000000000000000008152600401612f9190615274565b60405180910390fd5b600060076000838152602001908152602001600020549050600115156006600083815260200190815260200160002060070160009054906101000a900460ff1615150361301c576040517f08c379a000000000000000000000000000000000000000000000000000000000815260040161301390615075565b60405180910390fd5b6000801b8103613061576040517f08c379a000000000000000000000000000000000000000000000000000000000815260040161305890614c5a565b60405180910390fd5b3373ffffffffffffffffffffffffffffffffffffffff166006600083815260200190815260200160002060040160009054906101000a900473ffffffffffffffffffffffffffffffffffffffff1673ffffffffffffffffffffffffffffffffffffffff1603613105576040517f08c379a00000000000000000000000000000000000000000000000000000000081526004016130fc90615306565b60405180910390fd5b60405180604001604052803373ffffffffffffffffffffffffffffffffffffffff16815260200160011515815250600b600084815260200190815260200160002060008201518160000160006101000a81548173ffffffffffffffffffffffffffffffffffffffff021916908373ffffffffffffffffffffffffffffffffffffffff16021790555060208201518160000160146101000a81548160ff0219169083151502179055509050506006600082815260200190815260200160002060040160009054906101000a900473ffffffffffffffffffffffffffffffffffffffff1673ffffffffffffffffffffffffffffffffffffffff163373ffffffffffffffffffffffffffffffffffffffff16827f9dd89f7800fe863325d636a8bdb515f54a52013476f7d39647f61a250c80688d856040516132449190613aeb565b60405180910390a45050565b6000600381111561326457613263613c80565b5b600460003373ffffffffffffffffffffffffffffffffffffffff1673ffffffffffffffffffffffffffffffffffffffff16815260200190815260200160002060000160009054906101000a900460ff1660038111156132c6576132c5613c80565b5b14613306576040517f08c379a00000000000000000000000000000000000000000000000000000000081526004016132fd90615372565b60405180910390fd5b600073ffffffffffffffffffffffffffffffffffffffff16600a8360405161332e919061465f565b908152602001604051809103902060009054906101000a900473ffffffffffffffffffffffffffffffffffffffff1673ffffffffffffffffffffffffffffffffffffffff16146133b3576040517f08c379a00000000000000000000000000000000000000000000000000000000081526004016133aa906153de565b60405180910390fd5b60405180608001604052808560038111156133d1576133d0613c80565b5b815260200184815260200183815260200182815250600460003373ffffffffffffffffffffffffffffffffffffffff1673ffffffffffffffffffffffffffffffffffffffff16815260200190815260200160002060008201518160000160006101000a81548160ff021916908360038111156134505761344f613c80565b5b0217905550602082015181600101908161346a9190614a07565b5060408201518160020190816134809190614a07565b5060608201518160030190816134969190614a07565b5090505033600a836040516134ab919061465f565b908152602001604051809103902060006101000a81548173ffffffffffffffffffffffffffffffffffffffff021916908373ffffffffffffffffffffffffffffffffffffffff1602179055503373ffffffffffffffffffffffffffffffffffffffff167fef01cf7b3c5d8be18fef6a3a019d98760533af73932fa5b4d3a4b2c3b5651aa185858585604051613543949392919061540d565b60405180910390a250505050565b600080600760008481526020019081526020016000205490506000801b81036135af576040517f08c379a00000000000000000000000000000000000000000000000000000000081526004016135a690614c5a565b60405180910390fd5b60006008600083815260200190815260200160002080548060200260200160405190810160405280929190818152602001828054801561364457602002820191906000526020600020905b8160009054906101000a900473ffffffffffffffffffffffffffffffffffffffff1673ffffffffffffffffffffffffffffffffffffffff16815260200190600101908083116135fa575b505050505090506000805b82518110156137d1576001600381111561366c5761366b613c80565b5b6004600085848151811061368357613682614c7a565b5b602002602001015173ffffffffffffffffffffffffffffffffffffffff1673ffffffffffffffffffffffffffffffffffffffff16815260200190815260200160002060000160009054906101000a900460ff1660038111156136e8576136e7613c80565b5b036137c45760006006600086815260200190815260200160002060020154905083828151811061371b5761371a614c7a565b5b602002602001015173ffffffffffffffffffffffffffffffffffffffff166005600083815260200190815260200160002060020160009054906101000a900473ffffffffffffffffffffffffffffffffffffffff1673ffffffffffffffffffffffffffffffffffffffff161480156137b357506005600082815260200190815260200160002060020160149054906101000a900460ff165b156137c25760019250506137d1565b505b808060010191505061364f565b50809350505050919050565b60008054906101000a900473ffffffffffffffffffffffffffffffffffffffff1681565b6040518060400160405280600060038111156138205761381f613c80565b5b8152602001600073ffffffffffffffffffffffffffffffffffffffff1681525090565b604051806101200160405280600080191681526020016060815260200160008019168152602001600073ffffffffffffffffffffffffffffffffffffffff168152602001600073ffffffffffffffffffffffffffffffffffffffff1681526020016060815260200160008019168152602001600015158152602001606081525090565b6040518060800160405280600060038111156138e5576138e4613c80565b5b81526020016060815260200160608152602001606081525090565b6000604051905090565b600080fd5b600080fd5b600080fd5b600080fd5b6000601f19601f8301169050919050565b7f4e487b7100000000000000000000000000000000000000000000000000000000600052604160045260246000fd5b6139678261391e565b810181811067ffffffffffffffff821117156139865761398561392f565b5b80604052505050565b6000613999613900565b90506139a5828261395e565b919050565b600067ffffffffffffffff8211156139c5576139c461392f565b5b6139ce8261391e565b9050602081019050919050565b82818337600083830152505050565b60006139fd6139f8846139aa565b61398f565b905082815260208101848484011115613a1957613a18613919565b5b613a248482856139db565b509392505050565b600082601f830112613a4157613a40613914565b5b8135613a518482602086016139ea565b91505092915050565b60008060408385031215613a7157613a7061390a565b5b600083013567ffffffffffffffff811115613a8f57613a8e61390f565b5b613a9b85828601613a2c565b925050602083013567ffffffffffffffff811115613abc57613abb61390f565b5b613ac885828601613a2c565b9150509250929050565b6000819050919050565b613ae581613ad2565b82525050565b6000602082019050613b006000830184613adc565b92915050565b6000819050919050565b613b1981613b06565b82525050565b6000602082019050613b346000830184613b10565b92915050565b600073ffffffffffffffffffffffffffffffffffffffff82169050919050565b6000613b6582613b3a565b9050919050565b613b7581613b5a565b8114613b8057600080fd5b50565b600081359050613b9281613b6c565b92915050565b600060208284031215613bae57613bad61390a565b5b6000613bbc84828501613b83565b91505092915050565b60008115159050919050565b613bda81613bc5565b82525050565b6000602082019050613bf56000830184613bd1565b92915050565b613c0481613ad2565b8114613c0f57600080fd5b50565b600081359050613c2181613bfb565b92915050565b600060208284031215613c3d57613c3c61390a565b5b6000613c4b84828501613c12565b91505092915050565b600081519050919050565b600082825260208201905092915050565b6000819050602082019050919050565b7f4e487b7100000000000000000000000000000000000000000000000000000000600052602160045260246000fd5b60048110613cc057613cbf613c80565b5b50565b6000819050613cd182613caf565b919050565b6000613ce182613cc3565b9050919050565b613cf181613cd6565b82525050565b613d0081613b5a565b82525050565b604082016000820151613d1c6000850182613ce8565b506020820151613d2f6020850182613cf7565b50505050565b6000613d418383613d06565b60408301905092915050565b6000602082019050919050565b6000613d6582613c54565b613d6f8185613c5f565b9350613d7a83613c70565b8060005b83811015613dab578151613d928882613d35565b9750613d9d83613d4d565b925050600181019050613d7e565b5085935050505092915050565b60006020820190508181036000830152613dd28184613d5a565b905092915050565b60008060008060808587031215613df457613df361390a565b5b600085013567ffffffffffffffff811115613e1257613e1161390f565b5b613e1e87828801613a2c565b945050602085013567ffffffffffffffff811115613e3f57613e3e61390f565b5b613e4b87828801613a2c565b9350506040613e5c87828801613c12565b925050606085013567ffffffffffffffff811115613e7d57613e7c61390f565b5b613e8987828801613a2c565b91505092959194509250565b600060208284031215613eab57613eaa61390a565b5b600082013567ffffffffffffffff811115613ec957613ec861390f565b5b613ed584828501613a2c565b91505092915050565b600081519050919050565b600082825260208201905092915050565b60005b83811015613f18578082015181840152602081019050613efd565b60008484015250505050565b6000613f2f82613ede565b613f398185613ee9565b9350613f49818560208601613efa565b613f528161391e565b840191505092915050565b60006020820190508181036000830152613f778184613f24565b905092915050565b600081519050919050565b600082825260208201905092915050565b6000819050602082019050919050565b613fb481613ad2565b82525050565b600082825260208201905092915050565b6000613fd682613ede565b613fe08185613fba565b9350613ff0818560208601613efa565b613ff98161391e565b840191505092915050565b61400d81613bc5565b82525050565b600060a08301600083015161402b6000860182613fab565b50602083015184820360208601526140438282613fcb565b91505060408301516140586040860182613cf7565b50606083015161406b6060860182614004565b50608083015184820360808601526140838282613fcb565b9150508091505092915050565b600061409c8383614013565b905092915050565b6000602082019050919050565b60006140bc82613f7f565b6140c68185613f8a565b9350836020820285016140d885613f9b565b8060005b8581101561411457848403895281516140f58582614090565b9450614100836140a4565b925060208a019950506001810190506140dc565b50829750879550505050505092915050565b6000602082019050818103600083015261414081846140b1565b905092915050565b600081519050919050565b600082825260208201905092915050565b6000819050602082019050919050565b60006101208301600083015161418d6000860182613fab565b50602083015184820360208601526141a58282613fcb565b91505060408301516141ba6040860182613fab565b5060608301516141cd6060860182613cf7565b5060808301516141e06080860182613cf7565b5060a083015184820360a08601526141f88282613fcb565b91505060c083015161420d60c0860182613fab565b5060e083015161422060e0860182614004565b5061010083015184820361010086015261423a8282613fcb565b9150508091505092915050565b60006142538383614174565b905092915050565b6000602082019050919050565b600061427382614148565b61427d8185614153565b93508360208202850161428f85614164565b8060005b858110156142cb57848403895281516142ac8582614247565b94506142b78361425b565b925060208a01995050600181019050614293565b50829750879550505050505092915050565b600060208201905081810360008301526142f78184614268565b905092915050565b6000610120830160008301516143186000860182613fab565b50602083015184820360208601526143308282613fcb565b91505060408301516143456040860182613fab565b5060608301516143586060860182613cf7565b50608083015161436b6080860182613cf7565b5060a083015184820360a08601526143838282613fcb565b91505060c083015161439860c0860182613fab565b5060e08301516143ab60e0860182614004565b506101008301518482036101008601526143c58282613fcb565b9150508091505092915050565b600060208201905081810360008301526143ec81846142ff565b905092915050565b600060808301600083015161440c6000860182613ce8565b50602083015184820360208601526144248282613fcb565b9150506040830151848203604086015261443e8282613fcb565b915050606083015184820360608601526144588282613fcb565b9150508091505092915050565b6000602082019050818103600083015261447f81846143f4565b905092915050565b6004811061449457600080fd5b50565b6000813590506144a681614487565b92915050565b600080600080608085870312156144c6576144c561390a565b5b60006144d487828801614497565b945050602085013567ffffffffffffffff8111156144f5576144f461390f565b5b61450187828801613a2c565b935050604085013567ffffffffffffffff8111156145225761452161390f565b5b61452e87828801613a2c565b925050606085013567ffffffffffffffff81111561454f5761454e61390f565b5b61455b87828801613a2c565b91505092959194509250565b61457081613b5a565b82525050565b600060208201905061458b6000830184614567565b92915050565b7f4f6e6c79206d616e756661637475726572732063616e20706572666f726d207460008201527f68697320616374696f6e00000000000000000000000000000000000000000000602082015250565b60006145ed602a83613ee9565b91506145f882614591565b604082019050919050565b6000602082019050818103600083015261461c816145e0565b9050919050565b600081905092915050565b600061463982613ede565b6146438185614623565b9350614653818560208601613efa565b80840191505092915050565b600061466b828461462e565b915081905092915050565b7f4e487b7100000000000000000000000000000000000000000000000000000000600052602260045260246000fd5b600060028204905060018216806146bd57607f821691505b6020821081036146d0576146cf614676565b5b50919050565b7f4272616e6420616c726561647920726567697374657265642100000000000000600082015250565b600061470c601983613ee9565b9150614717826146d6565b602082019050919050565b6000602082019050818103600083015261473b816146ff565b9050919050565b60008160601b9050919050565b600061475a82614742565b9050919050565b600061476c8261474f565b9050919050565b61478461477f82613b5a565b614761565b82525050565b6000819050919050565b6147a56147a082613b06565b61478a565b82525050565b60006147b7828661462e565b91506147c38285614773565b6014820191506147d38284614794565b602082019150819050949350505050565b7f4e487b7100000000000000000000000000000000000000000000000000000000600052601160045260246000fd5b600061481e82613b06565b91507fffffffffffffffffffffffffffffffffffffffffffffffffffffffffffffffff82036148505761484f6147e4565b5b600182019050919050565b60008190508160005260206000209050919050565b60006020601f8301049050919050565b600082821b905092915050565b6000600883026148bd7fffffffffffffffffffffffffffffffffffffffffffffffffffffffffffffffff82614880565b6148c78683614880565b95508019841693508086168417925050509392505050565b6000819050919050565b60006149046148ff6148fa84613b06565b6148df565b613b06565b9050919050565b6000819050919050565b61491e836148e9565b61493261492a8261490b565b84845461488d565b825550505050565b600090565b61494761493a565b614952818484614915565b505050565b5b818110156149765761496b60008261493f565b600181019050614958565b5050565b601f8211156149bb5761498c8161485b565b61499584614870565b810160208510156149a4578190505b6149b86149b085614870565b830182614957565b50505b505050565b600082821c905092915050565b60006149de600019846008026149c0565b1980831691505092915050565b60006149f783836149cd565b9150826002028217905092915050565b614a1082613ede565b67ffffffffffffffff811115614a2957614a2861392f565b5b614a3382546146a5565b614a3e82828561497a565b600060209050601f831160018114614a715760008415614a5f578287015190505b614a6985826149eb565b865550614ad1565b601f198416614a7f8661485b565b60005b82811015614aa757848901518255600182019150602085019450602081019050614a82565b86831015614ac45784890151614ac0601f8916826149cd565b8355505b6001600288020188555050505b505050505050565b600081549050614ae8816146a5565b9050919050565b818103614afd575050614bd5565b614b0682614ad9565b67ffffffffffffffff811115614b1f57614b1e61392f565b5b614b2982546146a5565b614b3482828561497a565b6000601f831160018114614b635760008415614b51578287015490505b614b5b85826149eb565b865550614bce565b601f198416614b718761485b565b9650614b7c8661485b565b60005b82811015614ba457848901548255600182019150600185019450602081019050614b7f565b86831015614bc15784890154614bbd601f8916826149cd565b8355505b6001600288020188555050505b5050505050505b565b60006040820190508181036000830152614bf18185613f24565b90508181036020830152614c058184613f24565b90509392505050565b7f50726f64756374204e6f7420666f756e64000000000000000000000000000000600082015250565b6000614c44601183613ee9565b9150614c4f82614c0e565b602082019050919050565b60006020820190508181036000830152614c7381614c37565b9050919050565b7f4e487b7100000000000000000000000000000000000000000000000000000000600052603260045260246000fd5b7f596f7520646f206e6f74206f776e2074686973206272616e6400000000000000600082015250565b6000614cdf601983613ee9565b9150614cea82614ca9565b602082019050919050565b60006020820190508181036000830152614d0e81614cd2565b9050919050565b7f4272616e64206973206e6f742077686974656c69737465640000000000000000600082015250565b6000614d4b601883613ee9565b9150614d5682614d15565b602082019050919050565b60006020820190508181036000830152614d7a81614d3e565b9050919050565b6000614d8d828661462e565b9150614d99828561462e565b9150614da58284614794565b602082019150819050949350505050565b6000614dc2828761462e565b9150614dce8286614773565b601482019150614dde8285614794565b602082019150614dee8284614794565b60208201915081905095945050505050565b60006080820190508181036000830152614e1a8187613f24565b9050614e296020830186613adc565b8181036040830152614e3b8185613f24565b9050614e4a6060830184613adc565b95945050505050565b7f4f6e6c792061646d696e2063616e20706572666f726d2074686973206163746960008201527f6f6e000000000000000000000000000000000000000000000000000000000000602082015250565b6000614eaf602283613ee9565b9150614eba82614e53565b604082019050919050565b60006020820190508181036000830152614ede81614ea2565b9050919050565b7f46696c65206e6f7420666f756e64000000000000000000000000000000000000600082015250565b6000614f1b600e83613ee9565b9150614f2682614ee5565b602082019050919050565b60006020820190508181036000830152614f4a81614f0e565b9050919050565b7f4272616e6420646f6573206e6f74206578697374000000000000000000000000600082015250565b6000614f87601483613ee9565b9150614f9282614f51565b602082019050919050565b60006020820190508181036000830152614fb681614f7a565b9050919050565b7f4272616e6420416c72656164792057686974656c697374656421000000000000600082015250565b6000614ff3601a83613ee9565b9150614ffe82614fbd565b602082019050919050565b6000602082019050818103600083015261502281614fe6565b9050919050565b7f546869732070726f6475637420686173206265656e2064656c69737465642100600082015250565b600061505f601f83613ee9565b915061506a82615029565b602082019050919050565b6000602082019050818103600083015261508e81615052565b9050919050565b7f4f6e6c79207468652063757272656e74206f776e65722063616e20617070726f60008201527f766520746865207472616e736665720000000000000000000000000000000000602082015250565b60006150f1602f83613ee9565b91506150fc82615095565b604082019050919050565b60006020820190508181036000830152615120816150e4565b9050919050565b7f4e6f2070656e64696e67206f776e657273686970207265717565737400000000600082015250565b600061515d601c83613ee9565b915061516882615127565b602082019050919050565b6000602082019050818103600083015261518c81615150565b9050919050565b600061519e82613b06565b9150600082036151b1576151b06147e4565b5b600182039050919050565b7f4e6f2072656769737465726564207573657220666f756e640000000000000000600082015250565b60006151f2601883613ee9565b91506151fd826151bc565b602082019050919050565b60006020820190508181036000830152615221816151e5565b9050919050565b7f55736572206973206e6f74207265676973746572656400000000000000000000600082015250565b600061525e601683613ee9565b915061526982615228565b602082019050919050565b6000602082019050818103600083015261528d81615251565b9050919050565b7f43616e6e6f742072657175657374206f776e6572736869702066726f6d20796f60008201527f757273656c660000000000000000000000000000000000000000000000000000602082015250565b60006152f0602683613ee9565b91506152fb82615294565b604082019050919050565b6000602082019050818103600083015261531f816152e3565b9050919050565b7f5573657220616c72656164792072656769737465726564000000000000000000600082015250565b600061535c601783613ee9565b915061536782615326565b602082019050919050565b6000602082019050818103600083015261538b8161534f565b9050919050565b7f456d61696c20616c726561647920696e20757365000000000000000000000000600082015250565b60006153c8601483613ee9565b91506153d382615392565b602082019050919050565b600060208201905081810360008301526153f7816153bb565b9050919050565b61540781613cd6565b82525050565b600060808201905061542260008301876153fe565b81810360208301526154348186613f24565b905081810360408301526154488185613f24565b9050818103606083015261545c8184613f24565b90509594505050505056fea26469706673582212201ab37685f801856fc5a5e857cd2fbbdc948136bddced33a9735f58f4d617ade964736f6c63430008180033",
  "linkReferences": {},
  "deployedLinkReferences": {}
}