{
  "_format": "hh-sol-artifact-1",
  "contractName": "AmazonSupplyChain",
  "sourceName": "contracts/AmazonSupplyChain.sol",
  "abi": [
    {
      "inputs": [],
      "stateMutability": "nonpayable",
      "type": "constructor"
    },
    {
      "anonymous": false,
      "inputs": [
        {
          "indexed": true,
          "internalType": "bytes32",
          "name": "brandId",
          "type": "bytes32"
        },
        {
          "indexed": false,
          "internalType": "string",
          "name": "name",
          "type": "string"
        },
        {
          "indexed": true,
          "internalType": "address",
          "name": "manufacturer",
          "type": "address"
        },
        {
          "indexed": false,
          "internalType": "string",
          "name": "logoIpfsHash",
          "type": "string"
        }
      ],
      "name": "BrandRegistered",
      "type": "event"
    },
    {
      "anonymous": false,
      "inputs": [
        {
          "indexed": true,
          "internalType": "bytes32",
          "name": "brandId",
          "type": "bytes32"
        },
        {
          "indexed": true,
          "internalType": "address",
          "name": "manufacturer",
          "type": "address"
        }
      ],
      "name": "BrandRemovedFromWhitelist",
      "type": "event"
    },
    {
      "anonymous": false,
      "inputs": [
        {
          "indexed": true,
          "internalType": "bytes32",
          "name": "brandId",
          "type": "bytes32"
        },
        {
          "indexed": true,
          "internalType": "address",
          "name": "manufacturer",
          "type": "address"
        }
      ],
      "name": "BrandWhitelisted",
      "type": "event"
    },
    {
      "anonymous": false,
      "inputs": [
        {
          "indexed": true,
          "internalType": "bytes32",
          "name": "productId",
          "type": "bytes32"
        },
        {
          "indexed": true,
          "internalType": "address",
          "name": "from",
          "type": "address"
        },
        {
          "indexed": true,
          "internalType": "address",
          "name": "to",
          "type": "address"
        },
        {
          "indexed": false,
          "internalType": "bytes32",
          "name": "uniqueHash",
          "type": "bytes32"
        }
      ],
      "name": "OwnershipRequested",
      "type": "event"
    },
    {
      "anonymous": false,
      "inputs": [
        {
          "indexed": true,
          "internalType": "bytes32",
          "name": "productId",
          "type": "bytes32"
        },
        {
          "indexed": true,
          "internalType": "address",
          "name": "from",
          "type": "address"
        },
        {
          "indexed": true,
          "internalType": "address",
          "name": "to",
          "type": "address"
        },
        {
          "indexed": false,
          "internalType": "bytes32",
          "name": "uniqueHash",
          "type": "bytes32"
        }
      ],
      "name": "OwnershipTransferred",
      "type": "event"
    },
    {
      "anonymous": false,
      "inputs": [
        {
          "indexed": true,
          "internalType": "bytes32",
          "name": "productId",
          "type": "bytes32"
        },
        {
          "indexed": false,
          "internalType": "string",
          "name": "name",
          "type": "string"
        },
        {
          "indexed": false,
          "internalType": "bytes32",
          "name": "brandId",
          "type": "bytes32"
        },
        {
          "indexed": true,
          "internalType": "address",
          "name": "manufacturer",
          "type": "address"
        },
        {
          "indexed": false,
          "internalType": "string",
          "name": "details",
          "type": "string"
        },
        {
          "indexed": false,
          "internalType": "bytes32",
          "name": "uniqueHash",
          "type": "bytes32"
        }
      ],
      "name": "ProductRegistered",
      "type": "event"
    },
    {
      "anonymous": false,
      "inputs": [
        {
          "indexed": true,
          "internalType": "bytes32",
          "name": "productId",
          "type": "bytes32"
        },
        {
          "indexed": true,
          "internalType": "address",
          "name": "verifier",
          "type": "address"
        }
      ],
      "name": "ProductVerified",
      "type": "event"
    },
    {
      "anonymous": false,
      "inputs": [
        {
          "indexed": true,
          "internalType": "address",
          "name": "user",
          "type": "address"
        },
        {
          "indexed": false,
          "internalType": "enum AmazonSupplyChain.Role",
          "name": "role",
          "type": "uint8"
        },
        {
          "indexed": false,
          "internalType": "string",
          "name": "name",
          "type": "string"
        },
        {
          "indexed": false,
          "internalType": "string",
          "name": "email",
          "type": "string"
        },
        {
          "indexed": false,
          "internalType": "string",
          "name": "phoneNumber",
          "type": "string"
        }
      ],
      "name": "UserRegistered",
      "type": "event"
    },
    {
      "inputs": [],
      "name": "admin",
      "outputs": [
        {
          "internalType": "address",
          "name": "",
          "type": "address"
        }
      ],
      "stateMutability": "view",
      "type": "function"
    },
    {
      "inputs": [
        {
          "internalType": "bytes32",
          "name": "_uniqueHash",
          "type": "bytes32"
        }
      ],
      "name": "approveOwnership",
      "outputs": [],
      "stateMutability": "nonpayable",
      "type": "function"
    },
    {
      "inputs": [],
      "name": "brandCounter",
      "outputs": [
        {
          "internalType": "uint256",
          "name": "",
          "type": "uint256"
        }
      ],
      "stateMutability": "view",
      "type": "function"
    },
    {
      "inputs": [],
      "name": "getAllBrands",
      "outputs": [
        {
          "components": [
            {
              "internalType": "bytes32",
              "name": "id",
              "type": "bytes32"
            },
            {
              "internalType": "string",
              "name": "name",
              "type": "string"
            },
            {
              "internalType": "address",
              "name": "manufacturer",
              "type": "address"
            },
            {
              "internalType": "bool",
              "name": "isWhitelisted",
              "type": "bool"
            },
            {
              "internalType": "string",
              "name": "logoIpfsHash",
              "type": "string"
            }
          ],
          "internalType": "struct AmazonSupplyChain.Brand[]",
          "name": "",
          "type": "tuple[]"
        }
      ],
      "stateMutability": "view",
      "type": "function"
    },
    {
      "inputs": [
        {
          "internalType": "address",
          "name": "_manufacturerAddress",
          "type": "address"
        }
      ],
      "name": "getAllManufacturerBrands",
      "outputs": [
        {
          "components": [
            {
              "internalType": "bytes32",
              "name": "id",
              "type": "bytes32"
            },
            {
              "internalType": "string",
              "name": "name",
              "type": "string"
            },
            {
              "internalType": "address",
              "name": "manufacturer",
              "type": "address"
            },
            {
              "internalType": "bool",
              "name": "isWhitelisted",
              "type": "bool"
            },
            {
              "internalType": "string",
              "name": "logoIpfsHash",
              "type": "string"
            }
          ],
          "internalType": "struct AmazonSupplyChain.Brand[]",
          "name": "",
          "type": "tuple[]"
        }
      ],
      "stateMutability": "view",
      "type": "function"
    },
    {
      "inputs": [
        {
          "internalType": "address",
          "name": "_manufacturerAddress",
          "type": "address"
        }
      ],
      "name": "getAllManufacturerProducts",
      "outputs": [
        {
          "components": [
            {
              "internalType": "bytes32",
              "name": "id",
              "type": "bytes32"
            },
            {
              "internalType": "string",
              "name": "name",
              "type": "string"
            },
            {
              "internalType": "bytes32",
              "name": "brandId",
              "type": "bytes32"
            },
            {
              "internalType": "address",
              "name": "manufacturer",
              "type": "address"
            },
            {
              "internalType": "address",
              "name": "currentOwner",
              "type": "address"
            },
            {
              "internalType": "string",
              "name": "details",
              "type": "string"
            },
            {
              "internalType": "bytes32",
              "name": "uniqueHash",
              "type": "bytes32"
            },
            {
              "internalType": "bool",
              "name": "delisted",
              "type": "bool"
            }
          ],
          "internalType": "struct AmazonSupplyChain.Product[]",
          "name": "",
          "type": "tuple[]"
        }
      ],
      "stateMutability": "view",
      "type": "function"
    },
    {
      "inputs": [
        {
          "internalType": "string",
          "name": "_brandName",
          "type": "string"
        }
      ],
      "name": "getIPFSHash",
      "outputs": [
        {
          "internalType": "string",
          "name": "",
          "type": "string"
        }
      ],
      "stateMutability": "view",
      "type": "function"
    },
    {
      "inputs": [
        {
          "internalType": "bytes32",
          "name": "_uniqueHash",
          "type": "bytes32"
        }
      ],
      "name": "getProductDetails",
      "outputs": [
        {
          "components": [
            {
              "internalType": "bytes32",
              "name": "id",
              "type": "bytes32"
            },
            {
              "internalType": "string",
              "name": "name",
              "type": "string"
            },
            {
              "internalType": "bytes32",
              "name": "brandId",
              "type": "bytes32"
            },
            {
              "internalType": "address",
              "name": "manufacturer",
              "type": "address"
            },
            {
              "internalType": "address",
              "name": "currentOwner",
              "type": "address"
            },
            {
              "internalType": "string",
              "name": "details",
              "type": "string"
            },
            {
              "internalType": "bytes32",
              "name": "uniqueHash",
              "type": "bytes32"
            },
            {
              "internalType": "bool",
              "name": "delisted",
              "type": "bool"
            }
          ],
          "internalType": "struct AmazonSupplyChain.Product",
          "name": "",
          "type": "tuple"
        }
      ],
      "stateMutability": "view",
      "type": "function"
    },
    {
      "inputs": [
        {
          "internalType": "bytes32",
          "name": "_uniqueHash",
          "type": "bytes32"
        }
      ],
      "name": "getProductOwners",
      "outputs": [
        {
          "components": [
            {
              "internalType": "enum AmazonSupplyChain.Role",
              "name": "role",
              "type": "uint8"
            },
            {
              "internalType": "address",
              "name": "ownerAddress",
              "type": "address"
            }
          ],
          "internalType": "struct AmazonSupplyChain.OwnerInfo[]",
          "name": "",
          "type": "tuple[]"
        }
      ],
      "stateMutability": "view",
      "type": "function"
    },
    {
      "inputs": [
        {
          "internalType": "address",
          "name": "_userAddress",
          "type": "address"
        }
      ],
      "name": "getUserDetails",
      "outputs": [
        {
          "components": [
            {
              "internalType": "enum AmazonSupplyChain.Role",
              "name": "role",
              "type": "uint8"
            },
            {
              "internalType": "string",
              "name": "name",
              "type": "string"
            },
            {
              "internalType": "string",
              "name": "email",
              "type": "string"
            },
            {
              "internalType": "string",
              "name": "phoneNumber",
              "type": "string"
            }
          ],
          "internalType": "struct AmazonSupplyChain.User",
          "name": "",
          "type": "tuple"
        }
      ],
      "stateMutability": "view",
      "type": "function"
    },
    {
      "inputs": [
        {
          "internalType": "address",
          "name": "_address",
          "type": "address"
        }
      ],
      "name": "isAdmin",
      "outputs": [
        {
          "internalType": "bool",
          "name": "",
          "type": "bool"
        }
      ],
      "stateMutability": "view",
      "type": "function"
    },
    {
      "inputs": [
        {
          "internalType": "string",
          "name": "_brandName",
          "type": "string"
        }
      ],
      "name": "isBrandStored",
      "outputs": [
        {
          "internalType": "bool",
          "name": "",
          "type": "bool"
        }
      ],
      "stateMutability": "view",
      "type": "function"
    },
    {
      "inputs": [],
      "name": "productCounter",
      "outputs": [
        {
          "internalType": "uint256",
          "name": "",
          "type": "uint256"
        }
      ],
      "stateMutability": "view",
      "type": "function"
    },
    {
      "inputs": [
        {
          "internalType": "string",
          "name": "_name",
          "type": "string"
        },
        {
          "internalType": "string",
          "name": "_logoIpfsHash",
          "type": "string"
        }
      ],
      "name": "registerBrand",
      "outputs": [
        {
          "internalType": "bytes32",
          "name": "",
          "type": "bytes32"
        }
      ],
      "stateMutability": "nonpayable",
      "type": "function"
    },
    {
      "inputs": [
        {
          "internalType": "string",
          "name": "_name",
          "type": "string"
        },
        {
          "internalType": "string",
          "name": "_details",
          "type": "string"
        },
        {
          "internalType": "bytes32",
          "name": "_brandId",
          "type": "bytes32"
        }
      ],
      "name": "registerProduct",
      "outputs": [
        {
          "internalType": "bytes32",
          "name": "",
          "type": "bytes32"
        }
      ],
      "stateMutability": "nonpayable",
      "type": "function"
    },
    {
      "inputs": [
        {
          "internalType": "enum AmazonSupplyChain.Role",
          "name": "_role",
          "type": "uint8"
        },
        {
          "internalType": "string",
          "name": "_name",
          "type": "string"
        },
        {
          "internalType": "string",
          "name": "_email",
          "type": "string"
        },
        {
          "internalType": "string",
          "name": "_phoneNumber",
          "type": "string"
        }
      ],
      "name": "registerUser",
      "outputs": [],
      "stateMutability": "nonpayable",
      "type": "function"
    },
    {
      "inputs": [
        {
          "internalType": "bytes32",
          "name": "_brandId",
          "type": "bytes32"
        }
      ],
      "name": "removeWhitelistedBrand",
      "outputs": [],
      "stateMutability": "nonpayable",
      "type": "function"
    },
    {
      "inputs": [
        {
          "internalType": "bytes32",
          "name": "_uniqueHash",
          "type": "bytes32"
        }
      ],
      "name": "requestOwnership",
      "outputs": [],
      "stateMutability": "nonpayable",
      "type": "function"
    },
    {
      "inputs": [
        {
          "internalType": "bytes32",
          "name": "_uniqueHash",
          "type": "bytes32"
        }
      ],
      "name": "verifyProduct",
      "outputs": [
        {
          "internalType": "bool",
          "name": "",
          "type": "bool"
        }
      ],
      "stateMutability": "view",
      "type": "function"
    },
    {
      "inputs": [
        {
          "internalType": "bytes32",
          "name": "_brandId",
          "type": "bytes32"
        }
      ],
      "name": "whitelistBrand",
      "outputs": [],
      "stateMutability": "nonpayable",
      "type": "function"
    }
  ],
  "bytecode": "0x608060405234801561001057600080fd5b50336000806101000a81548173ffffffffffffffffffffffffffffffffffffffff021916908373ffffffffffffffffffffffffffffffffffffffff1602179055506152b6806100606000396000f3fe608060405234801561001057600080fd5b506004361061012c5760003560e01c80637bcbf1b1116100ad578063cc3d967b11610071578063cc3d967b1461038f578063df24e1bd146103bf578063e0f24312146103db578063eda45965146103f7578063f851a440146104275761012c565b80637bcbf1b1146102c5578063955f2c10146102e1578063b74d3fb514610311578063bde12f4714610341578063c7568eff146103715761012c565b80634a5f66c1116100f45780634a5f66c11461020f57806360e8ddb01461023f57806362db83811461025d5780636461835a14610279578063713cae10146102a95761012c565b80630ea33289146101315780631185760c146101615780631f16653b1461019157806324d7806c146101af578063318451a8146101df575b600080fd5b61014b600480360381019061014691906138db565b610445565b604051610158919061396c565b60405180910390f35b61017b600480360381019061017691906139b3565b610978565b604051610188919061396c565b60405180910390f35b610199610fd5565b6040516101a69190613a57565b60405180910390f35b6101c960048036038101906101c49190613ad0565b610fdb565b6040516101d69190613b18565b60405180910390f35b6101f960048036038101906101f49190613b33565b611033565b6040516102069190613cc4565b60405180910390f35b61022960048036038101906102249190613ce6565b61128a565b6040516102369190613dae565b60405180910390f35b610247611435565b6040516102549190613f77565b60405180910390f35b61027760048036038101906102729190613b33565b611633565b005b610293600480360381019061028e9190613ad0565b6119d6565b6040516102a09190613f77565b60405180910390f35b6102c360048036038101906102be9190613b33565b611c13565b005b6102df60048036038101906102da9190613b33565b611fbd565b005b6102fb60048036038101906102f69190613ad0565b6124ed565b6040516103089190614112565b60405180910390f35b61032b60048036038101906103269190613b33565b61279b565b60405161033891906141eb565b60405180910390f35b61035b60048036038101906103569190613ce6565b612a30565b6040516103689190613b18565b60405180910390f35b610379612a66565b6040516103869190613a57565b60405180910390f35b6103a960048036038101906103a49190613ad0565b612a6c565b6040516103b6919061427e565b60405180910390f35b6103d960048036038101906103d49190613b33565b612d6c565b005b6103f560048036038101906103f091906142c5565b6130d8565b005b610411600480360381019061040c9190613b33565b6133d9565b60405161041e9190613b18565b60405180910390f35b61042f613665565b60405161043c919061438f565b60405180910390f35b60006001600381111561045b5761045a613b8c565b5b600460003373ffffffffffffffffffffffffffffffffffffffff1673ffffffffffffffffffffffffffffffffffffffff16815260200190815260200160002060000160009054906101000a900460ff1660038111156104bd576104bc613b8c565b5b146104fd576040517f08c379a00000000000000000000000000000000000000000000000000000000081526004016104f49061441c565b60405180910390fd5b600060098460405161050f9190614478565b90815260200160405180910390208054610528906144be565b90501461056a576040517f08c379a00000000000000000000000000000000000000000000000000000000081526004016105619061453b565b60405180910390fd5b6000833342604051602001610581939291906145c4565b604051602081830303815290604052805190602001209050600160008154809291906105ac9061462c565b91905055506040518060a001604052808281526020018581526020013373ffffffffffffffffffffffffffffffffffffffff16815260200160001515815260200184815250600560008381526020019081526020016000206000820151816000015560208201518160010190816106239190614820565b5060408201518160020160006101000a81548173ffffffffffffffffffffffffffffffffffffffff021916908373ffffffffffffffffffffffffffffffffffffffff16021790555060608201518160020160146101000a81548160ff02191690831515021790555060808201518160030190816106a09190614820565b50905050600c60003373ffffffffffffffffffffffffffffffffffffffff1673ffffffffffffffffffffffffffffffffffffffff168152602001908152602001600020600560008381526020019081526020016000209080600181540180825580915050600190039060005260206000209060040201600090919091909150600082015481600001556001820181600101908161073d9190614908565b506002820160009054906101000a900473ffffffffffffffffffffffffffffffffffffffff168160020160006101000a81548173ffffffffffffffffffffffffffffffffffffffff021916908373ffffffffffffffffffffffffffffffffffffffff1602179055506002820160149054906101000a900460ff168160020160146101000a81548160ff021916908315150217905550600382018160030190816107e69190614908565b505050600360056000838152602001908152602001600020908060018154018082558091505060019003906000526020600020906004020160009091909190915060008201548160000155600182018160010190816108459190614908565b506002820160009054906101000a900473ffffffffffffffffffffffffffffffffffffffff168160020160006101000a81548173ffffffffffffffffffffffffffffffffffffffff021916908373ffffffffffffffffffffffffffffffffffffffff1602179055506002820160149054906101000a900460ff168160020160146101000a81548160ff021916908315150217905550600382018160030190816108ee9190614908565b505050826009856040516109029190614478565b9081526020016040518091039020908161091c9190614820565b503373ffffffffffffffffffffffffffffffffffffffff16817f197183793a3833cac582caf722bf57551339c54b88834a34a20ae31efec3f73786866040516109669291906149f0565b60405180910390a38091505092915050565b60006001600381111561098e5761098d613b8c565b5b600460003373ffffffffffffffffffffffffffffffffffffffff1673ffffffffffffffffffffffffffffffffffffffff16815260200190815260200160002060000160009054906101000a900460ff1660038111156109f0576109ef613b8c565b5b14610a30576040517f08c379a0000000000000000000000000000000000000000000000000000000008152600401610a279061441c565b60405180910390fd5b3373ffffffffffffffffffffffffffffffffffffffff166005600084815260200190815260200160002060020160009054906101000a900473ffffffffffffffffffffffffffffffffffffffff1673ffffffffffffffffffffffffffffffffffffffff1614610ad4576040517f08c379a0000000000000000000000000000000000000000000000000000000008152600401610acb90614a73565b60405180910390fd5b6005600083815260200190815260200160002060020160149054906101000a900460ff16610b37576040517f08c379a0000000000000000000000000000000000000000000000000000000008152600401610b2e90614adf565b60405180910390fd5b6000848442604051602001610b4e93929190614aff565b6040516020818303038152906040528051906020012090506000853342600254604051602001610b819493929190614b34565b60405160208183030381529060405280519060200120905060026000815480929190610bac9061462c565b91905055506040518061010001604052808281526020018781526020018581526020013373ffffffffffffffffffffffffffffffffffffffff1681526020013373ffffffffffffffffffffffffffffffffffffffff1681526020018681526020018381526020016000151581525060066000838152602001908152602001600020600082015181600001556020820151816001019081610c4c9190614820565b506040820151816002015560608201518160030160006101000a81548173ffffffffffffffffffffffffffffffffffffffff021916908373ffffffffffffffffffffffffffffffffffffffff16021790555060808201518160040160006101000a81548173ffffffffffffffffffffffffffffffffffffffff021916908373ffffffffffffffffffffffffffffffffffffffff16021790555060a0820151816005019081610cfa9190614820565b5060c0820151816006015560e08201518160070160006101000a81548160ff021916908315150217905550905050600d60003373ffffffffffffffffffffffffffffffffffffffff1673ffffffffffffffffffffffffffffffffffffffff1681526020019081526020016000206006600083815260200190815260200160002090806001815401808255809150506001900390600052602060002090600802016000909190919091506000820154816000015560018201816001019081610dc19190614908565b50600282015481600201556003820160009054906101000a900473ffffffffffffffffffffffffffffffffffffffff168160030160006101000a81548173ffffffffffffffffffffffffffffffffffffffff021916908373ffffffffffffffffffffffffffffffffffffffff1602179055506004820160009054906101000a900473ffffffffffffffffffffffffffffffffffffffff168160040160006101000a81548173ffffffffffffffffffffffffffffffffffffffff021916908373ffffffffffffffffffffffffffffffffffffffff16021790555060058201816005019081610eae9190614908565b50600682015481600601556007820160009054906101000a900460ff168160070160006101000a81548160ff021916908315150217905550505080600760008481526020019081526020016000208190555060086000828152602001908152602001600020339080600181540180825580915050600190039060005260206000200160009091909190916101000a81548173ffffffffffffffffffffffffffffffffffffffff021916908373ffffffffffffffffffffffffffffffffffffffff1602179055503373ffffffffffffffffffffffffffffffffffffffff16817f302f3a56907582208dff7a9cf9ab1d0eb59792f52abddd0b83be331f6b06161288878987604051610fc19493929190614b7e565b60405180910390a381925050509392505050565b60025481565b60008173ffffffffffffffffffffffffffffffffffffffff1660008054906101000a900473ffffffffffffffffffffffffffffffffffffffff1673ffffffffffffffffffffffffffffffffffffffff16149050919050565b60606000600760008481526020019081526020016000205490506000801b8103611092576040517f08c379a000000000000000000000000000000000000000000000000000000000815260040161108990614c1d565b60405180910390fd5b60006008600083815260200190815260200160002080548060200260200160405190810160405280929190818152602001828054801561112757602002820191906000526020600020905b8160009054906101000a900473ffffffffffffffffffffffffffffffffffffffff1673ffffffffffffffffffffffffffffffffffffffff16815260200190600101908083116110dd575b505050505090506000815167ffffffffffffffff81111561114b5761114a6137b0565b5b60405190808252806020026020018201604052801561118457816020015b611171613689565b8152602001906001900390816111695790505b50905060005b825181101561127e576040518060400160405280600460008685815181106111b5576111b4614c3d565b5b602002602001015173ffffffffffffffffffffffffffffffffffffffff1673ffffffffffffffffffffffffffffffffffffffff16815260200190815260200160002060000160009054906101000a900460ff16600381111561121a57611219613b8c565b5b815260200184838151811061123257611231614c3d565b5b602002602001015173ffffffffffffffffffffffffffffffffffffffff1681525082828151811061126657611265614c3d565b5b6020026020010181905250808060010191505061118a565b50809350505050919050565b606060008054906101000a900473ffffffffffffffffffffffffffffffffffffffff1673ffffffffffffffffffffffffffffffffffffffff163373ffffffffffffffffffffffffffffffffffffffff161461131a576040517f08c379a000000000000000000000000000000000000000000000000000000000815260040161131190614cde565b60405180910390fd5b600060098360405161132c9190614478565b90815260200160405180910390208054611345906144be565b905011611387576040517f08c379a000000000000000000000000000000000000000000000000000000000815260040161137e90614d4a565b60405180910390fd5b6009826040516113979190614478565b908152602001604051809103902080546113b0906144be565b80601f01602080910402602001604051908101604052809291908181526020018280546113dc906144be565b80156114295780601f106113fe57610100808354040283529160200191611429565b820191906000526020600020905b81548152906001019060200180831161140c57829003601f168201915b50505050509050919050565b60606003805480602002602001604051908101604052809291908181526020016000905b8282101561162a57838290600052602060002090600402016040518060a001604052908160008201548152602001600182018054611496906144be565b80601f01602080910402602001604051908101604052809291908181526020018280546114c2906144be565b801561150f5780601f106114e45761010080835404028352916020019161150f565b820191906000526020600020905b8154815290600101906020018083116114f257829003601f168201915b505050505081526020016002820160009054906101000a900473ffffffffffffffffffffffffffffffffffffffff1673ffffffffffffffffffffffffffffffffffffffff1673ffffffffffffffffffffffffffffffffffffffff1681526020016002820160149054906101000a900460ff16151515158152602001600382018054611599906144be565b80601f01602080910402602001604051908101604052809291908181526020018280546115c5906144be565b80156116125780601f106115e757610100808354040283529160200191611612565b820191906000526020600020905b8154815290600101906020018083116115f557829003601f168201915b50505050508152505081526020019060010190611459565b50505050905090565b60008054906101000a900473ffffffffffffffffffffffffffffffffffffffff1673ffffffffffffffffffffffffffffffffffffffff163373ffffffffffffffffffffffffffffffffffffffff16146116c1576040517f08c379a00000000000000000000000000000000000000000000000000000000081526004016116b890614cde565b60405180910390fd5b60006005600083815260200190815260200160002060020160009054906101000a900473ffffffffffffffffffffffffffffffffffffffff169050600073ffffffffffffffffffffffffffffffffffffffff168173ffffffffffffffffffffffffffffffffffffffff160361176b576040517f08c379a000000000000000000000000000000000000000000000000000000000815260040161176290614db6565b60405180910390fd5b6005600083815260200190815260200160002060020160149054906101000a900460ff166117ce576040517f08c379a00000000000000000000000000000000000000000000000000000000081526004016117c590614adf565b60405180910390fd5b60006005600084815260200190815260200160002060020160146101000a81548160ff0219169083151502179055506000600c60008373ffffffffffffffffffffffffffffffffffffffff1673ffffffffffffffffffffffffffffffffffffffff168152602001908152602001600020905060005b6003805490508110156118cc57836003828154811061186557611864614c3d565b5b906000526020600020906004020160000154036118bf5760006003828154811061189257611891614c3d565b5b906000526020600020906004020160020160146101000a81548160ff0219169083151502179055506118cc565b8080600101915050611843565b5060005b818054905081101561195657838282815481106118f0576118ef614c3d565b5b9060005260206000209060040201600001540361194957600082828154811061191c5761191b614c3d565b5b906000526020600020906004020160020160146101000a81548160ff021916908315150217905550611956565b80806001019150506118d0565b506005600084815260200190815260200160002060020160009054906101000a900473ffffffffffffffffffffffffffffffffffffffff1673ffffffffffffffffffffffffffffffffffffffff16837ff682ed9be74fe5f483d7e3b151689dc6749856a3d6752cd44304b73bf871e86160405160405180910390a3505050565b6060600c60008373ffffffffffffffffffffffffffffffffffffffff1673ffffffffffffffffffffffffffffffffffffffff168152602001908152602001600020805480602002602001604051908101604052809291908181526020016000905b82821015611c0857838290600052602060002090600402016040518060a001604052908160008201548152602001600182018054611a74906144be565b80601f0160208091040260200160405190810160405280929190818152602001828054611aa0906144be565b8015611aed5780601f10611ac257610100808354040283529160200191611aed565b820191906000526020600020905b815481529060010190602001808311611ad057829003601f168201915b505050505081526020016002820160009054906101000a900473ffffffffffffffffffffffffffffffffffffffff1673ffffffffffffffffffffffffffffffffffffffff1673ffffffffffffffffffffffffffffffffffffffff1681526020016002820160149054906101000a900460ff16151515158152602001600382018054611b77906144be565b80601f0160208091040260200160405190810160405280929190818152602001828054611ba3906144be565b8015611bf05780601f10611bc557610100808354040283529160200191611bf0565b820191906000526020600020905b815481529060010190602001808311611bd357829003601f168201915b50505050508152505081526020019060010190611a37565b505050509050919050565b60008054906101000a900473ffffffffffffffffffffffffffffffffffffffff1673ffffffffffffffffffffffffffffffffffffffff163373ffffffffffffffffffffffffffffffffffffffff1614611ca1576040517f08c379a0000000000000000000000000000000000000000000000000000000008152600401611c9890614cde565b60405180910390fd5b60006005600083815260200190815260200160002060020160009054906101000a900473ffffffffffffffffffffffffffffffffffffffff169050600015156005600084815260200190815260200160002060020160149054906101000a900460ff16151514611d46576040517f08c379a0000000000000000000000000000000000000000000000000000000008152600401611d3d90614e22565b60405180910390fd5b600073ffffffffffffffffffffffffffffffffffffffff168173ffffffffffffffffffffffffffffffffffffffff1603611db5576040517f08c379a0000000000000000000000000000000000000000000000000000000008152600401611dac90614db6565b60405180910390fd5b60016005600084815260200190815260200160002060020160146101000a81548160ff0219169083151502179055506000600c60008373ffffffffffffffffffffffffffffffffffffffff1673ffffffffffffffffffffffffffffffffffffffff168152602001908152602001600020905060005b600380549050811015611eb3578360038281548110611e4c57611e4b614c3d565b5b90600052602060002090600402016000015403611ea657600160038281548110611e7957611e78614c3d565b5b906000526020600020906004020160020160146101000a81548160ff021916908315150217905550611eb3565b8080600101915050611e2a565b5060005b8180549050811015611f3d5783828281548110611ed757611ed6614c3d565b5b90600052602060002090600402016000015403611f30576001828281548110611f0357611f02614c3d565b5b906000526020600020906004020160020160146101000a81548160ff021916908315150217905550611f3d565b8080600101915050611eb7565b506005600084815260200190815260200160002060020160009054906101000a900473ffffffffffffffffffffffffffffffffffffffff1673ffffffffffffffffffffffffffffffffffffffff16837f31bccd6eebc9f63638bd857e49ae8f36f261f75d8339a5c2d401cdbf2fcbe2f560405160405180910390a3505050565b600060076000838152602001908152602001600020549050600115156006600083815260200190815260200160002060070160009054906101000a900460ff1615150361203f576040517f08c379a000000000000000000000000000000000000000000000000000000000815260040161203690614e8e565b60405180910390fd5b6000801b8103612084576040517f08c379a000000000000000000000000000000000000000000000000000000000815260040161207b90614c1d565b60405180910390fd5b3373ffffffffffffffffffffffffffffffffffffffff166006600083815260200190815260200160002060040160009054906101000a900473ffffffffffffffffffffffffffffffffffffffff1673ffffffffffffffffffffffffffffffffffffffff1614612128576040517f08c379a000000000000000000000000000000000000000000000000000000000815260040161211f90614f20565b60405180910390fd5b600b600083815260200190815260200160002060000160149054906101000a900460ff1661218b576040517f08c379a000000000000000000000000000000000000000000000000000000000815260040161218290614f8c565b60405180910390fd5b6000600b600084815260200190815260200160002060000160009054906101000a900473ffffffffffffffffffffffffffffffffffffffff169050806006600084815260200190815260200160002060040160006101000a81548173ffffffffffffffffffffffffffffffffffffffff021916908373ffffffffffffffffffffffffffffffffffffffff16021790555060086000838152602001908152602001600020819080600181540180825580915050600190039060005260206000200160009091909190916101000a81548173ffffffffffffffffffffffffffffffffffffffff021916908373ffffffffffffffffffffffffffffffffffffffff1602179055506000600b600085815260200190815260200160002060000160146101000a81548160ff0219169083151502179055506000600d60006006600086815260200190815260200160002060030160009054906101000a900473ffffffffffffffffffffffffffffffffffffffff1673ffffffffffffffffffffffffffffffffffffffff1673ffffffffffffffffffffffffffffffffffffffff168152602001908152602001600020905060038081111561234a57612349613b8c565b5b600460008473ffffffffffffffffffffffffffffffffffffffff1673ffffffffffffffffffffffffffffffffffffffff16815260200190815260200160002060000160009054906101000a900460ff1660038111156123ac576123ab613b8c565b5b036124815760016006600085815260200190815260200160002060070160006101000a81548160ff02191690831515021790555060005b600254811015612467578382828154811061240157612400614c3d565b5b9060005260206000209060080201600001540361245a57600182828154811061242d5761242c614c3d565b5b906000526020600020906008020160070160006101000a81548160ff021916908315150217905550612467565b80806001019150506123e3565b506002600081548092919061247b90614fac565b91905055505b8173ffffffffffffffffffffffffffffffffffffffff163373ffffffffffffffffffffffffffffffffffffffff16847f62fb20063525870511d590a85718d4f5824652d140cdd8e33aba11b066781599876040516124df919061396c565b60405180910390a450505050565b60606000600d60008473ffffffffffffffffffffffffffffffffffffffff1673ffffffffffffffffffffffffffffffffffffffff168152602001908152602001600020805480602002602001604051908101604052809291908181526020016000905b8282101561278c5783829060005260206000209060080201604051806101000160405290816000820154815260200160018201805461258e906144be565b80601f01602080910402602001604051908101604052809291908181526020018280546125ba906144be565b80156126075780601f106125dc57610100808354040283529160200191612607565b820191906000526020600020905b8154815290600101906020018083116125ea57829003601f168201915b50505050508152602001600282015481526020016003820160009054906101000a900473ffffffffffffffffffffffffffffffffffffffff1673ffffffffffffffffffffffffffffffffffffffff1673ffffffffffffffffffffffffffffffffffffffff1681526020016004820160009054906101000a900473ffffffffffffffffffffffffffffffffffffffff1673ffffffffffffffffffffffffffffffffffffffff1673ffffffffffffffffffffffffffffffffffffffff1681526020016005820180546126d6906144be565b80601f0160208091040260200160405190810160405280929190818152602001828054612702906144be565b801561274f5780601f106127245761010080835404028352916020019161274f565b820191906000526020600020905b81548152906001019060200180831161273257829003601f168201915b50505050508152602001600682015481526020016007820160009054906101000a900460ff16151515158152505081526020019060010190612550565b50505050905080915050919050565b6127a36136cb565b6000600760008481526020019081526020016000205490506000801b8103612800576040517f08c379a00000000000000000000000000000000000000000000000000000000081526004016127f790614c1d565b60405180910390fd5b600660008281526020019081526020016000206040518061010001604052908160008201548152602001600182018054612839906144be565b80601f0160208091040260200160405190810160405280929190818152602001828054612865906144be565b80156128b25780601f10612887576101008083540402835291602001916128b2565b820191906000526020600020905b81548152906001019060200180831161289557829003601f168201915b50505050508152602001600282015481526020016003820160009054906101000a900473ffffffffffffffffffffffffffffffffffffffff1673ffffffffffffffffffffffffffffffffffffffff1673ffffffffffffffffffffffffffffffffffffffff1681526020016004820160009054906101000a900473ffffffffffffffffffffffffffffffffffffffff1673ffffffffffffffffffffffffffffffffffffffff1673ffffffffffffffffffffffffffffffffffffffff168152602001600582018054612981906144be565b80601f01602080910402602001604051908101604052809291908181526020018280546129ad906144be565b80156129fa5780601f106129cf576101008083540402835291602001916129fa565b820191906000526020600020905b8154815290600101906020018083116129dd57829003601f168201915b50505050508152602001600682015481526020016007820160009054906101000a900460ff161515151581525050915050919050565b600080600983604051612a439190614478565b90815260200160405180910390208054612a5c906144be565b9050119050919050565b60015481565b612a74613747565b60006003811115612a8857612a87613b8c565b5b600460008473ffffffffffffffffffffffffffffffffffffffff1673ffffffffffffffffffffffffffffffffffffffff16815260200190815260200160002060000160009054906101000a900460ff166003811115612aea57612ae9613b8c565b5b03612b2a576040517f08c379a0000000000000000000000000000000000000000000000000000000008152600401612b2190615021565b60405180910390fd5b600460008373ffffffffffffffffffffffffffffffffffffffff1673ffffffffffffffffffffffffffffffffffffffff1681526020019081526020016000206040518060800160405290816000820160009054906101000a900460ff166003811115612b9957612b98613b8c565b5b6003811115612bab57612baa613b8c565b5b8152602001600182018054612bbf906144be565b80601f0160208091040260200160405190810160405280929190818152602001828054612beb906144be565b8015612c385780601f10612c0d57610100808354040283529160200191612c38565b820191906000526020600020905b815481529060010190602001808311612c1b57829003601f168201915b50505050508152602001600282018054612c51906144be565b80601f0160208091040260200160405190810160405280929190818152602001828054612c7d906144be565b8015612cca5780601f10612c9f57610100808354040283529160200191612cca565b820191906000526020600020905b815481529060010190602001808311612cad57829003601f168201915b50505050508152602001600382018054612ce3906144be565b80601f0160208091040260200160405190810160405280929190818152602001828054612d0f906144be565b8015612d5c5780601f10612d3157610100808354040283529160200191612d5c565b820191906000526020600020905b815481529060010190602001808311612d3f57829003601f168201915b5050505050815250509050919050565b60006003811115612d8057612d7f613b8c565b5b600460003373ffffffffffffffffffffffffffffffffffffffff1673ffffffffffffffffffffffffffffffffffffffff16815260200190815260200160002060000160009054906101000a900460ff166003811115612de257612de1613b8c565b5b03612e22576040517f08c379a0000000000000000000000000000000000000000000000000000000008152600401612e199061508d565b60405180910390fd5b600060076000838152602001908152602001600020549050600115156006600083815260200190815260200160002060070160009054906101000a900460ff16151503612ea4576040517f08c379a0000000000000000000000000000000000000000000000000000000008152600401612e9b90614e8e565b60405180910390fd5b6000801b8103612ee9576040517f08c379a0000000000000000000000000000000000000000000000000000000008152600401612ee090614c1d565b60405180910390fd5b3373ffffffffffffffffffffffffffffffffffffffff166006600083815260200190815260200160002060040160009054906101000a900473ffffffffffffffffffffffffffffffffffffffff1673ffffffffffffffffffffffffffffffffffffffff1603612f8d576040517f08c379a0000000000000000000000000000000000000000000000000000000008152600401612f849061511f565b60405180910390fd5b60405180604001604052803373ffffffffffffffffffffffffffffffffffffffff16815260200160011515815250600b600084815260200190815260200160002060008201518160000160006101000a81548173ffffffffffffffffffffffffffffffffffffffff021916908373ffffffffffffffffffffffffffffffffffffffff16021790555060208201518160000160146101000a81548160ff0219169083151502179055509050506006600082815260200190815260200160002060040160009054906101000a900473ffffffffffffffffffffffffffffffffffffffff1673ffffffffffffffffffffffffffffffffffffffff163373ffffffffffffffffffffffffffffffffffffffff16827f9dd89f7800fe863325d636a8bdb515f54a52013476f7d39647f61a250c80688d856040516130cc919061396c565b60405180910390a45050565b600060038111156130ec576130eb613b8c565b5b600460003373ffffffffffffffffffffffffffffffffffffffff1673ffffffffffffffffffffffffffffffffffffffff16815260200190815260200160002060000160009054906101000a900460ff16600381111561314e5761314d613b8c565b5b1461318e576040517f08c379a00000000000000000000000000000000000000000000000000000000081526004016131859061518b565b60405180910390fd5b600073ffffffffffffffffffffffffffffffffffffffff16600a836040516131b69190614478565b908152602001604051809103902060009054906101000a900473ffffffffffffffffffffffffffffffffffffffff1673ffffffffffffffffffffffffffffffffffffffff161461323b576040517f08c379a0000000000000000000000000000000000000000000000000000000008152600401613232906151f7565b60405180910390fd5b604051806080016040528085600381111561325957613258613b8c565b5b815260200184815260200183815260200182815250600460003373ffffffffffffffffffffffffffffffffffffffff1673ffffffffffffffffffffffffffffffffffffffff16815260200190815260200160002060008201518160000160006101000a81548160ff021916908360038111156132d8576132d7613b8c565b5b021790555060208201518160010190816132f29190614820565b5060408201518160020190816133089190614820565b50606082015181600301908161331e9190614820565b5090505033600a836040516133339190614478565b908152602001604051809103902060006101000a81548173ffffffffffffffffffffffffffffffffffffffff021916908373ffffffffffffffffffffffffffffffffffffffff1602179055503373ffffffffffffffffffffffffffffffffffffffff167fef01cf7b3c5d8be18fef6a3a019d98760533af73932fa5b4d3a4b2c3b5651aa1858585856040516133cb9493929190615226565b60405180910390a250505050565b600080600760008481526020019081526020016000205490506000801b8103613437576040517f08c379a000000000000000000000000000000000000000000000000000000000815260040161342e90614c1d565b60405180910390fd5b6000600860008381526020019081526020016000208054806020026020016040519081016040528092919081815260200182805480156134cc57602002820191906000526020600020905b8160009054906101000a900473ffffffffffffffffffffffffffffffffffffffff1673ffffffffffffffffffffffffffffffffffffffff1681526020019060010190808311613482575b505050505090506000805b825181101561365957600160038111156134f4576134f3613b8c565b5b6004600085848151811061350b5761350a614c3d565b5b602002602001015173ffffffffffffffffffffffffffffffffffffffff1673ffffffffffffffffffffffffffffffffffffffff16815260200190815260200160002060000160009054906101000a900460ff1660038111156135705761356f613b8c565b5b0361364c576000600660008681526020019081526020016000206002015490508382815181106135a3576135a2614c3d565b5b602002602001015173ffffffffffffffffffffffffffffffffffffffff166005600083815260200190815260200160002060020160009054906101000a900473ffffffffffffffffffffffffffffffffffffffff1673ffffffffffffffffffffffffffffffffffffffff1614801561363b57506005600082815260200190815260200160002060020160149054906101000a900460ff165b1561364a576001925050613659565b505b80806001019150506134d7565b50809350505050919050565b60008054906101000a900473ffffffffffffffffffffffffffffffffffffffff1681565b6040518060400160405280600060038111156136a8576136a7613b8c565b5b8152602001600073ffffffffffffffffffffffffffffffffffffffff1681525090565b604051806101000160405280600080191681526020016060815260200160008019168152602001600073ffffffffffffffffffffffffffffffffffffffff168152602001600073ffffffffffffffffffffffffffffffffffffffff16815260200160608152602001600080191681526020016000151581525090565b60405180608001604052806000600381111561376657613765613b8c565b5b81526020016060815260200160608152602001606081525090565b6000604051905090565b600080fd5b600080fd5b600080fd5b600080fd5b6000601f19601f8301169050919050565b7f4e487b7100000000000000000000000000000000000000000000000000000000600052604160045260246000fd5b6137e88261379f565b810181811067ffffffffffffffff82111715613807576138066137b0565b5b80604052505050565b600061381a613781565b905061382682826137df565b919050565b600067ffffffffffffffff821115613846576138456137b0565b5b61384f8261379f565b9050602081019050919050565b82818337600083830152505050565b600061387e6138798461382b565b613810565b90508281526020810184848401111561389a5761389961379a565b5b6138a584828561385c565b509392505050565b600082601f8301126138c2576138c1613795565b5b81356138d284826020860161386b565b91505092915050565b600080604083850312156138f2576138f161378b565b5b600083013567ffffffffffffffff8111156139105761390f613790565b5b61391c858286016138ad565b925050602083013567ffffffffffffffff81111561393d5761393c613790565b5b613949858286016138ad565b9150509250929050565b6000819050919050565b61396681613953565b82525050565b6000602082019050613981600083018461395d565b92915050565b61399081613953565b811461399b57600080fd5b50565b6000813590506139ad81613987565b92915050565b6000806000606084860312156139cc576139cb61378b565b5b600084013567ffffffffffffffff8111156139ea576139e9613790565b5b6139f6868287016138ad565b935050602084013567ffffffffffffffff811115613a1757613a16613790565b5b613a23868287016138ad565b9250506040613a348682870161399e565b9150509250925092565b6000819050919050565b613a5181613a3e565b82525050565b6000602082019050613a6c6000830184613a48565b92915050565b600073ffffffffffffffffffffffffffffffffffffffff82169050919050565b6000613a9d82613a72565b9050919050565b613aad81613a92565b8114613ab857600080fd5b50565b600081359050613aca81613aa4565b92915050565b600060208284031215613ae657613ae561378b565b5b6000613af484828501613abb565b91505092915050565b60008115159050919050565b613b1281613afd565b82525050565b6000602082019050613b2d6000830184613b09565b92915050565b600060208284031215613b4957613b4861378b565b5b6000613b578482850161399e565b91505092915050565b600081519050919050565b600082825260208201905092915050565b6000819050602082019050919050565b7f4e487b7100000000000000000000000000000000000000000000000000000000600052602160045260246000fd5b60048110613bcc57613bcb613b8c565b5b50565b6000819050613bdd82613bbb565b919050565b6000613bed82613bcf565b9050919050565b613bfd81613be2565b82525050565b613c0c81613a92565b82525050565b604082016000820151613c286000850182613bf4565b506020820151613c3b6020850182613c03565b50505050565b6000613c4d8383613c12565b60408301905092915050565b6000602082019050919050565b6000613c7182613b60565b613c7b8185613b6b565b9350613c8683613b7c565b8060005b83811015613cb7578151613c9e8882613c41565b9750613ca983613c59565b925050600181019050613c8a565b5085935050505092915050565b60006020820190508181036000830152613cde8184613c66565b905092915050565b600060208284031215613cfc57613cfb61378b565b5b600082013567ffffffffffffffff811115613d1a57613d19613790565b5b613d26848285016138ad565b91505092915050565b600081519050919050565b600082825260208201905092915050565b60005b83811015613d69578082015181840152602081019050613d4e565b60008484015250505050565b6000613d8082613d2f565b613d8a8185613d3a565b9350613d9a818560208601613d4b565b613da38161379f565b840191505092915050565b60006020820190508181036000830152613dc88184613d75565b905092915050565b600081519050919050565b600082825260208201905092915050565b6000819050602082019050919050565b613e0581613953565b82525050565b600082825260208201905092915050565b6000613e2782613d2f565b613e318185613e0b565b9350613e41818560208601613d4b565b613e4a8161379f565b840191505092915050565b613e5e81613afd565b82525050565b600060a083016000830151613e7c6000860182613dfc565b5060208301518482036020860152613e948282613e1c565b9150506040830151613ea96040860182613c03565b506060830151613ebc6060860182613e55565b5060808301518482036080860152613ed48282613e1c565b9150508091505092915050565b6000613eed8383613e64565b905092915050565b6000602082019050919050565b6000613f0d82613dd0565b613f178185613ddb565b935083602082028501613f2985613dec565b8060005b85811015613f655784840389528151613f468582613ee1565b9450613f5183613ef5565b925060208a01995050600181019050613f2d565b50829750879550505050505092915050565b60006020820190508181036000830152613f918184613f02565b905092915050565b600081519050919050565b600082825260208201905092915050565b6000819050602082019050919050565b600061010083016000830151613fde6000860182613dfc565b5060208301518482036020860152613ff68282613e1c565b915050604083015161400b6040860182613dfc565b50606083015161401e6060860182613c03565b5060808301516140316080860182613c03565b5060a083015184820360a08601526140498282613e1c565b91505060c083015161405e60c0860182613dfc565b5060e083015161407160e0860182613e55565b508091505092915050565b60006140888383613fc5565b905092915050565b6000602082019050919050565b60006140a882613f99565b6140b28185613fa4565b9350836020820285016140c485613fb5565b8060005b8581101561410057848403895281516140e1858261407c565b94506140ec83614090565b925060208a019950506001810190506140c8565b50829750879550505050505092915050565b6000602082019050818103600083015261412c818461409d565b905092915050565b60006101008301600083015161414d6000860182613dfc565b50602083015184820360208601526141658282613e1c565b915050604083015161417a6040860182613dfc565b50606083015161418d6060860182613c03565b5060808301516141a06080860182613c03565b5060a083015184820360a08601526141b88282613e1c565b91505060c08301516141cd60c0860182613dfc565b5060e08301516141e060e0860182613e55565b508091505092915050565b600060208201905081810360008301526142058184614134565b905092915050565b60006080830160008301516142256000860182613bf4565b506020830151848203602086015261423d8282613e1c565b915050604083015184820360408601526142578282613e1c565b915050606083015184820360608601526142718282613e1c565b9150508091505092915050565b60006020820190508181036000830152614298818461420d565b905092915050565b600481106142ad57600080fd5b50565b6000813590506142bf816142a0565b92915050565b600080600080608085870312156142df576142de61378b565b5b60006142ed878288016142b0565b945050602085013567ffffffffffffffff81111561430e5761430d613790565b5b61431a878288016138ad565b935050604085013567ffffffffffffffff81111561433b5761433a613790565b5b614347878288016138ad565b925050606085013567ffffffffffffffff81111561436857614367613790565b5b614374878288016138ad565b91505092959194509250565b61438981613a92565b82525050565b60006020820190506143a46000830184614380565b92915050565b7f4f6e6c79206d616e756661637475726572732063616e20706572666f726d207460008201527f68697320616374696f6e00000000000000000000000000000000000000000000602082015250565b6000614406602a83613d3a565b9150614411826143aa565b604082019050919050565b60006020820190508181036000830152614435816143f9565b9050919050565b600081905092915050565b600061445282613d2f565b61445c818561443c565b935061446c818560208601613d4b565b80840191505092915050565b60006144848284614447565b915081905092915050565b7f4e487b7100000000000000000000000000000000000000000000000000000000600052602260045260246000fd5b600060028204905060018216806144d657607f821691505b6020821081036144e9576144e861448f565b5b50919050565b7f4272616e6420616c726561647920726567697374657265642100000000000000600082015250565b6000614525601983613d3a565b9150614530826144ef565b602082019050919050565b6000602082019050818103600083015261455481614518565b9050919050565b60008160601b9050919050565b60006145738261455b565b9050919050565b600061458582614568565b9050919050565b61459d61459882613a92565b61457a565b82525050565b6000819050919050565b6145be6145b982613a3e565b6145a3565b82525050565b60006145d08286614447565b91506145dc828561458c565b6014820191506145ec82846145ad565b602082019150819050949350505050565b7f4e487b7100000000000000000000000000000000000000000000000000000000600052601160045260246000fd5b600061463782613a3e565b91507fffffffffffffffffffffffffffffffffffffffffffffffffffffffffffffffff8203614669576146686145fd565b5b600182019050919050565b60008190508160005260206000209050919050565b60006020601f8301049050919050565b600082821b905092915050565b6000600883026146d67fffffffffffffffffffffffffffffffffffffffffffffffffffffffffffffffff82614699565b6146e08683614699565b95508019841693508086168417925050509392505050565b6000819050919050565b600061471d61471861471384613a3e565b6146f8565b613a3e565b9050919050565b6000819050919050565b61473783614702565b61474b61474382614724565b8484546146a6565b825550505050565b600090565b614760614753565b61476b81848461472e565b505050565b5b8181101561478f57614784600082614758565b600181019050614771565b5050565b601f8211156147d4576147a581614674565b6147ae84614689565b810160208510156147bd578190505b6147d16147c985614689565b830182614770565b50505b505050565b600082821c905092915050565b60006147f7600019846008026147d9565b1980831691505092915050565b600061481083836147e6565b9150826002028217905092915050565b61482982613d2f565b67ffffffffffffffff811115614842576148416137b0565b5b61484c82546144be565b614857828285614793565b600060209050601f83116001811461488a5760008415614878578287015190505b6148828582614804565b8655506148ea565b601f19841661489886614674565b60005b828110156148c05784890151825560018201915060208501945060208101905061489b565b868310156148dd57848901516148d9601f8916826147e6565b8355505b6001600288020188555050505b505050505050565b600081549050614901816144be565b9050919050565b8181036149165750506149ee565b61491f826148f2565b67ffffffffffffffff811115614938576149376137b0565b5b61494282546144be565b61494d828285614793565b6000601f83116001811461497c576000841561496a578287015490505b6149748582614804565b8655506149e7565b601f19841661498a87614674565b965061499586614674565b60005b828110156149bd57848901548255600182019150600185019450602081019050614998565b868310156149da57848901546149d6601f8916826147e6565b8355505b6001600288020188555050505b5050505050505b565b60006040820190508181036000830152614a0a8185613d75565b90508181036020830152614a1e8184613d75565b90509392505050565b7f596f7520646f206e6f74206f776e2074686973206272616e6400000000000000600082015250565b6000614a5d601983613d3a565b9150614a6882614a27565b602082019050919050565b60006020820190508181036000830152614a8c81614a50565b9050919050565b7f4272616e64206973206e6f742077686974656c69737465640000000000000000600082015250565b6000614ac9601883613d3a565b9150614ad482614a93565b602082019050919050565b60006020820190508181036000830152614af881614abc565b9050919050565b6000614b0b8286614447565b9150614b178285614447565b9150614b2382846145ad565b602082019150819050949350505050565b6000614b408287614447565b9150614b4c828661458c565b601482019150614b5c82856145ad565b602082019150614b6c82846145ad565b60208201915081905095945050505050565b60006080820190508181036000830152614b988187613d75565b9050614ba7602083018661395d565b8181036040830152614bb98185613d75565b9050614bc8606083018461395d565b95945050505050565b7f50726f64756374204e6f7420666f756e64000000000000000000000000000000600082015250565b6000614c07601183613d3a565b9150614c1282614bd1565b602082019050919050565b60006020820190508181036000830152614c3681614bfa565b9050919050565b7f4e487b7100000000000000000000000000000000000000000000000000000000600052603260045260246000fd5b7f4f6e6c792061646d696e2063616e20706572666f726d2074686973206163746960008201527f6f6e000000000000000000000000000000000000000000000000000000000000602082015250565b6000614cc8602283613d3a565b9150614cd382614c6c565b604082019050919050565b60006020820190508181036000830152614cf781614cbb565b9050919050565b7f46696c65206e6f7420666f756e64000000000000000000000000000000000000600082015250565b6000614d34600e83613d3a565b9150614d3f82614cfe565b602082019050919050565b60006020820190508181036000830152614d6381614d27565b9050919050565b7f4272616e6420646f6573206e6f74206578697374000000000000000000000000600082015250565b6000614da0601483613d3a565b9150614dab82614d6a565b602082019050919050565b60006020820190508181036000830152614dcf81614d93565b9050919050565b7f4272616e6420416c72656164792057686974656c697374656421000000000000600082015250565b6000614e0c601a83613d3a565b9150614e1782614dd6565b602082019050919050565b60006020820190508181036000830152614e3b81614dff565b9050919050565b7f546869732070726f6475637420686173206265656e2064656c69737465642100600082015250565b6000614e78601f83613d3a565b9150614e8382614e42565b602082019050919050565b60006020820190508181036000830152614ea781614e6b565b9050919050565b7f4f6e6c79207468652063757272656e74206f776e65722063616e20617070726f60008201527f766520746865207472616e736665720000000000000000000000000000000000602082015250565b6000614f0a602f83613d3a565b9150614f1582614eae565b604082019050919050565b60006020820190508181036000830152614f3981614efd565b9050919050565b7f4e6f2070656e64696e67206f776e657273686970207265717565737400000000600082015250565b6000614f76601c83613d3a565b9150614f8182614f40565b602082019050919050565b60006020820190508181036000830152614fa581614f69565b9050919050565b6000614fb782613a3e565b915060008203614fca57614fc96145fd565b5b600182039050919050565b7f4e6f2072656769737465726564207573657220666f756e640000000000000000600082015250565b600061500b601883613d3a565b915061501682614fd5565b602082019050919050565b6000602082019050818103600083015261503a81614ffe565b9050919050565b7f55736572206973206e6f74207265676973746572656400000000000000000000600082015250565b6000615077601683613d3a565b915061508282615041565b602082019050919050565b600060208201905081810360008301526150a68161506a565b9050919050565b7f43616e6e6f742072657175657374206f776e6572736869702066726f6d20796f60008201527f757273656c660000000000000000000000000000000000000000000000000000602082015250565b6000615109602683613d3a565b9150615114826150ad565b604082019050919050565b60006020820190508181036000830152615138816150fc565b9050919050565b7f5573657220616c72656164792072656769737465726564000000000000000000600082015250565b6000615175601783613d3a565b91506151808261513f565b602082019050919050565b600060208201905081810360008301526151a481615168565b9050919050565b7f456d61696c20616c726561647920696e20757365000000000000000000000000600082015250565b60006151e1601483613d3a565b91506151ec826151ab565b602082019050919050565b60006020820190508181036000830152615210816151d4565b9050919050565b61522081613be2565b82525050565b600060808201905061523b6000830187615217565b818103602083015261524d8186613d75565b905081810360408301526152618185613d75565b905081810360608301526152758184613d75565b90509594505050505056fea2646970667358221220d336108756c9e4ba6812975e2395ba0e2ea4fddd9dc66183f320976c0235df1764736f6c63430008180033",
  "linkReferences": {},
  "deployedLinkReferences": {}
}