{
  "_format": "hh-sol-artifact-1",
  "contractName": "AmazonSupplyChain",
  "sourceName": "contracts/AmazonSupplyChain.sol",
  "abi": [
    {
      "inputs": [],
      "stateMutability": "nonpayable",
      "type": "constructor"
    },
    {
      "anonymous": false,
      "inputs": [
        {
          "indexed": true,
          "internalType": "bytes32",
          "name": "brandId",
          "type": "bytes32"
        },
        {
          "indexed": false,
          "internalType": "string",
          "name": "name",
          "type": "string"
        },
        {
          "indexed": true,
          "internalType": "address",
          "name": "manufacturer",
          "type": "address"
        },
        {
          "indexed": false,
          "internalType": "string",
          "name": "logoIpfsHash",
          "type": "string"
        }
      ],
      "name": "BrandRegistered",
      "type": "event"
    },
    {
      "anonymous": false,
      "inputs": [
        {
          "indexed": true,
          "internalType": "bytes32",
          "name": "brandId",
          "type": "bytes32"
        },
        {
          "indexed": true,
          "internalType": "address",
          "name": "manufacturer",
          "type": "address"
        }
      ],
      "name": "BrandRemovedFromWhitelist",
      "type": "event"
    },
    {
      "anonymous": false,
      "inputs": [
        {
          "indexed": true,
          "internalType": "bytes32",
          "name": "brandId",
          "type": "bytes32"
        },
        {
          "indexed": true,
          "internalType": "address",
          "name": "manufacturer",
          "type": "address"
        }
      ],
      "name": "BrandWhitelisted",
      "type": "event"
    },
    {
      "anonymous": false,
      "inputs": [
        {
          "indexed": true,
          "internalType": "bytes32",
          "name": "productId",
          "type": "bytes32"
        },
        {
          "indexed": true,
          "internalType": "address",
          "name": "from",
          "type": "address"
        },
        {
          "indexed": true,
          "internalType": "address",
          "name": "to",
          "type": "address"
        },
        {
          "indexed": false,
          "internalType": "bytes32",
          "name": "uniqueHash",
          "type": "bytes32"
        }
      ],
      "name": "OwnershipRequested",
      "type": "event"
    },
    {
      "anonymous": false,
      "inputs": [
        {
          "indexed": true,
          "internalType": "bytes32",
          "name": "productId",
          "type": "bytes32"
        },
        {
          "indexed": true,
          "internalType": "address",
          "name": "from",
          "type": "address"
        },
        {
          "indexed": true,
          "internalType": "address",
          "name": "to",
          "type": "address"
        },
        {
          "indexed": false,
          "internalType": "bytes32",
          "name": "uniqueHash",
          "type": "bytes32"
        }
      ],
      "name": "OwnershipTransferred",
      "type": "event"
    },
    {
      "anonymous": false,
      "inputs": [
        {
          "indexed": true,
          "internalType": "bytes32",
          "name": "productId",
          "type": "bytes32"
        },
        {
          "indexed": false,
          "internalType": "string",
          "name": "name",
          "type": "string"
        },
        {
          "indexed": false,
          "internalType": "bytes32",
          "name": "brandId",
          "type": "bytes32"
        },
        {
          "indexed": true,
          "internalType": "address",
          "name": "manufacturer",
          "type": "address"
        },
        {
          "indexed": false,
          "internalType": "string",
          "name": "details",
          "type": "string"
        },
        {
          "indexed": false,
          "internalType": "bytes32",
          "name": "uniqueHash",
          "type": "bytes32"
        }
      ],
      "name": "ProductRegistered",
      "type": "event"
    },
    {
      "anonymous": false,
      "inputs": [
        {
          "indexed": true,
          "internalType": "bytes32",
          "name": "productId",
          "type": "bytes32"
        },
        {
          "indexed": true,
          "internalType": "address",
          "name": "verifier",
          "type": "address"
        }
      ],
      "name": "ProductVerified",
      "type": "event"
    },
    {
      "anonymous": false,
      "inputs": [
        {
          "indexed": true,
          "internalType": "address",
          "name": "user",
          "type": "address"
        },
        {
          "indexed": false,
          "internalType": "enum AmazonSupplyChain.Role",
          "name": "role",
          "type": "uint8"
        },
        {
          "indexed": false,
          "internalType": "string",
          "name": "name",
          "type": "string"
        },
        {
          "indexed": false,
          "internalType": "string",
          "name": "email",
          "type": "string"
        },
        {
          "indexed": false,
          "internalType": "string",
          "name": "phoneNumber",
          "type": "string"
        }
      ],
      "name": "UserRegistered",
      "type": "event"
    },
    {
      "inputs": [],
      "name": "admin",
      "outputs": [
        {
          "internalType": "address",
          "name": "",
          "type": "address"
        }
      ],
      "stateMutability": "view",
      "type": "function"
    },
    {
      "inputs": [
        {
          "internalType": "bytes32",
          "name": "_uniqueHash",
          "type": "bytes32"
        }
      ],
      "name": "approveOwnership",
      "outputs": [],
      "stateMutability": "nonpayable",
      "type": "function"
    },
    {
      "inputs": [],
      "name": "brandCounter",
      "outputs": [
        {
          "internalType": "uint256",
          "name": "",
          "type": "uint256"
        }
      ],
      "stateMutability": "view",
      "type": "function"
    },
    {
      "inputs": [],
      "name": "getAllBrands",
      "outputs": [
        {
          "components": [
            {
              "internalType": "bytes32",
              "name": "id",
              "type": "bytes32"
            },
            {
              "internalType": "string",
              "name": "name",
              "type": "string"
            },
            {
              "internalType": "address",
              "name": "manufacturer",
              "type": "address"
            },
            {
              "internalType": "bool",
              "name": "isWhitelisted",
              "type": "bool"
            },
            {
              "internalType": "string",
              "name": "logoIpfsHash",
              "type": "string"
            }
          ],
          "internalType": "struct AmazonSupplyChain.Brand[]",
          "name": "",
          "type": "tuple[]"
        }
      ],
      "stateMutability": "view",
      "type": "function"
    },
    {
      "inputs": [
        {
          "internalType": "address",
          "name": "_manufacturerAddress",
          "type": "address"
        }
      ],
      "name": "getAllManufacturerBrands",
      "outputs": [
        {
          "components": [
            {
              "internalType": "bytes32",
              "name": "id",
              "type": "bytes32"
            },
            {
              "internalType": "string",
              "name": "name",
              "type": "string"
            },
            {
              "internalType": "address",
              "name": "manufacturer",
              "type": "address"
            },
            {
              "internalType": "bool",
              "name": "isWhitelisted",
              "type": "bool"
            },
            {
              "internalType": "string",
              "name": "logoIpfsHash",
              "type": "string"
            }
          ],
          "internalType": "struct AmazonSupplyChain.Brand[]",
          "name": "",
          "type": "tuple[]"
        }
      ],
      "stateMutability": "view",
      "type": "function"
    },
    {
      "inputs": [
        {
          "internalType": "address",
          "name": "_manufacturerAddress",
          "type": "address"
        }
      ],
      "name": "getAllManufacturerProducts",
      "outputs": [
        {
          "components": [
            {
              "internalType": "bytes32",
              "name": "id",
              "type": "bytes32"
            },
            {
              "internalType": "string",
              "name": "name",
              "type": "string"
            },
            {
              "internalType": "bytes32",
              "name": "brandId",
              "type": "bytes32"
            },
            {
              "internalType": "address",
              "name": "manufacturer",
              "type": "address"
            },
            {
              "internalType": "address",
              "name": "currentOwner",
              "type": "address"
            },
            {
              "internalType": "string",
              "name": "details",
              "type": "string"
            },
            {
              "internalType": "bytes32",
              "name": "uniqueHash",
              "type": "bytes32"
            },
            {
              "internalType": "bool",
              "name": "delisted",
              "type": "bool"
            }
          ],
          "internalType": "struct AmazonSupplyChain.Product[]",
          "name": "",
          "type": "tuple[]"
        }
      ],
      "stateMutability": "view",
      "type": "function"
    },
    {
      "inputs": [
        {
          "internalType": "string",
          "name": "_brandName",
          "type": "string"
        }
      ],
      "name": "getIPFSHash",
      "outputs": [
        {
          "internalType": "string",
          "name": "",
          "type": "string"
        }
      ],
      "stateMutability": "view",
      "type": "function"
    },
    {
      "inputs": [
        {
          "internalType": "bytes32",
          "name": "_uniqueHash",
          "type": "bytes32"
        }
      ],
      "name": "getProductDetails",
      "outputs": [
        {
          "components": [
            {
              "internalType": "bytes32",
              "name": "id",
              "type": "bytes32"
            },
            {
              "internalType": "string",
              "name": "name",
              "type": "string"
            },
            {
              "internalType": "bytes32",
              "name": "brandId",
              "type": "bytes32"
            },
            {
              "internalType": "address",
              "name": "manufacturer",
              "type": "address"
            },
            {
              "internalType": "address",
              "name": "currentOwner",
              "type": "address"
            },
            {
              "internalType": "string",
              "name": "details",
              "type": "string"
            },
            {
              "internalType": "bytes32",
              "name": "uniqueHash",
              "type": "bytes32"
            },
            {
              "internalType": "bool",
              "name": "delisted",
              "type": "bool"
            }
          ],
          "internalType": "struct AmazonSupplyChain.Product",
          "name": "",
          "type": "tuple"
        }
      ],
      "stateMutability": "view",
      "type": "function"
    },
    {
      "inputs": [
        {
          "internalType": "bytes32",
          "name": "_uniqueHash",
          "type": "bytes32"
        }
      ],
      "name": "getProductOwners",
      "outputs": [
        {
          "components": [
            {
              "internalType": "enum AmazonSupplyChain.Role",
              "name": "role",
              "type": "uint8"
            },
            {
              "internalType": "address",
              "name": "ownerAddress",
              "type": "address"
            }
          ],
          "internalType": "struct AmazonSupplyChain.OwnerInfo[]",
          "name": "",
          "type": "tuple[]"
        }
      ],
      "stateMutability": "view",
      "type": "function"
    },
    {
      "inputs": [
        {
          "internalType": "address",
          "name": "_userAddress",
          "type": "address"
        }
      ],
      "name": "getUserDetails",
      "outputs": [
        {
          "components": [
            {
              "internalType": "enum AmazonSupplyChain.Role",
              "name": "role",
              "type": "uint8"
            },
            {
              "internalType": "string",
              "name": "name",
              "type": "string"
            },
            {
              "internalType": "string",
              "name": "email",
              "type": "string"
            },
            {
              "internalType": "string",
              "name": "phoneNumber",
              "type": "string"
            }
          ],
          "internalType": "struct AmazonSupplyChain.User",
          "name": "",
          "type": "tuple"
        }
      ],
      "stateMutability": "view",
      "type": "function"
    },
    {
      "inputs": [
        {
          "internalType": "address",
          "name": "_address",
          "type": "address"
        }
      ],
      "name": "isAdmin",
      "outputs": [
        {
          "internalType": "bool",
          "name": "",
          "type": "bool"
        }
      ],
      "stateMutability": "view",
      "type": "function"
    },
    {
      "inputs": [
        {
          "internalType": "string",
          "name": "_brandName",
          "type": "string"
        }
      ],
      "name": "isBrandStored",
      "outputs": [
        {
          "internalType": "bool",
          "name": "",
          "type": "bool"
        }
      ],
      "stateMutability": "view",
      "type": "function"
    },
    {
      "inputs": [],
      "name": "productCounter",
      "outputs": [
        {
          "internalType": "uint256",
          "name": "",
          "type": "uint256"
        }
      ],
      "stateMutability": "view",
      "type": "function"
    },
    {
      "inputs": [
        {
          "internalType": "string",
          "name": "_name",
          "type": "string"
        },
        {
          "internalType": "string",
          "name": "_logoIpfsHash",
          "type": "string"
        }
      ],
      "name": "registerBrand",
      "outputs": [
        {
          "internalType": "bytes32",
          "name": "",
          "type": "bytes32"
        }
      ],
      "stateMutability": "nonpayable",
      "type": "function"
    },
    {
      "inputs": [
        {
          "internalType": "string",
          "name": "_name",
          "type": "string"
        },
        {
          "internalType": "string",
          "name": "_details",
          "type": "string"
        },
        {
          "internalType": "bytes32",
          "name": "_brandId",
          "type": "bytes32"
        }
      ],
      "name": "registerProduct",
      "outputs": [
        {
          "internalType": "bytes32",
          "name": "",
          "type": "bytes32"
        }
      ],
      "stateMutability": "nonpayable",
      "type": "function"
    },
    {
      "inputs": [
        {
          "internalType": "enum AmazonSupplyChain.Role",
          "name": "_role",
          "type": "uint8"
        },
        {
          "internalType": "string",
          "name": "_name",
          "type": "string"
        },
        {
          "internalType": "string",
          "name": "_email",
          "type": "string"
        },
        {
          "internalType": "string",
          "name": "_phoneNumber",
          "type": "string"
        }
      ],
      "name": "registerUser",
      "outputs": [],
      "stateMutability": "nonpayable",
      "type": "function"
    },
    {
      "inputs": [
        {
          "internalType": "bytes32",
          "name": "_brandId",
          "type": "bytes32"
        }
      ],
      "name": "removeWhitelistedBrand",
      "outputs": [],
      "stateMutability": "nonpayable",
      "type": "function"
    },
    {
      "inputs": [
        {
          "internalType": "bytes32",
          "name": "_uniqueHash",
          "type": "bytes32"
        }
      ],
      "name": "requestOwnership",
      "outputs": [],
      "stateMutability": "nonpayable",
      "type": "function"
    },
    {
      "inputs": [
        {
          "internalType": "bytes32",
          "name": "_uniqueHash",
          "type": "bytes32"
        }
      ],
      "name": "verifyProduct",
      "outputs": [
        {
          "internalType": "bool",
          "name": "",
          "type": "bool"
        }
      ],
      "stateMutability": "view",
      "type": "function"
    },
    {
      "inputs": [
        {
          "internalType": "bytes32",
          "name": "_brandId",
          "type": "bytes32"
        }
      ],
      "name": "whitelistBrand",
      "outputs": [],
      "stateMutability": "nonpayable",
      "type": "function"
    }
  ],
  "bytecode": "0x608060405234801561001057600080fd5b50336000806101000a81548173ffffffffffffffffffffffffffffffffffffffff021916908373ffffffffffffffffffffffffffffffffffffffff1602179055506150c6806100606000396000f3fe608060405234801561001057600080fd5b506004361061012c5760003560e01c80637bcbf1b1116100ad578063cc3d967b11610071578063cc3d967b1461038f578063df24e1bd146103bf578063e0f24312146103db578063eda45965146103f7578063f851a440146104275761012c565b80637bcbf1b1146102c5578063955f2c10146102e1578063b74d3fb514610311578063bde12f4714610341578063c7568eff146103715761012c565b80634a5f66c1116100f45780634a5f66c11461020f57806360e8ddb01461023f57806362db83811461025d5780636461835a14610279578063713cae10146102a95761012c565b80630ea33289146101315780631185760c146101615780631f16653b1461019157806324d7806c146101af578063318451a8146101df575b600080fd5b61014b60048036038101906101469190613757565b610445565b60405161015891906137e8565b60405180910390f35b61017b6004803603810190610176919061382f565b610978565b60405161018891906137e8565b60405180910390f35b610199610fd5565b6040516101a691906138d3565b60405180910390f35b6101c960048036038101906101c4919061394c565b610fdb565b6040516101d69190613994565b60405180910390f35b6101f960048036038101906101f491906139af565b611033565b6040516102069190613b40565b60405180910390f35b61022960048036038101906102249190613b62565b61128a565b6040516102369190613c2a565b60405180910390f35b610247611435565b6040516102549190613df3565b60405180910390f35b610277600480360381019061027291906139af565b611633565b005b610293600480360381019061028e919061394c565b611949565b6040516102a09190613df3565b60405180910390f35b6102c360048036038101906102be91906139af565b611b86565b005b6102df60048036038101906102da91906139af565b611e39565b005b6102fb60048036038101906102f6919061394c565b612369565b6040516103089190613f8e565b60405180910390f35b61032b600480360381019061032691906139af565b612617565b6040516103389190614067565b60405180910390f35b61035b60048036038101906103569190613b62565b6128ac565b6040516103689190613994565b60405180910390f35b6103796128e2565b60405161038691906138d3565b60405180910390f35b6103a960048036038101906103a4919061394c565b6128e8565b6040516103b691906140fa565b60405180910390f35b6103d960048036038101906103d491906139af565b612be8565b005b6103f560048036038101906103f09190614141565b612f54565b005b610411600480360381019061040c91906139af565b613255565b60405161041e9190613994565b60405180910390f35b61042f6134e1565b60405161043c919061420b565b60405180910390f35b60006001600381111561045b5761045a613a08565b5b600460003373ffffffffffffffffffffffffffffffffffffffff1673ffffffffffffffffffffffffffffffffffffffff16815260200190815260200160002060000160009054906101000a900460ff1660038111156104bd576104bc613a08565b5b146104fd576040517f08c379a00000000000000000000000000000000000000000000000000000000081526004016104f490614298565b60405180910390fd5b600060098460405161050f91906142f4565b908152602001604051809103902080546105289061433a565b90501461056a576040517f08c379a0000000000000000000000000000000000000000000000000000000008152600401610561906143b7565b60405180910390fd5b600083334260405160200161058193929190614440565b604051602081830303815290604052805190602001209050600160008154809291906105ac906144a8565b91905055506040518060a001604052808281526020018581526020013373ffffffffffffffffffffffffffffffffffffffff1681526020016000151581526020018481525060056000838152602001908152602001600020600082015181600001556020820151816001019081610623919061469c565b5060408201518160020160006101000a81548173ffffffffffffffffffffffffffffffffffffffff021916908373ffffffffffffffffffffffffffffffffffffffff16021790555060608201518160020160146101000a81548160ff02191690831515021790555060808201518160030190816106a0919061469c565b50905050600c60003373ffffffffffffffffffffffffffffffffffffffff1673ffffffffffffffffffffffffffffffffffffffff168152602001908152602001600020600560008381526020019081526020016000209080600181540180825580915050600190039060005260206000209060040201600090919091909150600082015481600001556001820181600101908161073d9190614784565b506002820160009054906101000a900473ffffffffffffffffffffffffffffffffffffffff168160020160006101000a81548173ffffffffffffffffffffffffffffffffffffffff021916908373ffffffffffffffffffffffffffffffffffffffff1602179055506002820160149054906101000a900460ff168160020160146101000a81548160ff021916908315150217905550600382018160030190816107e69190614784565b505050600360056000838152602001908152602001600020908060018154018082558091505060019003906000526020600020906004020160009091909190915060008201548160000155600182018160010190816108459190614784565b506002820160009054906101000a900473ffffffffffffffffffffffffffffffffffffffff168160020160006101000a81548173ffffffffffffffffffffffffffffffffffffffff021916908373ffffffffffffffffffffffffffffffffffffffff1602179055506002820160149054906101000a900460ff168160020160146101000a81548160ff021916908315150217905550600382018160030190816108ee9190614784565b5050508260098560405161090291906142f4565b9081526020016040518091039020908161091c919061469c565b503373ffffffffffffffffffffffffffffffffffffffff16817f197183793a3833cac582caf722bf57551339c54b88834a34a20ae31efec3f737868660405161096692919061486c565b60405180910390a38091505092915050565b60006001600381111561098e5761098d613a08565b5b600460003373ffffffffffffffffffffffffffffffffffffffff1673ffffffffffffffffffffffffffffffffffffffff16815260200190815260200160002060000160009054906101000a900460ff1660038111156109f0576109ef613a08565b5b14610a30576040517f08c379a0000000000000000000000000000000000000000000000000000000008152600401610a2790614298565b60405180910390fd5b3373ffffffffffffffffffffffffffffffffffffffff166005600084815260200190815260200160002060020160009054906101000a900473ffffffffffffffffffffffffffffffffffffffff1673ffffffffffffffffffffffffffffffffffffffff1614610ad4576040517f08c379a0000000000000000000000000000000000000000000000000000000008152600401610acb906148ef565b60405180910390fd5b6005600083815260200190815260200160002060020160149054906101000a900460ff16610b37576040517f08c379a0000000000000000000000000000000000000000000000000000000008152600401610b2e9061495b565b60405180910390fd5b6000848442604051602001610b4e9392919061497b565b6040516020818303038152906040528051906020012090506000853342600254604051602001610b8194939291906149b0565b60405160208183030381529060405280519060200120905060026000815480929190610bac906144a8565b91905055506040518061010001604052808281526020018781526020018581526020013373ffffffffffffffffffffffffffffffffffffffff1681526020013373ffffffffffffffffffffffffffffffffffffffff1681526020018681526020018381526020016000151581525060066000838152602001908152602001600020600082015181600001556020820151816001019081610c4c919061469c565b506040820151816002015560608201518160030160006101000a81548173ffffffffffffffffffffffffffffffffffffffff021916908373ffffffffffffffffffffffffffffffffffffffff16021790555060808201518160040160006101000a81548173ffffffffffffffffffffffffffffffffffffffff021916908373ffffffffffffffffffffffffffffffffffffffff16021790555060a0820151816005019081610cfa919061469c565b5060c0820151816006015560e08201518160070160006101000a81548160ff021916908315150217905550905050600d60003373ffffffffffffffffffffffffffffffffffffffff1673ffffffffffffffffffffffffffffffffffffffff1681526020019081526020016000206006600083815260200190815260200160002090806001815401808255809150506001900390600052602060002090600802016000909190919091506000820154816000015560018201816001019081610dc19190614784565b50600282015481600201556003820160009054906101000a900473ffffffffffffffffffffffffffffffffffffffff168160030160006101000a81548173ffffffffffffffffffffffffffffffffffffffff021916908373ffffffffffffffffffffffffffffffffffffffff1602179055506004820160009054906101000a900473ffffffffffffffffffffffffffffffffffffffff168160040160006101000a81548173ffffffffffffffffffffffffffffffffffffffff021916908373ffffffffffffffffffffffffffffffffffffffff16021790555060058201816005019081610eae9190614784565b50600682015481600601556007820160009054906101000a900460ff168160070160006101000a81548160ff021916908315150217905550505080600760008481526020019081526020016000208190555060086000828152602001908152602001600020339080600181540180825580915050600190039060005260206000200160009091909190916101000a81548173ffffffffffffffffffffffffffffffffffffffff021916908373ffffffffffffffffffffffffffffffffffffffff1602179055503373ffffffffffffffffffffffffffffffffffffffff16817f302f3a56907582208dff7a9cf9ab1d0eb59792f52abddd0b83be331f6b06161288878987604051610fc194939291906149fa565b60405180910390a381925050509392505050565b60025481565b60008173ffffffffffffffffffffffffffffffffffffffff1660008054906101000a900473ffffffffffffffffffffffffffffffffffffffff1673ffffffffffffffffffffffffffffffffffffffff16149050919050565b60606000600760008481526020019081526020016000205490506000801b8103611092576040517f08c379a000000000000000000000000000000000000000000000000000000000815260040161108990614a99565b60405180910390fd5b60006008600083815260200190815260200160002080548060200260200160405190810160405280929190818152602001828054801561112757602002820191906000526020600020905b8160009054906101000a900473ffffffffffffffffffffffffffffffffffffffff1673ffffffffffffffffffffffffffffffffffffffff16815260200190600101908083116110dd575b505050505090506000815167ffffffffffffffff81111561114b5761114a61362c565b5b60405190808252806020026020018201604052801561118457816020015b611171613505565b8152602001906001900390816111695790505b50905060005b825181101561127e576040518060400160405280600460008685815181106111b5576111b4614ab9565b5b602002602001015173ffffffffffffffffffffffffffffffffffffffff1673ffffffffffffffffffffffffffffffffffffffff16815260200190815260200160002060000160009054906101000a900460ff16600381111561121a57611219613a08565b5b815260200184838151811061123257611231614ab9565b5b602002602001015173ffffffffffffffffffffffffffffffffffffffff1681525082828151811061126657611265614ab9565b5b6020026020010181905250808060010191505061118a565b50809350505050919050565b606060008054906101000a900473ffffffffffffffffffffffffffffffffffffffff1673ffffffffffffffffffffffffffffffffffffffff163373ffffffffffffffffffffffffffffffffffffffff161461131a576040517f08c379a000000000000000000000000000000000000000000000000000000000815260040161131190614b5a565b60405180910390fd5b600060098360405161132c91906142f4565b908152602001604051809103902080546113459061433a565b905011611387576040517f08c379a000000000000000000000000000000000000000000000000000000000815260040161137e90614bc6565b60405180910390fd5b60098260405161139791906142f4565b908152602001604051809103902080546113b09061433a565b80601f01602080910402602001604051908101604052809291908181526020018280546113dc9061433a565b80156114295780601f106113fe57610100808354040283529160200191611429565b820191906000526020600020905b81548152906001019060200180831161140c57829003601f168201915b50505050509050919050565b60606003805480602002602001604051908101604052809291908181526020016000905b8282101561162a57838290600052602060002090600402016040518060a0016040529081600082015481526020016001820180546114969061433a565b80601f01602080910402602001604051908101604052809291908181526020018280546114c29061433a565b801561150f5780601f106114e45761010080835404028352916020019161150f565b820191906000526020600020905b8154815290600101906020018083116114f257829003601f168201915b505050505081526020016002820160009054906101000a900473ffffffffffffffffffffffffffffffffffffffff1673ffffffffffffffffffffffffffffffffffffffff1673ffffffffffffffffffffffffffffffffffffffff1681526020016002820160149054906101000a900460ff161515151581526020016003820180546115999061433a565b80601f01602080910402602001604051908101604052809291908181526020018280546115c59061433a565b80156116125780601f106115e757610100808354040283529160200191611612565b820191906000526020600020905b8154815290600101906020018083116115f557829003601f168201915b50505050508152505081526020019060010190611459565b50505050905090565b60008054906101000a900473ffffffffffffffffffffffffffffffffffffffff1673ffffffffffffffffffffffffffffffffffffffff163373ffffffffffffffffffffffffffffffffffffffff16146116c1576040517f08c379a00000000000000000000000000000000000000000000000000000000081526004016116b890614b5a565b60405180910390fd5b60006005600083815260200190815260200160002060020160009054906101000a900473ffffffffffffffffffffffffffffffffffffffff169050600073ffffffffffffffffffffffffffffffffffffffff168173ffffffffffffffffffffffffffffffffffffffff160361176b576040517f08c379a000000000000000000000000000000000000000000000000000000000815260040161176290614c32565b60405180910390fd5b6005600083815260200190815260200160002060020160149054906101000a900460ff166117ce576040517f08c379a00000000000000000000000000000000000000000000000000000000081526004016117c59061495b565b60405180910390fd5b60006005600084815260200190815260200160002060020160146101000a81548160ff0219169083151502179055506000600c60008373ffffffffffffffffffffffffffffffffffffffff1673ffffffffffffffffffffffffffffffffffffffff168152602001908152602001600020905060005b81805490508110156118c9578382828154811061186357611862614ab9565b5b906000526020600020906004020160000154036118bc57600082828154811061188f5761188e614ab9565b5b906000526020600020906004020160020160146101000a81548160ff0219169083151502179055506118c9565b8080600101915050611843565b506005600084815260200190815260200160002060020160009054906101000a900473ffffffffffffffffffffffffffffffffffffffff1673ffffffffffffffffffffffffffffffffffffffff16837ff682ed9be74fe5f483d7e3b151689dc6749856a3d6752cd44304b73bf871e86160405160405180910390a3505050565b6060600c60008373ffffffffffffffffffffffffffffffffffffffff1673ffffffffffffffffffffffffffffffffffffffff168152602001908152602001600020805480602002602001604051908101604052809291908181526020016000905b82821015611b7b57838290600052602060002090600402016040518060a0016040529081600082015481526020016001820180546119e79061433a565b80601f0160208091040260200160405190810160405280929190818152602001828054611a139061433a565b8015611a605780601f10611a3557610100808354040283529160200191611a60565b820191906000526020600020905b815481529060010190602001808311611a4357829003601f168201915b505050505081526020016002820160009054906101000a900473ffffffffffffffffffffffffffffffffffffffff1673ffffffffffffffffffffffffffffffffffffffff1673ffffffffffffffffffffffffffffffffffffffff1681526020016002820160149054906101000a900460ff16151515158152602001600382018054611aea9061433a565b80601f0160208091040260200160405190810160405280929190818152602001828054611b169061433a565b8015611b635780601f10611b3857610100808354040283529160200191611b63565b820191906000526020600020905b815481529060010190602001808311611b4657829003601f168201915b505050505081525050815260200190600101906119aa565b505050509050919050565b60008054906101000a900473ffffffffffffffffffffffffffffffffffffffff1673ffffffffffffffffffffffffffffffffffffffff163373ffffffffffffffffffffffffffffffffffffffff1614611c14576040517f08c379a0000000000000000000000000000000000000000000000000000000008152600401611c0b90614b5a565b60405180910390fd5b60006005600083815260200190815260200160002060020160009054906101000a900473ffffffffffffffffffffffffffffffffffffffff169050600073ffffffffffffffffffffffffffffffffffffffff168173ffffffffffffffffffffffffffffffffffffffff1603611cbe576040517f08c379a0000000000000000000000000000000000000000000000000000000008152600401611cb590614c32565b60405180910390fd5b60016005600084815260200190815260200160002060020160146101000a81548160ff0219169083151502179055506000600c60008373ffffffffffffffffffffffffffffffffffffffff1673ffffffffffffffffffffffffffffffffffffffff168152602001908152602001600020905060005b8180549050811015611db95783828281548110611d5357611d52614ab9565b5b90600052602060002090600402016000015403611dac576001828281548110611d7f57611d7e614ab9565b5b906000526020600020906004020160020160146101000a81548160ff021916908315150217905550611db9565b8080600101915050611d33565b506005600084815260200190815260200160002060020160009054906101000a900473ffffffffffffffffffffffffffffffffffffffff1673ffffffffffffffffffffffffffffffffffffffff16837f31bccd6eebc9f63638bd857e49ae8f36f261f75d8339a5c2d401cdbf2fcbe2f560405160405180910390a3505050565b600060076000838152602001908152602001600020549050600115156006600083815260200190815260200160002060070160009054906101000a900460ff16151503611ebb576040517f08c379a0000000000000000000000000000000000000000000000000000000008152600401611eb290614c9e565b60405180910390fd5b6000801b8103611f00576040517f08c379a0000000000000000000000000000000000000000000000000000000008152600401611ef790614a99565b60405180910390fd5b3373ffffffffffffffffffffffffffffffffffffffff166006600083815260200190815260200160002060040160009054906101000a900473ffffffffffffffffffffffffffffffffffffffff1673ffffffffffffffffffffffffffffffffffffffff1614611fa4576040517f08c379a0000000000000000000000000000000000000000000000000000000008152600401611f9b90614d30565b60405180910390fd5b600b600083815260200190815260200160002060000160149054906101000a900460ff16612007576040517f08c379a0000000000000000000000000000000000000000000000000000000008152600401611ffe90614d9c565b60405180910390fd5b6000600b600084815260200190815260200160002060000160009054906101000a900473ffffffffffffffffffffffffffffffffffffffff169050806006600084815260200190815260200160002060040160006101000a81548173ffffffffffffffffffffffffffffffffffffffff021916908373ffffffffffffffffffffffffffffffffffffffff16021790555060086000838152602001908152602001600020819080600181540180825580915050600190039060005260206000200160009091909190916101000a81548173ffffffffffffffffffffffffffffffffffffffff021916908373ffffffffffffffffffffffffffffffffffffffff1602179055506000600b600085815260200190815260200160002060000160146101000a81548160ff0219169083151502179055506000600d60006006600086815260200190815260200160002060030160009054906101000a900473ffffffffffffffffffffffffffffffffffffffff1673ffffffffffffffffffffffffffffffffffffffff1673ffffffffffffffffffffffffffffffffffffffff16815260200190815260200160002090506003808111156121c6576121c5613a08565b5b600460008473ffffffffffffffffffffffffffffffffffffffff1673ffffffffffffffffffffffffffffffffffffffff16815260200190815260200160002060000160009054906101000a900460ff16600381111561222857612227613a08565b5b036122fd5760016006600085815260200190815260200160002060070160006101000a81548160ff02191690831515021790555060005b6002548110156122e3578382828154811061227d5761227c614ab9565b5b906000526020600020906008020160000154036122d65760018282815481106122a9576122a8614ab9565b5b906000526020600020906008020160070160006101000a81548160ff0219169083151502179055506122e3565b808060010191505061225f565b50600260008154809291906122f790614dbc565b91905055505b8173ffffffffffffffffffffffffffffffffffffffff163373ffffffffffffffffffffffffffffffffffffffff16847f62fb20063525870511d590a85718d4f5824652d140cdd8e33aba11b0667815998760405161235b91906137e8565b60405180910390a450505050565b60606000600d60008473ffffffffffffffffffffffffffffffffffffffff1673ffffffffffffffffffffffffffffffffffffffff168152602001908152602001600020805480602002602001604051908101604052809291908181526020016000905b828210156126085783829060005260206000209060080201604051806101000160405290816000820154815260200160018201805461240a9061433a565b80601f01602080910402602001604051908101604052809291908181526020018280546124369061433a565b80156124835780601f1061245857610100808354040283529160200191612483565b820191906000526020600020905b81548152906001019060200180831161246657829003601f168201915b50505050508152602001600282015481526020016003820160009054906101000a900473ffffffffffffffffffffffffffffffffffffffff1673ffffffffffffffffffffffffffffffffffffffff1673ffffffffffffffffffffffffffffffffffffffff1681526020016004820160009054906101000a900473ffffffffffffffffffffffffffffffffffffffff1673ffffffffffffffffffffffffffffffffffffffff1673ffffffffffffffffffffffffffffffffffffffff1681526020016005820180546125529061433a565b80601f016020809104026020016040519081016040528092919081815260200182805461257e9061433a565b80156125cb5780601f106125a0576101008083540402835291602001916125cb565b820191906000526020600020905b8154815290600101906020018083116125ae57829003601f168201915b50505050508152602001600682015481526020016007820160009054906101000a900460ff161515151581525050815260200190600101906123cc565b50505050905080915050919050565b61261f613547565b6000600760008481526020019081526020016000205490506000801b810361267c576040517f08c379a000000000000000000000000000000000000000000000000000000000815260040161267390614a99565b60405180910390fd5b6006600082815260200190815260200160002060405180610100016040529081600082015481526020016001820180546126b59061433a565b80601f01602080910402602001604051908101604052809291908181526020018280546126e19061433a565b801561272e5780601f106127035761010080835404028352916020019161272e565b820191906000526020600020905b81548152906001019060200180831161271157829003601f168201915b50505050508152602001600282015481526020016003820160009054906101000a900473ffffffffffffffffffffffffffffffffffffffff1673ffffffffffffffffffffffffffffffffffffffff1673ffffffffffffffffffffffffffffffffffffffff1681526020016004820160009054906101000a900473ffffffffffffffffffffffffffffffffffffffff1673ffffffffffffffffffffffffffffffffffffffff1673ffffffffffffffffffffffffffffffffffffffff1681526020016005820180546127fd9061433a565b80601f01602080910402602001604051908101604052809291908181526020018280546128299061433a565b80156128765780601f1061284b57610100808354040283529160200191612876565b820191906000526020600020905b81548152906001019060200180831161285957829003601f168201915b50505050508152602001600682015481526020016007820160009054906101000a900460ff161515151581525050915050919050565b6000806009836040516128bf91906142f4565b908152602001604051809103902080546128d89061433a565b9050119050919050565b60015481565b6128f06135c3565b6000600381111561290457612903613a08565b5b600460008473ffffffffffffffffffffffffffffffffffffffff1673ffffffffffffffffffffffffffffffffffffffff16815260200190815260200160002060000160009054906101000a900460ff16600381111561296657612965613a08565b5b036129a6576040517f08c379a000000000000000000000000000000000000000000000000000000000815260040161299d90614e31565b60405180910390fd5b600460008373ffffffffffffffffffffffffffffffffffffffff1673ffffffffffffffffffffffffffffffffffffffff1681526020019081526020016000206040518060800160405290816000820160009054906101000a900460ff166003811115612a1557612a14613a08565b5b6003811115612a2757612a26613a08565b5b8152602001600182018054612a3b9061433a565b80601f0160208091040260200160405190810160405280929190818152602001828054612a679061433a565b8015612ab45780601f10612a8957610100808354040283529160200191612ab4565b820191906000526020600020905b815481529060010190602001808311612a9757829003601f168201915b50505050508152602001600282018054612acd9061433a565b80601f0160208091040260200160405190810160405280929190818152602001828054612af99061433a565b8015612b465780601f10612b1b57610100808354040283529160200191612b46565b820191906000526020600020905b815481529060010190602001808311612b2957829003601f168201915b50505050508152602001600382018054612b5f9061433a565b80601f0160208091040260200160405190810160405280929190818152602001828054612b8b9061433a565b8015612bd85780601f10612bad57610100808354040283529160200191612bd8565b820191906000526020600020905b815481529060010190602001808311612bbb57829003601f168201915b5050505050815250509050919050565b60006003811115612bfc57612bfb613a08565b5b600460003373ffffffffffffffffffffffffffffffffffffffff1673ffffffffffffffffffffffffffffffffffffffff16815260200190815260200160002060000160009054906101000a900460ff166003811115612c5e57612c5d613a08565b5b03612c9e576040517f08c379a0000000000000000000000000000000000000000000000000000000008152600401612c9590614e9d565b60405180910390fd5b600060076000838152602001908152602001600020549050600115156006600083815260200190815260200160002060070160009054906101000a900460ff16151503612d20576040517f08c379a0000000000000000000000000000000000000000000000000000000008152600401612d1790614c9e565b60405180910390fd5b6000801b8103612d65576040517f08c379a0000000000000000000000000000000000000000000000000000000008152600401612d5c90614a99565b60405180910390fd5b3373ffffffffffffffffffffffffffffffffffffffff166006600083815260200190815260200160002060040160009054906101000a900473ffffffffffffffffffffffffffffffffffffffff1673ffffffffffffffffffffffffffffffffffffffff1603612e09576040517f08c379a0000000000000000000000000000000000000000000000000000000008152600401612e0090614f2f565b60405180910390fd5b60405180604001604052803373ffffffffffffffffffffffffffffffffffffffff16815260200160011515815250600b600084815260200190815260200160002060008201518160000160006101000a81548173ffffffffffffffffffffffffffffffffffffffff021916908373ffffffffffffffffffffffffffffffffffffffff16021790555060208201518160000160146101000a81548160ff0219169083151502179055509050506006600082815260200190815260200160002060040160009054906101000a900473ffffffffffffffffffffffffffffffffffffffff1673ffffffffffffffffffffffffffffffffffffffff163373ffffffffffffffffffffffffffffffffffffffff16827f9dd89f7800fe863325d636a8bdb515f54a52013476f7d39647f61a250c80688d85604051612f4891906137e8565b60405180910390a45050565b60006003811115612f6857612f67613a08565b5b600460003373ffffffffffffffffffffffffffffffffffffffff1673ffffffffffffffffffffffffffffffffffffffff16815260200190815260200160002060000160009054906101000a900460ff166003811115612fca57612fc9613a08565b5b1461300a576040517f08c379a000000000000000000000000000000000000000000000000000000000815260040161300190614f9b565b60405180910390fd5b600073ffffffffffffffffffffffffffffffffffffffff16600a8360405161303291906142f4565b908152602001604051809103902060009054906101000a900473ffffffffffffffffffffffffffffffffffffffff1673ffffffffffffffffffffffffffffffffffffffff16146130b7576040517f08c379a00000000000000000000000000000000000000000000000000000000081526004016130ae90615007565b60405180910390fd5b60405180608001604052808560038111156130d5576130d4613a08565b5b815260200184815260200183815260200182815250600460003373ffffffffffffffffffffffffffffffffffffffff1673ffffffffffffffffffffffffffffffffffffffff16815260200190815260200160002060008201518160000160006101000a81548160ff0219169083600381111561315457613153613a08565b5b0217905550602082015181600101908161316e919061469c565b506040820151816002019081613184919061469c565b50606082015181600301908161319a919061469c565b5090505033600a836040516131af91906142f4565b908152602001604051809103902060006101000a81548173ffffffffffffffffffffffffffffffffffffffff021916908373ffffffffffffffffffffffffffffffffffffffff1602179055503373ffffffffffffffffffffffffffffffffffffffff167fef01cf7b3c5d8be18fef6a3a019d98760533af73932fa5b4d3a4b2c3b5651aa1858585856040516132479493929190615036565b60405180910390a250505050565b600080600760008481526020019081526020016000205490506000801b81036132b3576040517f08c379a00000000000000000000000000000000000000000000000000000000081526004016132aa90614a99565b60405180910390fd5b60006008600083815260200190815260200160002080548060200260200160405190810160405280929190818152602001828054801561334857602002820191906000526020600020905b8160009054906101000a900473ffffffffffffffffffffffffffffffffffffffff1673ffffffffffffffffffffffffffffffffffffffff16815260200190600101908083116132fe575b505050505090506000805b82518110156134d557600160038111156133705761336f613a08565b5b6004600085848151811061338757613386614ab9565b5b602002602001015173ffffffffffffffffffffffffffffffffffffffff1673ffffffffffffffffffffffffffffffffffffffff16815260200190815260200160002060000160009054906101000a900460ff1660038111156133ec576133eb613a08565b5b036134c85760006006600086815260200190815260200160002060020154905083828151811061341f5761341e614ab9565b5b602002602001015173ffffffffffffffffffffffffffffffffffffffff166005600083815260200190815260200160002060020160009054906101000a900473ffffffffffffffffffffffffffffffffffffffff1673ffffffffffffffffffffffffffffffffffffffff161480156134b757506005600082815260200190815260200160002060020160149054906101000a900460ff165b156134c65760019250506134d5565b505b8080600101915050613353565b50809350505050919050565b60008054906101000a900473ffffffffffffffffffffffffffffffffffffffff1681565b60405180604001604052806000600381111561352457613523613a08565b5b8152602001600073ffffffffffffffffffffffffffffffffffffffff1681525090565b604051806101000160405280600080191681526020016060815260200160008019168152602001600073ffffffffffffffffffffffffffffffffffffffff168152602001600073ffffffffffffffffffffffffffffffffffffffff16815260200160608152602001600080191681526020016000151581525090565b6040518060800160405280600060038111156135e2576135e1613a08565b5b81526020016060815260200160608152602001606081525090565b6000604051905090565b600080fd5b600080fd5b600080fd5b600080fd5b6000601f19601f8301169050919050565b7f4e487b7100000000000000000000000000000000000000000000000000000000600052604160045260246000fd5b6136648261361b565b810181811067ffffffffffffffff821117156136835761368261362c565b5b80604052505050565b60006136966135fd565b90506136a2828261365b565b919050565b600067ffffffffffffffff8211156136c2576136c161362c565b5b6136cb8261361b565b9050602081019050919050565b82818337600083830152505050565b60006136fa6136f5846136a7565b61368c565b90508281526020810184848401111561371657613715613616565b5b6137218482856136d8565b509392505050565b600082601f83011261373e5761373d613611565b5b813561374e8482602086016136e7565b91505092915050565b6000806040838503121561376e5761376d613607565b5b600083013567ffffffffffffffff81111561378c5761378b61360c565b5b61379885828601613729565b925050602083013567ffffffffffffffff8111156137b9576137b861360c565b5b6137c585828601613729565b9150509250929050565b6000819050919050565b6137e2816137cf565b82525050565b60006020820190506137fd60008301846137d9565b92915050565b61380c816137cf565b811461381757600080fd5b50565b60008135905061382981613803565b92915050565b60008060006060848603121561384857613847613607565b5b600084013567ffffffffffffffff8111156138665761386561360c565b5b61387286828701613729565b935050602084013567ffffffffffffffff8111156138935761389261360c565b5b61389f86828701613729565b92505060406138b08682870161381a565b9150509250925092565b6000819050919050565b6138cd816138ba565b82525050565b60006020820190506138e860008301846138c4565b92915050565b600073ffffffffffffffffffffffffffffffffffffffff82169050919050565b6000613919826138ee565b9050919050565b6139298161390e565b811461393457600080fd5b50565b60008135905061394681613920565b92915050565b60006020828403121561396257613961613607565b5b600061397084828501613937565b91505092915050565b60008115159050919050565b61398e81613979565b82525050565b60006020820190506139a96000830184613985565b92915050565b6000602082840312156139c5576139c4613607565b5b60006139d38482850161381a565b91505092915050565b600081519050919050565b600082825260208201905092915050565b6000819050602082019050919050565b7f4e487b7100000000000000000000000000000000000000000000000000000000600052602160045260246000fd5b60048110613a4857613a47613a08565b5b50565b6000819050613a5982613a37565b919050565b6000613a6982613a4b565b9050919050565b613a7981613a5e565b82525050565b613a888161390e565b82525050565b604082016000820151613aa46000850182613a70565b506020820151613ab76020850182613a7f565b50505050565b6000613ac98383613a8e565b60408301905092915050565b6000602082019050919050565b6000613aed826139dc565b613af781856139e7565b9350613b02836139f8565b8060005b83811015613b33578151613b1a8882613abd565b9750613b2583613ad5565b925050600181019050613b06565b5085935050505092915050565b60006020820190508181036000830152613b5a8184613ae2565b905092915050565b600060208284031215613b7857613b77613607565b5b600082013567ffffffffffffffff811115613b9657613b9561360c565b5b613ba284828501613729565b91505092915050565b600081519050919050565b600082825260208201905092915050565b60005b83811015613be5578082015181840152602081019050613bca565b60008484015250505050565b6000613bfc82613bab565b613c068185613bb6565b9350613c16818560208601613bc7565b613c1f8161361b565b840191505092915050565b60006020820190508181036000830152613c448184613bf1565b905092915050565b600081519050919050565b600082825260208201905092915050565b6000819050602082019050919050565b613c81816137cf565b82525050565b600082825260208201905092915050565b6000613ca382613bab565b613cad8185613c87565b9350613cbd818560208601613bc7565b613cc68161361b565b840191505092915050565b613cda81613979565b82525050565b600060a083016000830151613cf86000860182613c78565b5060208301518482036020860152613d108282613c98565b9150506040830151613d256040860182613a7f565b506060830151613d386060860182613cd1565b5060808301518482036080860152613d508282613c98565b9150508091505092915050565b6000613d698383613ce0565b905092915050565b6000602082019050919050565b6000613d8982613c4c565b613d938185613c57565b935083602082028501613da585613c68565b8060005b85811015613de15784840389528151613dc28582613d5d565b9450613dcd83613d71565b925060208a01995050600181019050613da9565b50829750879550505050505092915050565b60006020820190508181036000830152613e0d8184613d7e565b905092915050565b600081519050919050565b600082825260208201905092915050565b6000819050602082019050919050565b600061010083016000830151613e5a6000860182613c78565b5060208301518482036020860152613e728282613c98565b9150506040830151613e876040860182613c78565b506060830151613e9a6060860182613a7f565b506080830151613ead6080860182613a7f565b5060a083015184820360a0860152613ec58282613c98565b91505060c0830151613eda60c0860182613c78565b5060e0830151613eed60e0860182613cd1565b508091505092915050565b6000613f048383613e41565b905092915050565b6000602082019050919050565b6000613f2482613e15565b613f2e8185613e20565b935083602082028501613f4085613e31565b8060005b85811015613f7c5784840389528151613f5d8582613ef8565b9450613f6883613f0c565b925060208a01995050600181019050613f44565b50829750879550505050505092915050565b60006020820190508181036000830152613fa88184613f19565b905092915050565b600061010083016000830151613fc96000860182613c78565b5060208301518482036020860152613fe18282613c98565b9150506040830151613ff66040860182613c78565b5060608301516140096060860182613a7f565b50608083015161401c6080860182613a7f565b5060a083015184820360a08601526140348282613c98565b91505060c083015161404960c0860182613c78565b5060e083015161405c60e0860182613cd1565b508091505092915050565b600060208201905081810360008301526140818184613fb0565b905092915050565b60006080830160008301516140a16000860182613a70565b50602083015184820360208601526140b98282613c98565b915050604083015184820360408601526140d38282613c98565b915050606083015184820360608601526140ed8282613c98565b9150508091505092915050565b600060208201905081810360008301526141148184614089565b905092915050565b6004811061412957600080fd5b50565b60008135905061413b8161411c565b92915050565b6000806000806080858703121561415b5761415a613607565b5b60006141698782880161412c565b945050602085013567ffffffffffffffff81111561418a5761418961360c565b5b61419687828801613729565b935050604085013567ffffffffffffffff8111156141b7576141b661360c565b5b6141c387828801613729565b925050606085013567ffffffffffffffff8111156141e4576141e361360c565b5b6141f087828801613729565b91505092959194509250565b6142058161390e565b82525050565b600060208201905061422060008301846141fc565b92915050565b7f4f6e6c79206d616e756661637475726572732063616e20706572666f726d207460008201527f68697320616374696f6e00000000000000000000000000000000000000000000602082015250565b6000614282602a83613bb6565b915061428d82614226565b604082019050919050565b600060208201905081810360008301526142b181614275565b9050919050565b600081905092915050565b60006142ce82613bab565b6142d881856142b8565b93506142e8818560208601613bc7565b80840191505092915050565b600061430082846142c3565b915081905092915050565b7f4e487b7100000000000000000000000000000000000000000000000000000000600052602260045260246000fd5b6000600282049050600182168061435257607f821691505b6020821081036143655761436461430b565b5b50919050565b7f4272616e6420616c726561647920726567697374657265642100000000000000600082015250565b60006143a1601983613bb6565b91506143ac8261436b565b602082019050919050565b600060208201905081810360008301526143d081614394565b9050919050565b60008160601b9050919050565b60006143ef826143d7565b9050919050565b6000614401826143e4565b9050919050565b6144196144148261390e565b6143f6565b82525050565b6000819050919050565b61443a614435826138ba565b61441f565b82525050565b600061444c82866142c3565b91506144588285614408565b6014820191506144688284614429565b602082019150819050949350505050565b7f4e487b7100000000000000000000000000000000000000000000000000000000600052601160045260246000fd5b60006144b3826138ba565b91507fffffffffffffffffffffffffffffffffffffffffffffffffffffffffffffffff82036144e5576144e4614479565b5b600182019050919050565b60008190508160005260206000209050919050565b60006020601f8301049050919050565b600082821b905092915050565b6000600883026145527fffffffffffffffffffffffffffffffffffffffffffffffffffffffffffffffff82614515565b61455c8683614515565b95508019841693508086168417925050509392505050565b6000819050919050565b600061459961459461458f846138ba565b614574565b6138ba565b9050919050565b6000819050919050565b6145b38361457e565b6145c76145bf826145a0565b848454614522565b825550505050565b600090565b6145dc6145cf565b6145e78184846145aa565b505050565b5b8181101561460b576146006000826145d4565b6001810190506145ed565b5050565b601f82111561465057614621816144f0565b61462a84614505565b81016020851015614639578190505b61464d61464585614505565b8301826145ec565b50505b505050565b600082821c905092915050565b600061467360001984600802614655565b1980831691505092915050565b600061468c8383614662565b9150826002028217905092915050565b6146a582613bab565b67ffffffffffffffff8111156146be576146bd61362c565b5b6146c8825461433a565b6146d382828561460f565b600060209050601f83116001811461470657600084156146f4578287015190505b6146fe8582614680565b865550614766565b601f198416614714866144f0565b60005b8281101561473c57848901518255600182019150602085019450602081019050614717565b868310156147595784890151614755601f891682614662565b8355505b6001600288020188555050505b505050505050565b60008154905061477d8161433a565b9050919050565b81810361479257505061486a565b61479b8261476e565b67ffffffffffffffff8111156147b4576147b361362c565b5b6147be825461433a565b6147c982828561460f565b6000601f8311600181146147f857600084156147e6578287015490505b6147f08582614680565b865550614863565b601f198416614806876144f0565b9650614811866144f0565b60005b8281101561483957848901548255600182019150600185019450602081019050614814565b868310156148565784890154614852601f891682614662565b8355505b6001600288020188555050505b5050505050505b565b600060408201905081810360008301526148868185613bf1565b9050818103602083015261489a8184613bf1565b90509392505050565b7f596f7520646f206e6f74206f776e2074686973206272616e6400000000000000600082015250565b60006148d9601983613bb6565b91506148e4826148a3565b602082019050919050565b60006020820190508181036000830152614908816148cc565b9050919050565b7f4272616e64206973206e6f742077686974656c69737465640000000000000000600082015250565b6000614945601883613bb6565b91506149508261490f565b602082019050919050565b6000602082019050818103600083015261497481614938565b9050919050565b600061498782866142c3565b915061499382856142c3565b915061499f8284614429565b602082019150819050949350505050565b60006149bc82876142c3565b91506149c88286614408565b6014820191506149d88285614429565b6020820191506149e88284614429565b60208201915081905095945050505050565b60006080820190508181036000830152614a148187613bf1565b9050614a2360208301866137d9565b8181036040830152614a358185613bf1565b9050614a4460608301846137d9565b95945050505050565b7f50726f64756374204e6f7420666f756e64000000000000000000000000000000600082015250565b6000614a83601183613bb6565b9150614a8e82614a4d565b602082019050919050565b60006020820190508181036000830152614ab281614a76565b9050919050565b7f4e487b7100000000000000000000000000000000000000000000000000000000600052603260045260246000fd5b7f4f6e6c792061646d696e2063616e20706572666f726d2074686973206163746960008201527f6f6e000000000000000000000000000000000000000000000000000000000000602082015250565b6000614b44602283613bb6565b9150614b4f82614ae8565b604082019050919050565b60006020820190508181036000830152614b7381614b37565b9050919050565b7f46696c65206e6f7420666f756e64000000000000000000000000000000000000600082015250565b6000614bb0600e83613bb6565b9150614bbb82614b7a565b602082019050919050565b60006020820190508181036000830152614bdf81614ba3565b9050919050565b7f4272616e6420646f6573206e6f74206578697374000000000000000000000000600082015250565b6000614c1c601483613bb6565b9150614c2782614be6565b602082019050919050565b60006020820190508181036000830152614c4b81614c0f565b9050919050565b7f546869732070726f6475637420686173206265656e2064656c69737465642100600082015250565b6000614c88601f83613bb6565b9150614c9382614c52565b602082019050919050565b60006020820190508181036000830152614cb781614c7b565b9050919050565b7f4f6e6c79207468652063757272656e74206f776e65722063616e20617070726f60008201527f766520746865207472616e736665720000000000000000000000000000000000602082015250565b6000614d1a602f83613bb6565b9150614d2582614cbe565b604082019050919050565b60006020820190508181036000830152614d4981614d0d565b9050919050565b7f4e6f2070656e64696e67206f776e657273686970207265717565737400000000600082015250565b6000614d86601c83613bb6565b9150614d9182614d50565b602082019050919050565b60006020820190508181036000830152614db581614d79565b9050919050565b6000614dc7826138ba565b915060008203614dda57614dd9614479565b5b600182039050919050565b7f4e6f2072656769737465726564207573657220666f756e640000000000000000600082015250565b6000614e1b601883613bb6565b9150614e2682614de5565b602082019050919050565b60006020820190508181036000830152614e4a81614e0e565b9050919050565b7f55736572206973206e6f74207265676973746572656400000000000000000000600082015250565b6000614e87601683613bb6565b9150614e9282614e51565b602082019050919050565b60006020820190508181036000830152614eb681614e7a565b9050919050565b7f43616e6e6f742072657175657374206f776e6572736869702066726f6d20796f60008201527f757273656c660000000000000000000000000000000000000000000000000000602082015250565b6000614f19602683613bb6565b9150614f2482614ebd565b604082019050919050565b60006020820190508181036000830152614f4881614f0c565b9050919050565b7f5573657220616c72656164792072656769737465726564000000000000000000600082015250565b6000614f85601783613bb6565b9150614f9082614f4f565b602082019050919050565b60006020820190508181036000830152614fb481614f78565b9050919050565b7f456d61696c20616c726561647920696e20757365000000000000000000000000600082015250565b6000614ff1601483613bb6565b9150614ffc82614fbb565b602082019050919050565b6000602082019050818103600083015261502081614fe4565b9050919050565b61503081613a5e565b82525050565b600060808201905061504b6000830187615027565b818103602083015261505d8186613bf1565b905081810360408301526150718185613bf1565b905081810360608301526150858184613bf1565b90509594505050505056fea2646970667358221220736c73670145d5d962e61434d115bda4a0a5b74cdd257740f8ff8c6e852e474964736f6c63430008180033",
  "linkReferences": {},
  "deployedLinkReferences": {}
}