{
  "_format": "hh-sol-artifact-1",
  "contractName": "AmazonSupplyChain",
  "sourceName": "contracts/AmazonSupplyChain.sol",
  "abi": [
    {
      "inputs": [],
      "stateMutability": "nonpayable",
      "type": "constructor"
    },
    {
      "anonymous": false,
      "inputs": [
        {
          "indexed": true,
          "internalType": "bytes32",
          "name": "brandId",
          "type": "bytes32"
        },
        {
          "indexed": false,
          "internalType": "string",
          "name": "name",
          "type": "string"
        },
        {
          "indexed": true,
          "internalType": "address",
          "name": "manufacturer",
          "type": "address"
        },
        {
          "indexed": false,
          "internalType": "string",
          "name": "logoIpfsHash",
          "type": "string"
        }
      ],
      "name": "BrandRegistered",
      "type": "event"
    },
    {
      "anonymous": false,
      "inputs": [
        {
          "indexed": true,
          "internalType": "bytes32",
          "name": "brandId",
          "type": "bytes32"
        },
        {
          "indexed": true,
          "internalType": "address",
          "name": "manufacturer",
          "type": "address"
        }
      ],
      "name": "BrandRemovedFromWhitelist",
      "type": "event"
    },
    {
      "anonymous": false,
      "inputs": [
        {
          "indexed": true,
          "internalType": "bytes32",
          "name": "brandId",
          "type": "bytes32"
        },
        {
          "indexed": true,
          "internalType": "address",
          "name": "manufacturer",
          "type": "address"
        }
      ],
      "name": "BrandWhitelisted",
      "type": "event"
    },
    {
      "anonymous": false,
      "inputs": [
        {
          "indexed": true,
          "internalType": "bytes32",
          "name": "productId",
          "type": "bytes32"
        },
        {
          "indexed": true,
          "internalType": "address",
          "name": "from",
          "type": "address"
        },
        {
          "indexed": true,
          "internalType": "address",
          "name": "to",
          "type": "address"
        },
        {
          "indexed": false,
          "internalType": "bytes32",
          "name": "uniqueHash",
          "type": "bytes32"
        }
      ],
      "name": "OwnershipRequested",
      "type": "event"
    },
    {
      "anonymous": false,
      "inputs": [
        {
          "indexed": true,
          "internalType": "bytes32",
          "name": "productId",
          "type": "bytes32"
        },
        {
          "indexed": true,
          "internalType": "address",
          "name": "from",
          "type": "address"
        },
        {
          "indexed": true,
          "internalType": "address",
          "name": "to",
          "type": "address"
        },
        {
          "indexed": false,
          "internalType": "bytes32",
          "name": "uniqueHash",
          "type": "bytes32"
        }
      ],
      "name": "OwnershipTransferred",
      "type": "event"
    },
    {
      "anonymous": false,
      "inputs": [
        {
          "indexed": true,
          "internalType": "bytes32",
          "name": "productId",
          "type": "bytes32"
        },
        {
          "indexed": false,
          "internalType": "string",
          "name": "name",
          "type": "string"
        },
        {
          "indexed": false,
          "internalType": "bytes32",
          "name": "brandId",
          "type": "bytes32"
        },
        {
          "indexed": true,
          "internalType": "address",
          "name": "manufacturer",
          "type": "address"
        },
        {
          "indexed": false,
          "internalType": "string",
          "name": "details",
          "type": "string"
        },
        {
          "indexed": false,
          "internalType": "bytes32",
          "name": "uniqueHash",
          "type": "bytes32"
        }
      ],
      "name": "ProductRegistered",
      "type": "event"
    },
    {
      "anonymous": false,
      "inputs": [
        {
          "indexed": true,
          "internalType": "bytes32",
          "name": "productId",
          "type": "bytes32"
        },
        {
          "indexed": true,
          "internalType": "address",
          "name": "verifier",
          "type": "address"
        }
      ],
      "name": "ProductVerified",
      "type": "event"
    },
    {
      "anonymous": false,
      "inputs": [
        {
          "indexed": true,
          "internalType": "address",
          "name": "user",
          "type": "address"
        },
        {
          "indexed": false,
          "internalType": "enum AmazonSupplyChain.Role",
          "name": "role",
          "type": "uint8"
        },
        {
          "indexed": false,
          "internalType": "string",
          "name": "name",
          "type": "string"
        },
        {
          "indexed": false,
          "internalType": "string",
          "name": "email",
          "type": "string"
        },
        {
          "indexed": false,
          "internalType": "string",
          "name": "phoneNumber",
          "type": "string"
        }
      ],
      "name": "UserRegistered",
      "type": "event"
    },
    {
      "inputs": [],
      "name": "admin",
      "outputs": [
        {
          "internalType": "address",
          "name": "",
          "type": "address"
        }
      ],
      "stateMutability": "view",
      "type": "function"
    },
    {
      "inputs": [
        {
          "internalType": "bytes32",
          "name": "_uniqueHash",
          "type": "bytes32"
        }
      ],
      "name": "approveOwnership",
      "outputs": [],
      "stateMutability": "nonpayable",
      "type": "function"
    },
    {
      "inputs": [],
      "name": "brandCounter",
      "outputs": [
        {
          "internalType": "uint256",
          "name": "",
          "type": "uint256"
        }
      ],
      "stateMutability": "view",
      "type": "function"
    },
    {
      "inputs": [],
      "name": "getAllBrands",
      "outputs": [
        {
          "components": [
            {
              "internalType": "bytes32",
              "name": "id",
              "type": "bytes32"
            },
            {
              "internalType": "string",
              "name": "name",
              "type": "string"
            },
            {
              "internalType": "address",
              "name": "manufacturer",
              "type": "address"
            },
            {
              "internalType": "bool",
              "name": "isWhitelisted",
              "type": "bool"
            },
            {
              "internalType": "string",
              "name": "logoIpfsHash",
              "type": "string"
            }
          ],
          "internalType": "struct AmazonSupplyChain.Brand[]",
          "name": "",
          "type": "tuple[]"
        }
      ],
      "stateMutability": "view",
      "type": "function"
    },
    {
      "inputs": [
        {
          "internalType": "address",
          "name": "_manufacturerAddress",
          "type": "address"
        }
      ],
      "name": "getAllManufacturerBrands",
      "outputs": [
        {
          "components": [
            {
              "internalType": "bytes32",
              "name": "id",
              "type": "bytes32"
            },
            {
              "internalType": "string",
              "name": "name",
              "type": "string"
            },
            {
              "internalType": "address",
              "name": "manufacturer",
              "type": "address"
            },
            {
              "internalType": "bool",
              "name": "isWhitelisted",
              "type": "bool"
            },
            {
              "internalType": "string",
              "name": "logoIpfsHash",
              "type": "string"
            }
          ],
          "internalType": "struct AmazonSupplyChain.Brand[]",
          "name": "",
          "type": "tuple[]"
        }
      ],
      "stateMutability": "view",
      "type": "function"
    },
    {
      "inputs": [
        {
          "internalType": "address",
          "name": "_manufacturerAddress",
          "type": "address"
        }
      ],
      "name": "getAllManufacturerProducts",
      "outputs": [
        {
          "components": [
            {
              "internalType": "bytes32",
              "name": "id",
              "type": "bytes32"
            },
            {
              "internalType": "string",
              "name": "name",
              "type": "string"
            },
            {
              "internalType": "bytes32",
              "name": "brandId",
              "type": "bytes32"
            },
            {
              "internalType": "address",
              "name": "manufacturer",
              "type": "address"
            },
            {
              "internalType": "address",
              "name": "currentOwner",
              "type": "address"
            },
            {
              "internalType": "string",
              "name": "details",
              "type": "string"
            },
            {
              "internalType": "bytes32",
              "name": "uniqueHash",
              "type": "bytes32"
            },
            {
              "internalType": "bool",
              "name": "delisted",
              "type": "bool"
            },
            {
              "internalType": "string",
              "name": "productImage",
              "type": "string"
            }
          ],
          "internalType": "struct AmazonSupplyChain.Product[]",
          "name": "",
          "type": "tuple[]"
        }
      ],
      "stateMutability": "view",
      "type": "function"
    },
    {
      "inputs": [
        {
          "internalType": "string",
          "name": "_brandName",
          "type": "string"
        }
      ],
      "name": "getIPFSHash",
      "outputs": [
        {
          "internalType": "string",
          "name": "",
          "type": "string"
        }
      ],
      "stateMutability": "view",
      "type": "function"
    },
    {
      "inputs": [
        {
          "internalType": "bytes32",
          "name": "_uniqueHash",
          "type": "bytes32"
        }
      ],
      "name": "getProductDetails",
      "outputs": [
        {
          "components": [
            {
              "internalType": "bytes32",
              "name": "id",
              "type": "bytes32"
            },
            {
              "internalType": "string",
              "name": "name",
              "type": "string"
            },
            {
              "internalType": "bytes32",
              "name": "brandId",
              "type": "bytes32"
            },
            {
              "internalType": "address",
              "name": "manufacturer",
              "type": "address"
            },
            {
              "internalType": "address",
              "name": "currentOwner",
              "type": "address"
            },
            {
              "internalType": "string",
              "name": "details",
              "type": "string"
            },
            {
              "internalType": "bytes32",
              "name": "uniqueHash",
              "type": "bytes32"
            },
            {
              "internalType": "bool",
              "name": "delisted",
              "type": "bool"
            },
            {
              "internalType": "string",
              "name": "productImage",
              "type": "string"
            }
          ],
          "internalType": "struct AmazonSupplyChain.Product",
          "name": "",
          "type": "tuple"
        }
      ],
      "stateMutability": "view",
      "type": "function"
    },
    {
      "inputs": [
        {
          "internalType": "bytes32",
          "name": "_uniqueHash",
          "type": "bytes32"
        }
      ],
      "name": "getProductOwners",
      "outputs": [
        {
          "components": [
            {
              "internalType": "enum AmazonSupplyChain.Role",
              "name": "role",
              "type": "uint8"
            },
            {
              "internalType": "address",
              "name": "ownerAddress",
              "type": "address"
            }
          ],
          "internalType": "struct AmazonSupplyChain.OwnerInfo[]",
          "name": "",
          "type": "tuple[]"
        }
      ],
      "stateMutability": "view",
      "type": "function"
    },
    {
      "inputs": [
        {
          "internalType": "address",
          "name": "_userAddress",
          "type": "address"
        }
      ],
      "name": "getUserDetails",
      "outputs": [
        {
          "components": [
            {
              "internalType": "enum AmazonSupplyChain.Role",
              "name": "role",
              "type": "uint8"
            },
            {
              "internalType": "string",
              "name": "name",
              "type": "string"
            },
            {
              "internalType": "string",
              "name": "email",
              "type": "string"
            },
            {
              "internalType": "string",
              "name": "phoneNumber",
              "type": "string"
            }
          ],
          "internalType": "struct AmazonSupplyChain.User",
          "name": "",
          "type": "tuple"
        }
      ],
      "stateMutability": "view",
      "type": "function"
    },
    {
      "inputs": [
        {
          "internalType": "address",
          "name": "_address",
          "type": "address"
        }
      ],
      "name": "isAdmin",
      "outputs": [
        {
          "internalType": "bool",
          "name": "",
          "type": "bool"
        }
      ],
      "stateMutability": "view",
      "type": "function"
    },
    {
      "inputs": [
        {
          "internalType": "string",
          "name": "_brandName",
          "type": "string"
        }
      ],
      "name": "isBrandStored",
      "outputs": [
        {
          "internalType": "bool",
          "name": "",
          "type": "bool"
        }
      ],
      "stateMutability": "view",
      "type": "function"
    },
    {
      "inputs": [],
      "name": "productCounter",
      "outputs": [
        {
          "internalType": "uint256",
          "name": "",
          "type": "uint256"
        }
      ],
      "stateMutability": "view",
      "type": "function"
    },
    {
      "inputs": [
        {
          "internalType": "string",
          "name": "_name",
          "type": "string"
        },
        {
          "internalType": "string",
          "name": "_logoIpfsHash",
          "type": "string"
        }
      ],
      "name": "registerBrand",
      "outputs": [
        {
          "internalType": "bytes32",
          "name": "",
          "type": "bytes32"
        }
      ],
      "stateMutability": "nonpayable",
      "type": "function"
    },
    {
      "inputs": [
        {
          "internalType": "string",
          "name": "_name",
          "type": "string"
        },
        {
          "internalType": "string",
          "name": "_details",
          "type": "string"
        },
        {
          "internalType": "bytes32",
          "name": "_brandId",
          "type": "bytes32"
        },
        {
          "internalType": "string",
          "name": "_image",
          "type": "string"
        }
      ],
      "name": "registerProduct",
      "outputs": [
        {
          "internalType": "bytes32",
          "name": "",
          "type": "bytes32"
        }
      ],
      "stateMutability": "nonpayable",
      "type": "function"
    },
    {
      "inputs": [
        {
          "internalType": "enum AmazonSupplyChain.Role",
          "name": "_role",
          "type": "uint8"
        },
        {
          "internalType": "string",
          "name": "_name",
          "type": "string"
        },
        {
          "internalType": "string",
          "name": "_email",
          "type": "string"
        },
        {
          "internalType": "string",
          "name": "_phoneNumber",
          "type": "string"
        }
      ],
      "name": "registerUser",
      "outputs": [],
      "stateMutability": "nonpayable",
      "type": "function"
    },
    {
      "inputs": [
        {
          "internalType": "bytes32",
          "name": "_brandId",
          "type": "bytes32"
        }
      ],
      "name": "removeWhitelistedBrand",
      "outputs": [],
      "stateMutability": "nonpayable",
      "type": "function"
    },
    {
      "inputs": [
        {
          "internalType": "bytes32",
          "name": "_uniqueHash",
          "type": "bytes32"
        }
      ],
      "name": "requestOwnership",
      "outputs": [],
      "stateMutability": "nonpayable",
      "type": "function"
    },
    {
      "inputs": [
        {
          "internalType": "bytes32",
          "name": "_uniqueHash",
          "type": "bytes32"
        }
      ],
      "name": "verifyProduct",
      "outputs": [
        {
          "internalType": "bool",
          "name": "",
          "type": "bool"
        }
      ],
      "stateMutability": "view",
      "type": "function"
    },
    {
      "inputs": [
        {
          "internalType": "bytes32",
          "name": "_brandId",
          "type": "bytes32"
        }
      ],
      "name": "whitelistBrand",
      "outputs": [],
      "stateMutability": "nonpayable",
      "type": "function"
    }
  ],
  "bytecode": "0x608060405234801561001057600080fd5b50336000806101000a81548173ffffffffffffffffffffffffffffffffffffffff021916908373ffffffffffffffffffffffffffffffffffffffff160217905550615502806100606000396000f3fe608060405234801561001057600080fd5b506004361061012c5760003560e01c80637bcbf1b1116100ad578063cc3d967b11610071578063cc3d967b1461038f578063df24e1bd146103bf578063e0f24312146103db578063eda45965146103f7578063f851a440146104275761012c565b80637bcbf1b1146102c5578063955f2c10146102e1578063b74d3fb514610311578063bde12f4714610341578063c7568eff146103715761012c565b80634a5f66c1116100f45780634a5f66c11461020f57806360e8ddb01461023f57806362db83811461025d5780636461835a14610279578063713cae10146102a95761012c565b80630ea33289146101315780631f16653b1461016157806324d7806c1461017f578063318451a8146101af578063324d8589146101df575b600080fd5b61014b60048036038101906101469190613abf565b610445565b6040516101589190613b50565b60405180910390f35b610169610978565b6040516101769190613b84565b60405180910390f35b61019960048036038101906101949190613bfd565b61097e565b6040516101a69190613c45565b60405180910390f35b6101c960048036038101906101c49190613c8c565b6109d6565b6040516101d69190613e1d565b60405180910390f35b6101f960048036038101906101f49190613e3f565b610c2d565b6040516102069190613b50565b60405180910390f35b61022960048036038101906102249190613efa565b6112de565b6040516102369190613fc2565b60405180910390f35b610247611489565b604051610254919061418b565b60405180910390f35b61027760048036038101906102729190613c8c565b611687565b005b610293600480360381019061028e9190613bfd565b611a2a565b6040516102a0919061418b565b60405180910390f35b6102c360048036038101906102be9190613c8c565b611c67565b005b6102df60048036038101906102da9190613c8c565b612011565b005b6102fb60048036038101906102f69190613bfd565b6125a6565b6040516103089190614342565b60405180910390f35b61032b60048036038101906103269190613c8c565b6128e6565b6040516103389190614437565b60405180910390f35b61035b60048036038101906103569190613efa565b612c0d565b6040516103689190613c45565b60405180910390f35b610379612c43565b6040516103869190613b84565b60405180910390f35b6103a960048036038101906103a49190613bfd565b612c49565b6040516103b691906144ca565b60405180910390f35b6103d960048036038101906103d49190613c8c565b612f49565b005b6103f560048036038101906103f09190614511565b6132b5565b005b610411600480360381019061040c9190613c8c565b6135b6565b60405161041e9190613c45565b60405180910390f35b61042f613842565b60405161043c91906145db565b60405180910390f35b60006001600381111561045b5761045a613ce5565b5b600460003373ffffffffffffffffffffffffffffffffffffffff1673ffffffffffffffffffffffffffffffffffffffff16815260200190815260200160002060000160009054906101000a900460ff1660038111156104bd576104bc613ce5565b5b146104fd576040517f08c379a00000000000000000000000000000000000000000000000000000000081526004016104f490614668565b60405180910390fd5b600060098460405161050f91906146c4565b908152602001604051809103902080546105289061470a565b90501461056a576040517f08c379a000000000000000000000000000000000000000000000000000000000815260040161056190614787565b60405180910390fd5b600083334260405160200161058193929190614810565b604051602081830303815290604052805190602001209050600160008154809291906105ac90614878565b91905055506040518060a001604052808281526020018581526020013373ffffffffffffffffffffffffffffffffffffffff16815260200160001515815260200184815250600560008381526020019081526020016000206000820151816000015560208201518160010190816106239190614a6c565b5060408201518160020160006101000a81548173ffffffffffffffffffffffffffffffffffffffff021916908373ffffffffffffffffffffffffffffffffffffffff16021790555060608201518160020160146101000a81548160ff02191690831515021790555060808201518160030190816106a09190614a6c565b50905050600c60003373ffffffffffffffffffffffffffffffffffffffff1673ffffffffffffffffffffffffffffffffffffffff168152602001908152602001600020600560008381526020019081526020016000209080600181540180825580915050600190039060005260206000209060040201600090919091909150600082015481600001556001820181600101908161073d9190614b54565b506002820160009054906101000a900473ffffffffffffffffffffffffffffffffffffffff168160020160006101000a81548173ffffffffffffffffffffffffffffffffffffffff021916908373ffffffffffffffffffffffffffffffffffffffff1602179055506002820160149054906101000a900460ff168160020160146101000a81548160ff021916908315150217905550600382018160030190816107e69190614b54565b505050600360056000838152602001908152602001600020908060018154018082558091505060019003906000526020600020906004020160009091909190915060008201548160000155600182018160010190816108459190614b54565b506002820160009054906101000a900473ffffffffffffffffffffffffffffffffffffffff168160020160006101000a81548173ffffffffffffffffffffffffffffffffffffffff021916908373ffffffffffffffffffffffffffffffffffffffff1602179055506002820160149054906101000a900460ff168160020160146101000a81548160ff021916908315150217905550600382018160030190816108ee9190614b54565b5050508260098560405161090291906146c4565b9081526020016040518091039020908161091c9190614a6c565b503373ffffffffffffffffffffffffffffffffffffffff16817f197183793a3833cac582caf722bf57551339c54b88834a34a20ae31efec3f7378686604051610966929190614c3c565b60405180910390a38091505092915050565b60025481565b60008173ffffffffffffffffffffffffffffffffffffffff1660008054906101000a900473ffffffffffffffffffffffffffffffffffffffff1673ffffffffffffffffffffffffffffffffffffffff16149050919050565b60606000600760008481526020019081526020016000205490506000801b8103610a35576040517f08c379a0000000000000000000000000000000000000000000000000000000008152600401610a2c90614cbf565b60405180910390fd5b600060086000838152602001908152602001600020805480602002602001604051908101604052809291908181526020018280548015610aca57602002820191906000526020600020905b8160009054906101000a900473ffffffffffffffffffffffffffffffffffffffff1673ffffffffffffffffffffffffffffffffffffffff1681526020019060010190808311610a80575b505050505090506000815167ffffffffffffffff811115610aee57610aed613994565b5b604051908082528060200260200182016040528015610b2757816020015b610b14613866565b815260200190600190039081610b0c5790505b50905060005b8251811015610c2157604051806040016040528060046000868581518110610b5857610b57614cdf565b5b602002602001015173ffffffffffffffffffffffffffffffffffffffff1673ffffffffffffffffffffffffffffffffffffffff16815260200190815260200160002060000160009054906101000a900460ff166003811115610bbd57610bbc613ce5565b5b8152602001848381518110610bd557610bd4614cdf565b5b602002602001015173ffffffffffffffffffffffffffffffffffffffff16815250828281518110610c0957610c08614cdf565b5b60200260200101819052508080600101915050610b2d565b50809350505050919050565b600060016003811115610c4357610c42613ce5565b5b600460003373ffffffffffffffffffffffffffffffffffffffff1673ffffffffffffffffffffffffffffffffffffffff16815260200190815260200160002060000160009054906101000a900460ff166003811115610ca557610ca4613ce5565b5b14610ce5576040517f08c379a0000000000000000000000000000000000000000000000000000000008152600401610cdc90614668565b60405180910390fd5b3373ffffffffffffffffffffffffffffffffffffffff166005600085815260200190815260200160002060020160009054906101000a900473ffffffffffffffffffffffffffffffffffffffff1673ffffffffffffffffffffffffffffffffffffffff1614610d89576040517f08c379a0000000000000000000000000000000000000000000000000000000008152600401610d8090614d5a565b60405180910390fd5b6005600084815260200190815260200160002060020160149054906101000a900460ff16610dec576040517f08c379a0000000000000000000000000000000000000000000000000000000008152600401610de390614dc6565b60405180910390fd5b6000858542604051602001610e0393929190614de6565b6040516020818303038152906040528051906020012090506000863342600254604051602001610e369493929190614e1b565b60405160208183030381529060405280519060200120905060026000815480929190610e6190614878565b91905055506040518061012001604052808281526020018881526020018681526020013373ffffffffffffffffffffffffffffffffffffffff1681526020013373ffffffffffffffffffffffffffffffffffffffff1681526020018781526020018381526020016000151581526020018581525060066000838152602001908152602001600020600082015181600001556020820151816001019081610f079190614a6c565b506040820151816002015560608201518160030160006101000a81548173ffffffffffffffffffffffffffffffffffffffff021916908373ffffffffffffffffffffffffffffffffffffffff16021790555060808201518160040160006101000a81548173ffffffffffffffffffffffffffffffffffffffff021916908373ffffffffffffffffffffffffffffffffffffffff16021790555060a0820151816005019081610fb59190614a6c565b5060c0820151816006015560e08201518160070160006101000a81548160ff021916908315150217905550610100820151816008019081610ff69190614a6c565b5090505083600e6000838152602001908152602001600020908161101a9190614a6c565b50600d60003373ffffffffffffffffffffffffffffffffffffffff1673ffffffffffffffffffffffffffffffffffffffff16815260200190815260200160002060066000838152602001908152602001600020908060018154018082558091505060019003906000526020600020906009020160009091909190915060008201548160000155600182018160010190816110b49190614b54565b50600282015481600201556003820160009054906101000a900473ffffffffffffffffffffffffffffffffffffffff168160030160006101000a81548173ffffffffffffffffffffffffffffffffffffffff021916908373ffffffffffffffffffffffffffffffffffffffff1602179055506004820160009054906101000a900473ffffffffffffffffffffffffffffffffffffffff168160040160006101000a81548173ffffffffffffffffffffffffffffffffffffffff021916908373ffffffffffffffffffffffffffffffffffffffff160217905550600582018160050190816111a19190614b54565b50600682015481600601556007820160009054906101000a900460ff168160070160006101000a81548160ff021916908315150217905550600882018160080190816111ed9190614b54565b50505080600760008481526020019081526020016000208190555060086000828152602001908152602001600020339080600181540180825580915050600190039060005260206000200160009091909190916101000a81548173ffffffffffffffffffffffffffffffffffffffff021916908373ffffffffffffffffffffffffffffffffffffffff1602179055503373ffffffffffffffffffffffffffffffffffffffff16817f302f3a56907582208dff7a9cf9ab1d0eb59792f52abddd0b83be331f6b06161289888a876040516112c99493929190614e65565b60405180910390a38192505050949350505050565b606060008054906101000a900473ffffffffffffffffffffffffffffffffffffffff1673ffffffffffffffffffffffffffffffffffffffff163373ffffffffffffffffffffffffffffffffffffffff161461136e576040517f08c379a000000000000000000000000000000000000000000000000000000000815260040161136590614f2a565b60405180910390fd5b600060098360405161138091906146c4565b908152602001604051809103902080546113999061470a565b9050116113db576040517f08c379a00000000000000000000000000000000000000000000000000000000081526004016113d290614f96565b60405180910390fd5b6009826040516113eb91906146c4565b908152602001604051809103902080546114049061470a565b80601f01602080910402602001604051908101604052809291908181526020018280546114309061470a565b801561147d5780601f106114525761010080835404028352916020019161147d565b820191906000526020600020905b81548152906001019060200180831161146057829003601f168201915b50505050509050919050565b60606003805480602002602001604051908101604052809291908181526020016000905b8282101561167e57838290600052602060002090600402016040518060a0016040529081600082015481526020016001820180546114ea9061470a565b80601f01602080910402602001604051908101604052809291908181526020018280546115169061470a565b80156115635780601f1061153857610100808354040283529160200191611563565b820191906000526020600020905b81548152906001019060200180831161154657829003601f168201915b505050505081526020016002820160009054906101000a900473ffffffffffffffffffffffffffffffffffffffff1673ffffffffffffffffffffffffffffffffffffffff1673ffffffffffffffffffffffffffffffffffffffff1681526020016002820160149054906101000a900460ff161515151581526020016003820180546115ed9061470a565b80601f01602080910402602001604051908101604052809291908181526020018280546116199061470a565b80156116665780601f1061163b57610100808354040283529160200191611666565b820191906000526020600020905b81548152906001019060200180831161164957829003601f168201915b505050505081525050815260200190600101906114ad565b50505050905090565b60008054906101000a900473ffffffffffffffffffffffffffffffffffffffff1673ffffffffffffffffffffffffffffffffffffffff163373ffffffffffffffffffffffffffffffffffffffff1614611715576040517f08c379a000000000000000000000000000000000000000000000000000000000815260040161170c90614f2a565b60405180910390fd5b60006005600083815260200190815260200160002060020160009054906101000a900473ffffffffffffffffffffffffffffffffffffffff169050600073ffffffffffffffffffffffffffffffffffffffff168173ffffffffffffffffffffffffffffffffffffffff16036117bf576040517f08c379a00000000000000000000000000000000000000000000000000000000081526004016117b690615002565b60405180910390fd5b6005600083815260200190815260200160002060020160149054906101000a900460ff16611822576040517f08c379a000000000000000000000000000000000000000000000000000000000815260040161181990614dc6565b60405180910390fd5b60006005600084815260200190815260200160002060020160146101000a81548160ff0219169083151502179055506000600c60008373ffffffffffffffffffffffffffffffffffffffff1673ffffffffffffffffffffffffffffffffffffffff168152602001908152602001600020905060005b6003805490508110156119205783600382815481106118b9576118b8614cdf565b5b90600052602060002090600402016000015403611913576000600382815481106118e6576118e5614cdf565b5b906000526020600020906004020160020160146101000a81548160ff021916908315150217905550611920565b8080600101915050611897565b5060005b81805490508110156119aa578382828154811061194457611943614cdf565b5b9060005260206000209060040201600001540361199d5760008282815481106119705761196f614cdf565b5b906000526020600020906004020160020160146101000a81548160ff0219169083151502179055506119aa565b8080600101915050611924565b506005600084815260200190815260200160002060020160009054906101000a900473ffffffffffffffffffffffffffffffffffffffff1673ffffffffffffffffffffffffffffffffffffffff16837ff682ed9be74fe5f483d7e3b151689dc6749856a3d6752cd44304b73bf871e86160405160405180910390a3505050565b6060600c60008373ffffffffffffffffffffffffffffffffffffffff1673ffffffffffffffffffffffffffffffffffffffff168152602001908152602001600020805480602002602001604051908101604052809291908181526020016000905b82821015611c5c57838290600052602060002090600402016040518060a001604052908160008201548152602001600182018054611ac89061470a565b80601f0160208091040260200160405190810160405280929190818152602001828054611af49061470a565b8015611b415780601f10611b1657610100808354040283529160200191611b41565b820191906000526020600020905b815481529060010190602001808311611b2457829003601f168201915b505050505081526020016002820160009054906101000a900473ffffffffffffffffffffffffffffffffffffffff1673ffffffffffffffffffffffffffffffffffffffff1673ffffffffffffffffffffffffffffffffffffffff1681526020016002820160149054906101000a900460ff16151515158152602001600382018054611bcb9061470a565b80601f0160208091040260200160405190810160405280929190818152602001828054611bf79061470a565b8015611c445780601f10611c1957610100808354040283529160200191611c44565b820191906000526020600020905b815481529060010190602001808311611c2757829003601f168201915b50505050508152505081526020019060010190611a8b565b505050509050919050565b60008054906101000a900473ffffffffffffffffffffffffffffffffffffffff1673ffffffffffffffffffffffffffffffffffffffff163373ffffffffffffffffffffffffffffffffffffffff1614611cf5576040517f08c379a0000000000000000000000000000000000000000000000000000000008152600401611cec90614f2a565b60405180910390fd5b60006005600083815260200190815260200160002060020160009054906101000a900473ffffffffffffffffffffffffffffffffffffffff169050600015156005600084815260200190815260200160002060020160149054906101000a900460ff16151514611d9a576040517f08c379a0000000000000000000000000000000000000000000000000000000008152600401611d919061506e565b60405180910390fd5b600073ffffffffffffffffffffffffffffffffffffffff168173ffffffffffffffffffffffffffffffffffffffff1603611e09576040517f08c379a0000000000000000000000000000000000000000000000000000000008152600401611e0090615002565b60405180910390fd5b60016005600084815260200190815260200160002060020160146101000a81548160ff0219169083151502179055506000600c60008373ffffffffffffffffffffffffffffffffffffffff1673ffffffffffffffffffffffffffffffffffffffff168152602001908152602001600020905060005b600380549050811015611f07578360038281548110611ea057611e9f614cdf565b5b90600052602060002090600402016000015403611efa57600160038281548110611ecd57611ecc614cdf565b5b906000526020600020906004020160020160146101000a81548160ff021916908315150217905550611f07565b8080600101915050611e7e565b5060005b8180549050811015611f915783828281548110611f2b57611f2a614cdf565b5b90600052602060002090600402016000015403611f84576001828281548110611f5757611f56614cdf565b5b906000526020600020906004020160020160146101000a81548160ff021916908315150217905550611f91565b8080600101915050611f0b565b506005600084815260200190815260200160002060020160009054906101000a900473ffffffffffffffffffffffffffffffffffffffff1673ffffffffffffffffffffffffffffffffffffffff16837f31bccd6eebc9f63638bd857e49ae8f36f261f75d8339a5c2d401cdbf2fcbe2f560405160405180910390a3505050565b600060076000838152602001908152602001600020549050600115156006600083815260200190815260200160002060070160009054906101000a900460ff16151503612093576040517f08c379a000000000000000000000000000000000000000000000000000000000815260040161208a906150da565b60405180910390fd5b6000801b81036120d8576040517f08c379a00000000000000000000000000000000000000000000000000000000081526004016120cf90614cbf565b60405180910390fd5b3373ffffffffffffffffffffffffffffffffffffffff166006600083815260200190815260200160002060040160009054906101000a900473ffffffffffffffffffffffffffffffffffffffff1673ffffffffffffffffffffffffffffffffffffffff161461217c576040517f08c379a00000000000000000000000000000000000000000000000000000000081526004016121739061516c565b60405180910390fd5b600b600083815260200190815260200160002060000160149054906101000a900460ff166121df576040517f08c379a00000000000000000000000000000000000000000000000000000000081526004016121d6906151d8565b60405180910390fd5b6000600b600084815260200190815260200160002060000160009054906101000a900473ffffffffffffffffffffffffffffffffffffffff169050806006600084815260200190815260200160002060040160006101000a81548173ffffffffffffffffffffffffffffffffffffffff021916908373ffffffffffffffffffffffffffffffffffffffff16021790555060086000838152602001908152602001600020819080600181540180825580915050600190039060005260206000200160009091909190916101000a81548173ffffffffffffffffffffffffffffffffffffffff021916908373ffffffffffffffffffffffffffffffffffffffff1602179055506000600b600085815260200190815260200160002060000160146101000a81548160ff0219169083151502179055506000600d60006006600086815260200190815260200160002060030160009054906101000a900473ffffffffffffffffffffffffffffffffffffffff1673ffffffffffffffffffffffffffffffffffffffff1673ffffffffffffffffffffffffffffffffffffffff168152602001908152602001600020905060038081111561239e5761239d613ce5565b5b600460008473ffffffffffffffffffffffffffffffffffffffff1673ffffffffffffffffffffffffffffffffffffffff16815260200190815260200160002060000160009054906101000a900460ff166003811115612400576123ff613ce5565b5b0361253a5760016006600085815260200190815260200160002060070160006101000a81548160ff02191690831515021790555060005b8180549050811015612520578382828154811061245757612456614cdf565b5b9060005260206000209060090201600001540361251357600182828154811061248357612482614cdf565b5b906000526020600020906009020160070160006101000a81548160ff021916908315150217905550828282815481106124bf576124be614cdf565b5b906000526020600020906009020160040160006101000a81548173ffffffffffffffffffffffffffffffffffffffff021916908373ffffffffffffffffffffffffffffffffffffffff160217905550612520565b8080600101915050612437565b5060026000815480929190612534906151f8565b91905055505b8173ffffffffffffffffffffffffffffffffffffffff163373ffffffffffffffffffffffffffffffffffffffff16847f62fb20063525870511d590a85718d4f5824652d140cdd8e33aba11b066781599876040516125989190613b50565b60405180910390a450505050565b60606000600d60008473ffffffffffffffffffffffffffffffffffffffff1673ffffffffffffffffffffffffffffffffffffffff168152602001908152602001600020805480602002602001604051908101604052809291908181526020016000905b828210156128d7578382906000526020600020906009020160405180610120016040529081600082015481526020016001820180546126479061470a565b80601f01602080910402602001604051908101604052809291908181526020018280546126739061470a565b80156126c05780601f10612695576101008083540402835291602001916126c0565b820191906000526020600020905b8154815290600101906020018083116126a357829003601f168201915b50505050508152602001600282015481526020016003820160009054906101000a900473ffffffffffffffffffffffffffffffffffffffff1673ffffffffffffffffffffffffffffffffffffffff1673ffffffffffffffffffffffffffffffffffffffff1681526020016004820160009054906101000a900473ffffffffffffffffffffffffffffffffffffffff1673ffffffffffffffffffffffffffffffffffffffff1673ffffffffffffffffffffffffffffffffffffffff16815260200160058201805461278f9061470a565b80601f01602080910402602001604051908101604052809291908181526020018280546127bb9061470a565b80156128085780601f106127dd57610100808354040283529160200191612808565b820191906000526020600020905b8154815290600101906020018083116127eb57829003601f168201915b50505050508152602001600682015481526020016007820160009054906101000a900460ff161515151581526020016008820180546128469061470a565b80601f01602080910402602001604051908101604052809291908181526020018280546128729061470a565b80156128bf5780601f10612894576101008083540402835291602001916128bf565b820191906000526020600020905b8154815290600101906020018083116128a257829003601f168201915b50505050508152505081526020019060010190612609565b50505050905080915050919050565b6128ee6138a8565b6000600760008481526020019081526020016000205490506000801b810361294b576040517f08c379a000000000000000000000000000000000000000000000000000000000815260040161294290614cbf565b60405180910390fd5b6006600082815260200190815260200160002060405180610120016040529081600082015481526020016001820180546129849061470a565b80601f01602080910402602001604051908101604052809291908181526020018280546129b09061470a565b80156129fd5780601f106129d2576101008083540402835291602001916129fd565b820191906000526020600020905b8154815290600101906020018083116129e057829003601f168201915b50505050508152602001600282015481526020016003820160009054906101000a900473ffffffffffffffffffffffffffffffffffffffff1673ffffffffffffffffffffffffffffffffffffffff1673ffffffffffffffffffffffffffffffffffffffff1681526020016004820160009054906101000a900473ffffffffffffffffffffffffffffffffffffffff1673ffffffffffffffffffffffffffffffffffffffff1673ffffffffffffffffffffffffffffffffffffffff168152602001600582018054612acc9061470a565b80601f0160208091040260200160405190810160405280929190818152602001828054612af89061470a565b8015612b455780601f10612b1a57610100808354040283529160200191612b45565b820191906000526020600020905b815481529060010190602001808311612b2857829003601f168201915b50505050508152602001600682015481526020016007820160009054906101000a900460ff16151515158152602001600882018054612b839061470a565b80601f0160208091040260200160405190810160405280929190818152602001828054612baf9061470a565b8015612bfc5780601f10612bd157610100808354040283529160200191612bfc565b820191906000526020600020905b815481529060010190602001808311612bdf57829003601f168201915b505050505081525050915050919050565b600080600983604051612c2091906146c4565b90815260200160405180910390208054612c399061470a565b9050119050919050565b60015481565b612c5161392b565b60006003811115612c6557612c64613ce5565b5b600460008473ffffffffffffffffffffffffffffffffffffffff1673ffffffffffffffffffffffffffffffffffffffff16815260200190815260200160002060000160009054906101000a900460ff166003811115612cc757612cc6613ce5565b5b03612d07576040517f08c379a0000000000000000000000000000000000000000000000000000000008152600401612cfe9061526d565b60405180910390fd5b600460008373ffffffffffffffffffffffffffffffffffffffff1673ffffffffffffffffffffffffffffffffffffffff1681526020019081526020016000206040518060800160405290816000820160009054906101000a900460ff166003811115612d7657612d75613ce5565b5b6003811115612d8857612d87613ce5565b5b8152602001600182018054612d9c9061470a565b80601f0160208091040260200160405190810160405280929190818152602001828054612dc89061470a565b8015612e155780601f10612dea57610100808354040283529160200191612e15565b820191906000526020600020905b815481529060010190602001808311612df857829003601f168201915b50505050508152602001600282018054612e2e9061470a565b80601f0160208091040260200160405190810160405280929190818152602001828054612e5a9061470a565b8015612ea75780601f10612e7c57610100808354040283529160200191612ea7565b820191906000526020600020905b815481529060010190602001808311612e8a57829003601f168201915b50505050508152602001600382018054612ec09061470a565b80601f0160208091040260200160405190810160405280929190818152602001828054612eec9061470a565b8015612f395780601f10612f0e57610100808354040283529160200191612f39565b820191906000526020600020905b815481529060010190602001808311612f1c57829003601f168201915b5050505050815250509050919050565b60006003811115612f5d57612f5c613ce5565b5b600460003373ffffffffffffffffffffffffffffffffffffffff1673ffffffffffffffffffffffffffffffffffffffff16815260200190815260200160002060000160009054906101000a900460ff166003811115612fbf57612fbe613ce5565b5b03612fff576040517f08c379a0000000000000000000000000000000000000000000000000000000008152600401612ff6906152d9565b60405180910390fd5b600060076000838152602001908152602001600020549050600115156006600083815260200190815260200160002060070160009054906101000a900460ff16151503613081576040517f08c379a0000000000000000000000000000000000000000000000000000000008152600401613078906150da565b60405180910390fd5b6000801b81036130c6576040517f08c379a00000000000000000000000000000000000000000000000000000000081526004016130bd90614cbf565b60405180910390fd5b3373ffffffffffffffffffffffffffffffffffffffff166006600083815260200190815260200160002060040160009054906101000a900473ffffffffffffffffffffffffffffffffffffffff1673ffffffffffffffffffffffffffffffffffffffff160361316a576040517f08c379a00000000000000000000000000000000000000000000000000000000081526004016131619061536b565b60405180910390fd5b60405180604001604052803373ffffffffffffffffffffffffffffffffffffffff16815260200160011515815250600b600084815260200190815260200160002060008201518160000160006101000a81548173ffffffffffffffffffffffffffffffffffffffff021916908373ffffffffffffffffffffffffffffffffffffffff16021790555060208201518160000160146101000a81548160ff0219169083151502179055509050506006600082815260200190815260200160002060040160009054906101000a900473ffffffffffffffffffffffffffffffffffffffff1673ffffffffffffffffffffffffffffffffffffffff163373ffffffffffffffffffffffffffffffffffffffff16827f9dd89f7800fe863325d636a8bdb515f54a52013476f7d39647f61a250c80688d856040516132a99190613b50565b60405180910390a45050565b600060038111156132c9576132c8613ce5565b5b600460003373ffffffffffffffffffffffffffffffffffffffff1673ffffffffffffffffffffffffffffffffffffffff16815260200190815260200160002060000160009054906101000a900460ff16600381111561332b5761332a613ce5565b5b1461336b576040517f08c379a0000000000000000000000000000000000000000000000000000000008152600401613362906153d7565b60405180910390fd5b600073ffffffffffffffffffffffffffffffffffffffff16600a8360405161339391906146c4565b908152602001604051809103902060009054906101000a900473ffffffffffffffffffffffffffffffffffffffff1673ffffffffffffffffffffffffffffffffffffffff1614613418576040517f08c379a000000000000000000000000000000000000000000000000000000000815260040161340f90615443565b60405180910390fd5b604051806080016040528085600381111561343657613435613ce5565b5b815260200184815260200183815260200182815250600460003373ffffffffffffffffffffffffffffffffffffffff1673ffffffffffffffffffffffffffffffffffffffff16815260200190815260200160002060008201518160000160006101000a81548160ff021916908360038111156134b5576134b4613ce5565b5b021790555060208201518160010190816134cf9190614a6c565b5060408201518160020190816134e59190614a6c565b5060608201518160030190816134fb9190614a6c565b5090505033600a8360405161351091906146c4565b908152602001604051809103902060006101000a81548173ffffffffffffffffffffffffffffffffffffffff021916908373ffffffffffffffffffffffffffffffffffffffff1602179055503373ffffffffffffffffffffffffffffffffffffffff167fef01cf7b3c5d8be18fef6a3a019d98760533af73932fa5b4d3a4b2c3b5651aa1858585856040516135a89493929190615472565b60405180910390a250505050565b600080600760008481526020019081526020016000205490506000801b8103613614576040517f08c379a000000000000000000000000000000000000000000000000000000000815260040161360b90614cbf565b60405180910390fd5b6000600860008381526020019081526020016000208054806020026020016040519081016040528092919081815260200182805480156136a957602002820191906000526020600020905b8160009054906101000a900473ffffffffffffffffffffffffffffffffffffffff1673ffffffffffffffffffffffffffffffffffffffff168152602001906001019080831161365f575b505050505090506000805b825181101561383657600160038111156136d1576136d0613ce5565b5b600460008584815181106136e8576136e7614cdf565b5b602002602001015173ffffffffffffffffffffffffffffffffffffffff1673ffffffffffffffffffffffffffffffffffffffff16815260200190815260200160002060000160009054906101000a900460ff16600381111561374d5761374c613ce5565b5b03613829576000600660008681526020019081526020016000206002015490508382815181106137805761377f614cdf565b5b602002602001015173ffffffffffffffffffffffffffffffffffffffff166005600083815260200190815260200160002060020160009054906101000a900473ffffffffffffffffffffffffffffffffffffffff1673ffffffffffffffffffffffffffffffffffffffff1614801561381857506005600082815260200190815260200160002060020160149054906101000a900460ff165b15613827576001925050613836565b505b80806001019150506136b4565b50809350505050919050565b60008054906101000a900473ffffffffffffffffffffffffffffffffffffffff1681565b60405180604001604052806000600381111561388557613884613ce5565b5b8152602001600073ffffffffffffffffffffffffffffffffffffffff1681525090565b604051806101200160405280600080191681526020016060815260200160008019168152602001600073ffffffffffffffffffffffffffffffffffffffff168152602001600073ffffffffffffffffffffffffffffffffffffffff1681526020016060815260200160008019168152602001600015158152602001606081525090565b60405180608001604052806000600381111561394a57613949613ce5565b5b81526020016060815260200160608152602001606081525090565b6000604051905090565b600080fd5b600080fd5b600080fd5b600080fd5b6000601f19601f8301169050919050565b7f4e487b7100000000000000000000000000000000000000000000000000000000600052604160045260246000fd5b6139cc82613983565b810181811067ffffffffffffffff821117156139eb576139ea613994565b5b80604052505050565b60006139fe613965565b9050613a0a82826139c3565b919050565b600067ffffffffffffffff821115613a2a57613a29613994565b5b613a3382613983565b9050602081019050919050565b82818337600083830152505050565b6000613a62613a5d84613a0f565b6139f4565b905082815260208101848484011115613a7e57613a7d61397e565b5b613a89848285613a40565b509392505050565b600082601f830112613aa657613aa5613979565b5b8135613ab6848260208601613a4f565b91505092915050565b60008060408385031215613ad657613ad561396f565b5b600083013567ffffffffffffffff811115613af457613af3613974565b5b613b0085828601613a91565b925050602083013567ffffffffffffffff811115613b2157613b20613974565b5b613b2d85828601613a91565b9150509250929050565b6000819050919050565b613b4a81613b37565b82525050565b6000602082019050613b656000830184613b41565b92915050565b6000819050919050565b613b7e81613b6b565b82525050565b6000602082019050613b996000830184613b75565b92915050565b600073ffffffffffffffffffffffffffffffffffffffff82169050919050565b6000613bca82613b9f565b9050919050565b613bda81613bbf565b8114613be557600080fd5b50565b600081359050613bf781613bd1565b92915050565b600060208284031215613c1357613c1261396f565b5b6000613c2184828501613be8565b91505092915050565b60008115159050919050565b613c3f81613c2a565b82525050565b6000602082019050613c5a6000830184613c36565b92915050565b613c6981613b37565b8114613c7457600080fd5b50565b600081359050613c8681613c60565b92915050565b600060208284031215613ca257613ca161396f565b5b6000613cb084828501613c77565b91505092915050565b600081519050919050565b600082825260208201905092915050565b6000819050602082019050919050565b7f4e487b7100000000000000000000000000000000000000000000000000000000600052602160045260246000fd5b60048110613d2557613d24613ce5565b5b50565b6000819050613d3682613d14565b919050565b6000613d4682613d28565b9050919050565b613d5681613d3b565b82525050565b613d6581613bbf565b82525050565b604082016000820151613d816000850182613d4d565b506020820151613d946020850182613d5c565b50505050565b6000613da68383613d6b565b60408301905092915050565b6000602082019050919050565b6000613dca82613cb9565b613dd48185613cc4565b9350613ddf83613cd5565b8060005b83811015613e10578151613df78882613d9a565b9750613e0283613db2565b925050600181019050613de3565b5085935050505092915050565b60006020820190508181036000830152613e378184613dbf565b905092915050565b60008060008060808587031215613e5957613e5861396f565b5b600085013567ffffffffffffffff811115613e7757613e76613974565b5b613e8387828801613a91565b945050602085013567ffffffffffffffff811115613ea457613ea3613974565b5b613eb087828801613a91565b9350506040613ec187828801613c77565b925050606085013567ffffffffffffffff811115613ee257613ee1613974565b5b613eee87828801613a91565b91505092959194509250565b600060208284031215613f1057613f0f61396f565b5b600082013567ffffffffffffffff811115613f2e57613f2d613974565b5b613f3a84828501613a91565b91505092915050565b600081519050919050565b600082825260208201905092915050565b60005b83811015613f7d578082015181840152602081019050613f62565b60008484015250505050565b6000613f9482613f43565b613f9e8185613f4e565b9350613fae818560208601613f5f565b613fb781613983565b840191505092915050565b60006020820190508181036000830152613fdc8184613f89565b905092915050565b600081519050919050565b600082825260208201905092915050565b6000819050602082019050919050565b61401981613b37565b82525050565b600082825260208201905092915050565b600061403b82613f43565b614045818561401f565b9350614055818560208601613f5f565b61405e81613983565b840191505092915050565b61407281613c2a565b82525050565b600060a0830160008301516140906000860182614010565b50602083015184820360208601526140a88282614030565b91505060408301516140bd6040860182613d5c565b5060608301516140d06060860182614069565b50608083015184820360808601526140e88282614030565b9150508091505092915050565b60006141018383614078565b905092915050565b6000602082019050919050565b600061412182613fe4565b61412b8185613fef565b93508360208202850161413d85614000565b8060005b85811015614179578484038952815161415a85826140f5565b945061416583614109565b925060208a01995050600181019050614141565b50829750879550505050505092915050565b600060208201905081810360008301526141a58184614116565b905092915050565b600081519050919050565b600082825260208201905092915050565b6000819050602082019050919050565b6000610120830160008301516141f26000860182614010565b506020830151848203602086015261420a8282614030565b915050604083015161421f6040860182614010565b5060608301516142326060860182613d5c565b5060808301516142456080860182613d5c565b5060a083015184820360a086015261425d8282614030565b91505060c083015161427260c0860182614010565b5060e083015161428560e0860182614069565b5061010083015184820361010086015261429f8282614030565b9150508091505092915050565b60006142b883836141d9565b905092915050565b6000602082019050919050565b60006142d8826141ad565b6142e281856141b8565b9350836020820285016142f4856141c9565b8060005b85811015614330578484038952815161431185826142ac565b945061431c836142c0565b925060208a019950506001810190506142f8565b50829750879550505050505092915050565b6000602082019050818103600083015261435c81846142cd565b905092915050565b60006101208301600083015161437d6000860182614010565b50602083015184820360208601526143958282614030565b91505060408301516143aa6040860182614010565b5060608301516143bd6060860182613d5c565b5060808301516143d06080860182613d5c565b5060a083015184820360a08601526143e88282614030565b91505060c08301516143fd60c0860182614010565b5060e083015161441060e0860182614069565b5061010083015184820361010086015261442a8282614030565b9150508091505092915050565b600060208201905081810360008301526144518184614364565b905092915050565b60006080830160008301516144716000860182613d4d565b50602083015184820360208601526144898282614030565b915050604083015184820360408601526144a38282614030565b915050606083015184820360608601526144bd8282614030565b9150508091505092915050565b600060208201905081810360008301526144e48184614459565b905092915050565b600481106144f957600080fd5b50565b60008135905061450b816144ec565b92915050565b6000806000806080858703121561452b5761452a61396f565b5b6000614539878288016144fc565b945050602085013567ffffffffffffffff81111561455a57614559613974565b5b61456687828801613a91565b935050604085013567ffffffffffffffff81111561458757614586613974565b5b61459387828801613a91565b925050606085013567ffffffffffffffff8111156145b4576145b3613974565b5b6145c087828801613a91565b91505092959194509250565b6145d581613bbf565b82525050565b60006020820190506145f060008301846145cc565b92915050565b7f4f6e6c79206d616e756661637475726572732063616e20706572666f726d207460008201527f68697320616374696f6e00000000000000000000000000000000000000000000602082015250565b6000614652602a83613f4e565b915061465d826145f6565b604082019050919050565b6000602082019050818103600083015261468181614645565b9050919050565b600081905092915050565b600061469e82613f43565b6146a88185614688565b93506146b8818560208601613f5f565b80840191505092915050565b60006146d08284614693565b915081905092915050565b7f4e487b7100000000000000000000000000000000000000000000000000000000600052602260045260246000fd5b6000600282049050600182168061472257607f821691505b602082108103614735576147346146db565b5b50919050565b7f4272616e6420616c726561647920726567697374657265642100000000000000600082015250565b6000614771601983613f4e565b915061477c8261473b565b602082019050919050565b600060208201905081810360008301526147a081614764565b9050919050565b60008160601b9050919050565b60006147bf826147a7565b9050919050565b60006147d1826147b4565b9050919050565b6147e96147e482613bbf565b6147c6565b82525050565b6000819050919050565b61480a61480582613b6b565b6147ef565b82525050565b600061481c8286614693565b915061482882856147d8565b60148201915061483882846147f9565b602082019150819050949350505050565b7f4e487b7100000000000000000000000000000000000000000000000000000000600052601160045260246000fd5b600061488382613b6b565b91507fffffffffffffffffffffffffffffffffffffffffffffffffffffffffffffffff82036148b5576148b4614849565b5b600182019050919050565b60008190508160005260206000209050919050565b60006020601f8301049050919050565b600082821b905092915050565b6000600883026149227fffffffffffffffffffffffffffffffffffffffffffffffffffffffffffffffff826148e5565b61492c86836148e5565b95508019841693508086168417925050509392505050565b6000819050919050565b600061496961496461495f84613b6b565b614944565b613b6b565b9050919050565b6000819050919050565b6149838361494e565b61499761498f82614970565b8484546148f2565b825550505050565b600090565b6149ac61499f565b6149b781848461497a565b505050565b5b818110156149db576149d06000826149a4565b6001810190506149bd565b5050565b601f821115614a20576149f1816148c0565b6149fa846148d5565b81016020851015614a09578190505b614a1d614a15856148d5565b8301826149bc565b50505b505050565b600082821c905092915050565b6000614a4360001984600802614a25565b1980831691505092915050565b6000614a5c8383614a32565b9150826002028217905092915050565b614a7582613f43565b67ffffffffffffffff811115614a8e57614a8d613994565b5b614a98825461470a565b614aa38282856149df565b600060209050601f831160018114614ad65760008415614ac4578287015190505b614ace8582614a50565b865550614b36565b601f198416614ae4866148c0565b60005b82811015614b0c57848901518255600182019150602085019450602081019050614ae7565b86831015614b295784890151614b25601f891682614a32565b8355505b6001600288020188555050505b505050505050565b600081549050614b4d8161470a565b9050919050565b818103614b62575050614c3a565b614b6b82614b3e565b67ffffffffffffffff811115614b8457614b83613994565b5b614b8e825461470a565b614b998282856149df565b6000601f831160018114614bc85760008415614bb6578287015490505b614bc08582614a50565b865550614c33565b601f198416614bd6876148c0565b9650614be1866148c0565b60005b82811015614c0957848901548255600182019150600185019450602081019050614be4565b86831015614c265784890154614c22601f891682614a32565b8355505b6001600288020188555050505b5050505050505b565b60006040820190508181036000830152614c568185613f89565b90508181036020830152614c6a8184613f89565b90509392505050565b7f50726f64756374204e6f7420666f756e64000000000000000000000000000000600082015250565b6000614ca9601183613f4e565b9150614cb482614c73565b602082019050919050565b60006020820190508181036000830152614cd881614c9c565b9050919050565b7f4e487b7100000000000000000000000000000000000000000000000000000000600052603260045260246000fd5b7f596f7520646f206e6f74206f776e2074686973206272616e6400000000000000600082015250565b6000614d44601983613f4e565b9150614d4f82614d0e565b602082019050919050565b60006020820190508181036000830152614d7381614d37565b9050919050565b7f4272616e64206973206e6f742077686974656c69737465640000000000000000600082015250565b6000614db0601883613f4e565b9150614dbb82614d7a565b602082019050919050565b60006020820190508181036000830152614ddf81614da3565b9050919050565b6000614df28286614693565b9150614dfe8285614693565b9150614e0a82846147f9565b602082019150819050949350505050565b6000614e278287614693565b9150614e3382866147d8565b601482019150614e4382856147f9565b602082019150614e5382846147f9565b60208201915081905095945050505050565b60006080820190508181036000830152614e7f8187613f89565b9050614e8e6020830186613b41565b8181036040830152614ea08185613f89565b9050614eaf6060830184613b41565b95945050505050565b7f4f6e6c792061646d696e2063616e20706572666f726d2074686973206163746960008201527f6f6e000000000000000000000000000000000000000000000000000000000000602082015250565b6000614f14602283613f4e565b9150614f1f82614eb8565b604082019050919050565b60006020820190508181036000830152614f4381614f07565b9050919050565b7f46696c65206e6f7420666f756e64000000000000000000000000000000000000600082015250565b6000614f80600e83613f4e565b9150614f8b82614f4a565b602082019050919050565b60006020820190508181036000830152614faf81614f73565b9050919050565b7f4272616e6420646f6573206e6f74206578697374000000000000000000000000600082015250565b6000614fec601483613f4e565b9150614ff782614fb6565b602082019050919050565b6000602082019050818103600083015261501b81614fdf565b9050919050565b7f4272616e6420416c72656164792057686974656c697374656421000000000000600082015250565b6000615058601a83613f4e565b915061506382615022565b602082019050919050565b600060208201905081810360008301526150878161504b565b9050919050565b7f546869732070726f6475637420686173206265656e2064656c69737465642100600082015250565b60006150c4601f83613f4e565b91506150cf8261508e565b602082019050919050565b600060208201905081810360008301526150f3816150b7565b9050919050565b7f4f6e6c79207468652063757272656e74206f776e65722063616e20617070726f60008201527f766520746865207472616e736665720000000000000000000000000000000000602082015250565b6000615156602f83613f4e565b9150615161826150fa565b604082019050919050565b6000602082019050818103600083015261518581615149565b9050919050565b7f4e6f2070656e64696e67206f776e657273686970207265717565737400000000600082015250565b60006151c2601c83613f4e565b91506151cd8261518c565b602082019050919050565b600060208201905081810360008301526151f1816151b5565b9050919050565b600061520382613b6b565b91506000820361521657615215614849565b5b600182039050919050565b7f4e6f2072656769737465726564207573657220666f756e640000000000000000600082015250565b6000615257601883613f4e565b915061526282615221565b602082019050919050565b600060208201905081810360008301526152868161524a565b9050919050565b7f55736572206973206e6f74207265676973746572656400000000000000000000600082015250565b60006152c3601683613f4e565b91506152ce8261528d565b602082019050919050565b600060208201905081810360008301526152f2816152b6565b9050919050565b7f43616e6e6f742072657175657374206f776e6572736869702066726f6d20796f60008201527f757273656c660000000000000000000000000000000000000000000000000000602082015250565b6000615355602683613f4e565b9150615360826152f9565b604082019050919050565b6000602082019050818103600083015261538481615348565b9050919050565b7f5573657220616c72656164792072656769737465726564000000000000000000600082015250565b60006153c1601783613f4e565b91506153cc8261538b565b602082019050919050565b600060208201905081810360008301526153f0816153b4565b9050919050565b7f456d61696c20616c726561647920696e20757365000000000000000000000000600082015250565b600061542d601483613f4e565b9150615438826153f7565b602082019050919050565b6000602082019050818103600083015261545c81615420565b9050919050565b61546c81613d3b565b82525050565b60006080820190506154876000830187615463565b81810360208301526154998186613f89565b905081810360408301526154ad8185613f89565b905081810360608301526154c18184613f89565b90509594505050505056fea2646970667358221220a082f43cb1d77ab6cc1829c0252095a12d0ceadd262d4d8b70f8750a2a2958bf64736f6c63430008180033",
  "linkReferences": {},
  "deployedLinkReferences": {}
}